{
    "_format": "hh-sol-artifact-1",
    "contractName": "EntryPointWrapper",
    "sourceName": "contracts/bundler/EntryPointWrapper.sol",
    "abi": [
        {
            "inputs": [
                {
                    "internalType": "contract IEntryPoint",
                    "name": "_entryPoint",
                    "type": "address"
                }
            ],
            "stateMutability": "nonpayable",
            "type": "constructor"
        },
        {
            "inputs": [
                {
                    "internalType": "uint256",
                    "name": "opIndex",
                    "type": "uint256"
                },
                {
                    "internalType": "string",
                    "name": "reason",
                    "type": "string"
                }
            ],
            "name": "FailedOp",
            "type": "error"
        },
        {
            "inputs": [
                {
                    "internalType": "address",
                    "name": "sender",
                    "type": "address"
                }
            ],
            "name": "SenderAddressResult",
            "type": "error"
        },
        {
            "inputs": [
                {
                    "components": [
                        {
                            "internalType": "uint256",
                            "name": "preOpGas",
                            "type": "uint256"
                        },
                        {
                            "internalType": "uint256",
                            "name": "prefund",
                            "type": "uint256"
                        },
                        {
                            "internalType": "bool",
                            "name": "sigFailed",
                            "type": "bool"
                        },
                        {
                            "internalType": "uint48",
                            "name": "validAfter",
                            "type": "uint48"
                        },
                        {
                            "internalType": "uint48",
                            "name": "validUntil",
                            "type": "uint48"
                        },
                        {
                            "internalType": "bytes",
                            "name": "paymasterContext",
                            "type": "bytes"
                        }
                    ],
                    "internalType": "struct EntryPointWrapper.ReturnInfo",
                    "name": "returnInfo",
                    "type": "tuple"
                },
                {
                    "components": [
                        {
                            "internalType": "uint256",
                            "name": "stake",
                            "type": "uint256"
                        },
                        {
                            "internalType": "uint256",
                            "name": "unstakeDelaySec",
                            "type": "uint256"
                        }
                    ],
                    "internalType": "struct EntryPointWrapper.StakeInfo",
                    "name": "senderInfo",
                    "type": "tuple"
                },
                {
                    "components": [
                        {
                            "internalType": "uint256",
                            "name": "stake",
                            "type": "uint256"
                        },
                        {
                            "internalType": "uint256",
                            "name": "unstakeDelaySec",
                            "type": "uint256"
                        }
                    ],
                    "internalType": "struct EntryPointWrapper.StakeInfo",
                    "name": "factoryInfo",
                    "type": "tuple"
                },
                {
                    "components": [
                        {
                            "internalType": "uint256",
                            "name": "stake",
                            "type": "uint256"
                        },
                        {
                            "internalType": "uint256",
                            "name": "unstakeDelaySec",
                            "type": "uint256"
                        }
                    ],
                    "internalType": "struct EntryPointWrapper.StakeInfo",
                    "name": "paymasterInfo",
                    "type": "tuple"
                }
            ],
            "name": "ValidationResult",
            "type": "error"
        },
        {
            "inputs": [
                {
                    "components": [
                        {
                            "internalType": "uint256",
                            "name": "preOpGas",
                            "type": "uint256"
                        },
                        {
                            "internalType": "uint256",
                            "name": "prefund",
                            "type": "uint256"
                        },
                        {
                            "internalType": "bool",
                            "name": "sigFailed",
                            "type": "bool"
                        },
                        {
                            "internalType": "uint48",
                            "name": "validAfter",
                            "type": "uint48"
                        },
                        {
                            "internalType": "uint48",
                            "name": "validUntil",
                            "type": "uint48"
                        },
                        {
                            "internalType": "bytes",
                            "name": "paymasterContext",
                            "type": "bytes"
                        }
                    ],
                    "internalType": "struct EntryPointWrapper.ReturnInfo",
                    "name": "returnInfo",
                    "type": "tuple"
                },
                {
                    "components": [
                        {
                            "internalType": "uint256",
                            "name": "stake",
                            "type": "uint256"
                        },
                        {
                            "internalType": "uint256",
                            "name": "unstakeDelaySec",
                            "type": "uint256"
                        }
                    ],
                    "internalType": "struct EntryPointWrapper.StakeInfo",
                    "name": "senderInfo",
                    "type": "tuple"
                },
                {
                    "components": [
                        {
                            "internalType": "uint256",
                            "name": "stake",
                            "type": "uint256"
                        },
                        {
                            "internalType": "uint256",
                            "name": "unstakeDelaySec",
                            "type": "uint256"
                        }
                    ],
                    "internalType": "struct EntryPointWrapper.StakeInfo",
                    "name": "factoryInfo",
                    "type": "tuple"
                },
                {
                    "components": [
                        {
                            "internalType": "uint256",
                            "name": "stake",
                            "type": "uint256"
                        },
                        {
                            "internalType": "uint256",
                            "name": "unstakeDelaySec",
                            "type": "uint256"
                        }
                    ],
                    "internalType": "struct EntryPointWrapper.StakeInfo",
                    "name": "paymasterInfo",
                    "type": "tuple"
                },
                {
                    "components": [
                        {
                            "internalType": "address",
                            "name": "aggregator",
                            "type": "address"
                        },
                        {
                            "components": [
                                {
                                    "internalType": "uint256",
                                    "name": "stake",
                                    "type": "uint256"
                                },
                                {
                                    "internalType": "uint256",
                                    "name": "unstakeDelaySec",
                                    "type": "uint256"
                                }
                            ],
                            "internalType": "struct EntryPointWrapper.StakeInfo",
                            "name": "stakeInfo",
                            "type": "tuple"
                        }
                    ],
                    "internalType": "struct EntryPointWrapper.AggregatorStakeInfo",
                    "name": "aggregatorInfo",
                    "type": "tuple"
                }
            ],
            "name": "ValidationResultWithAggregation",
            "type": "error"
        },
        {
            "inputs": [],
            "name": "entryPoint",
            "outputs": [
                {
                    "internalType": "contract IEntryPoint",
                    "name": "",
                    "type": "address"
                }
            ],
            "stateMutability": "view",
            "type": "function"
        },
        {
            "inputs": [
                {
                    "internalType": "address[]",
                    "name": "addresses",
                    "type": "address[]"
                }
            ],
            "name": "getCodeHashes",
            "outputs": [
                {
                    "internalType": "bytes32",
                    "name": "",
                    "type": "bytes32"
                }
            ],
            "stateMutability": "view",
            "type": "function"
        },
        {
            "inputs": [
                {
                    "internalType": "bytes",
                    "name": "initCode",
                    "type": "bytes"
                }
            ],
            "name": "getSenderAddress",
            "outputs": [
                {
                    "internalType": "address",
                    "name": "",
                    "type": "address"
                }
            ],
            "stateMutability": "nonpayable",
            "type": "function"
        },
        {
            "inputs": [
                {
                    "internalType": "contract IEntryPoint",
                    "name": "entryPoint",
                    "type": "address"
                },
                {
                    "components": [
                        {
                            "internalType": "address",
                            "name": "sender",
                            "type": "address"
                        },
                        {
                            "internalType": "uint256",
                            "name": "nonce",
                            "type": "uint256"
                        },
                        {
                            "internalType": "bytes",
                            "name": "initCode",
                            "type": "bytes"
                        },
                        {
                            "internalType": "bytes",
                            "name": "callData",
                            "type": "bytes"
                        },
                        {
                            "internalType": "uint256",
                            "name": "callGasLimit",
                            "type": "uint256"
                        },
                        {
                            "internalType": "uint256",
                            "name": "verificationGasLimit",
                            "type": "uint256"
                        },
                        {
                            "internalType": "uint256",
                            "name": "preVerificationGas",
                            "type": "uint256"
                        },
                        {
                            "internalType": "uint256",
                            "name": "maxFeePerGas",
                            "type": "uint256"
                        },
                        {
                            "internalType": "uint256",
                            "name": "maxPriorityFeePerGas",
                            "type": "uint256"
                        },
                        {
                            "internalType": "bytes",
                            "name": "paymasterAndData",
                            "type": "bytes"
                        },
                        {
                            "internalType": "bytes",
                            "name": "signature",
                            "type": "bytes"
                        }
                    ],
                    "internalType": "struct UserOperation[]",
                    "name": "userOps",
                    "type": "tuple[]"
                }
            ],
            "name": "getUserOpHashes",
            "outputs": [
                {
                    "internalType": "bytes32[]",
                    "name": "ret",
                    "type": "bytes32[]"
                }
            ],
            "stateMutability": "view",
            "type": "function"
        },
        {
            "inputs": [
                {
                    "components": [
                        {
                            "internalType": "address",
                            "name": "sender",
                            "type": "address"
                        },
                        {
                            "internalType": "uint256",
                            "name": "nonce",
                            "type": "uint256"
                        },
                        {
                            "internalType": "bytes",
                            "name": "initCode",
                            "type": "bytes"
                        },
                        {
                            "internalType": "bytes",
                            "name": "callData",
                            "type": "bytes"
                        },
                        {
                            "internalType": "uint256",
                            "name": "callGasLimit",
                            "type": "uint256"
                        },
                        {
                            "internalType": "uint256",
                            "name": "verificationGasLimit",
                            "type": "uint256"
                        },
                        {
                            "internalType": "uint256",
                            "name": "preVerificationGas",
                            "type": "uint256"
                        },
                        {
                            "internalType": "uint256",
                            "name": "maxFeePerGas",
                            "type": "uint256"
                        },
                        {
                            "internalType": "uint256",
                            "name": "maxPriorityFeePerGas",
                            "type": "uint256"
                        },
                        {
                            "internalType": "bytes",
                            "name": "paymasterAndData",
                            "type": "bytes"
                        },
                        {
                            "internalType": "bytes",
                            "name": "signature",
                            "type": "bytes"
                        }
                    ],
                    "internalType": "struct UserOperation",
                    "name": "userOp",
                    "type": "tuple"
                }
            ],
            "name": "simulateValidation",
            "outputs": [
                {
                    "components": [
                        {
                            "internalType": "bool",
                            "name": "status",
                            "type": "bool"
                        },
                        {
                            "internalType": "uint256",
                            "name": "opIndex",
                            "type": "uint256"
                        },
                        {
                            "internalType": "string",
                            "name": "reason",
                            "type": "string"
                        }
                    ],
                    "internalType": "struct EntryPointWrapper.FailedOpStatus",
                    "name": "",
                    "type": "tuple"
                },
                {
                    "components": [
                        {
                            "internalType": "string",
                            "name": "selectorType",
                            "type": "string"
                        },
                        {
                            "components": [
                                {
                                    "internalType": "uint256",
                                    "name": "preOpGas",
                                    "type": "uint256"
                                },
                                {
                                    "internalType": "uint256",
                                    "name": "prefund",
                                    "type": "uint256"
                                },
                                {
                                    "internalType": "bool",
                                    "name": "sigFailed",
                                    "type": "bool"
                                },
                                {
                                    "internalType": "uint48",
                                    "name": "validAfter",
                                    "type": "uint48"
                                },
                                {
                                    "internalType": "uint48",
                                    "name": "validUntil",
                                    "type": "uint48"
                                },
                                {
                                    "internalType": "bytes",
                                    "name": "paymasterContext",
                                    "type": "bytes"
                                }
                            ],
                            "internalType": "struct EntryPointWrapper.ReturnInfo",
                            "name": "returnInfo",
                            "type": "tuple"
                        },
                        {
                            "components": [
                                {
                                    "internalType": "uint256",
                                    "name": "stake",
                                    "type": "uint256"
                                },
                                {
                                    "internalType": "uint256",
                                    "name": "unstakeDelaySec",
                                    "type": "uint256"
                                }
                            ],
                            "internalType": "struct EntryPointWrapper.StakeInfo",
                            "name": "senderInfo",
                            "type": "tuple"
                        },
                        {
                            "components": [
                                {
                                    "internalType": "uint256",
                                    "name": "stake",
                                    "type": "uint256"
                                },
                                {
                                    "internalType": "uint256",
                                    "name": "unstakeDelaySec",
                                    "type": "uint256"
                                }
                            ],
                            "internalType": "struct EntryPointWrapper.StakeInfo",
                            "name": "factoryInfo",
                            "type": "tuple"
                        },
                        {
                            "components": [
                                {
                                    "internalType": "uint256",
                                    "name": "stake",
                                    "type": "uint256"
                                },
                                {
                                    "internalType": "uint256",
                                    "name": "unstakeDelaySec",
                                    "type": "uint256"
                                }
                            ],
                            "internalType": "struct EntryPointWrapper.StakeInfo",
                            "name": "paymasterInfo",
                            "type": "tuple"
                        },
                        {
                            "components": [
                                {
                                    "internalType": "address",
                                    "name": "aggregator",
                                    "type": "address"
                                },
                                {
                                    "components": [
                                        {
                                            "internalType": "uint256",
                                            "name": "stake",
                                            "type": "uint256"
                                        },
                                        {
                                            "internalType": "uint256",
                                            "name": "unstakeDelaySec",
                                            "type": "uint256"
                                        }
                                    ],
                                    "internalType": "struct EntryPointWrapper.StakeInfo",
                                    "name": "stakeInfo",
                                    "type": "tuple"
                                }
                            ],
                            "internalType": "struct EntryPointWrapper.AggregatorStakeInfo",
                            "name": "aggregatorInfo",
                            "type": "tuple"
                        }
                    ],
                    "internalType": "struct EntryPointWrapper.Response",
                    "name": "",
                    "type": "tuple"
                }
            ],
            "stateMutability": "nonpayable",
            "type": "function"
        }
    ],
    "bytecode": "0x6000608081905260a08190526001819055600281905560c081905261010081815261012082905260e052600380546001600160a01b0319169055600481905560058190556101408181526101608290526101808290526101a08290526101c08290526102008281526102206040526101e08190526006838155600793909355600880546001600160681b0319169055909190600990620000a09082620004a5565b50506040805160e081018252600060c08083019182529082528251908101835260068054825260075460208381019190915260085460ff811615159584019590955265ffffffffffff610100860481166060850152670100000000000000909504909416608083015260098054939550938501939192909160a0840191620001289062000416565b80601f0160208091040260200160405190810160405280929190818152602001828054620001569062000416565b8015620001a75780601f106200017b57610100808354040283529160200191620001a7565b820191906000526020600020905b8154815290600101906020018083116200018957829003601f168201915b505050919092525050508152604080518082018252600154808252600254602083810182905280860193909352835180850185528281528084018290528486015283518085018552918252818301526060840152815180830183526003546001600160a01b031681528251808401909352600454835260055483830152908101919091526080909101528051600a908190620002449082620004a5565b5060208281015180516001840190815591810151600284015560408101516003840180546060840151608085015166ffffffffffffff1990921693151566ffffffffffff0019169390931761010065ffffffffffff948516021765ffffffffffff60381b1916670100000000000000939091169290920291909117905560a08101519091906004840190620002da9082620004a5565b505050604082810151805160058401556020908101516006840155606080850151805160078601558201516008850155608085015180516009860155820151600a85015560a0909401518051600b850180546001600160a01b0319166001600160a01b039092169190911790558101518051600c850155810151600d909301929092558051928301815260008084528383018181528251938401835290835290830182905282516018805460ff1916911515919091178155905160195590601a90620003a79082620004a5565b505050348015620003b757600080fd5b506040516200234238038062002342833981016040819052620003da9162000571565b600080546001600160a01b0319166001600160a01b0392909216919091179055620005a3565b634e487b7160e01b600052604160045260246000fd5b600181811c908216806200042b57607f821691505b6020821081036200044c57634e487b7160e01b600052602260045260246000fd5b50919050565b601f821115620004a057600081815260208120601f850160051c810160208610156200047b5750805b601f850160051c820191505b818110156200049c5782815560010162000487565b5050505b505050565b81516001600160401b03811115620004c157620004c162000400565b620004d981620004d2845462000416565b8462000452565b602080601f831160018114620005115760008415620004f85750858301515b600019600386901b1c1916600185901b1785556200049c565b600085815260208120601f198616915b82811015620005425788860151825594840194600190910190840162000521565b5085821015620005615787850151600019600388901b60f8161c191681555b5050505050600190811b01905550565b6000602082840312156200058457600080fd5b81516001600160a01b03811681146200059c57600080fd5b9392505050565b611d8f80620005b36000396000f3fe608060405234801561001057600080fd5b50600436106100675760003560e01c80639b249f69116100505780639b249f69146100b6578063b0d691fe146100ee578063ee2194231461010e57600080fd5b80633024e00c1461006c5780637b34b62114610095575b600080fd5b61007f61007a3660046110b2565b61012f565b60405161008c919061128f565b60405180910390f35b6100a86100a33660046112d3565b61024d565b60405190815260200161008c565b6100c96100c436600461136d565b610354565b60405173ffffffffffffffffffffffffffffffffffffffff909116815260200161008c565b6000546100c99073ffffffffffffffffffffffffffffffffffffffff1681565b61012161011c3660046113df565b610501565b60405161008c929190611495565b6060815167ffffffffffffffff81111561014b5761014b610ef4565b604051908082528060200260200182016040528015610174578160200160208202803683370190505b50905060005b8251811015610245578373ffffffffffffffffffffffffffffffffffffffff1663a61935318483815181106101b1576101b16115df565b60200260200101516040518263ffffffff1660e01b81526004016101d5919061160e565b602060405180830381865afa1580156101f2573d6000803e3d6000fd5b505050506040513d601f19601f82011682018060405250810190610216919061171a565b828281518110610228576102286115df565b60209081029190910101528061023d81611762565b91505061017a565b505b92915050565b600080825167ffffffffffffffff81111561026a5761026a610ef4565b604051908082528060200260200182016040528015610293578160200160208202803683370190505b50905060005b8351811015610302578381815181106102b4576102b46115df565b602002602001015173ffffffffffffffffffffffffffffffffffffffff163f8282815181106102e5576102e56115df565b6020908102919091010152806102fa81611762565b915050610299565b50600081604051602001610316919061128f565b604080517fffffffffffffffffffffffffffffffffffffffffffffffffffffffffffffffe08184030181529190528051602090910120949350505050565b600080546040517f9b249f6900000000000000000000000000000000000000000000000000000000815273ffffffffffffffffffffffffffffffffffffffff90911690639b249f69906103ad90869086906004016117e3565b600060405180830381600087803b1580156103c757600080fd5b505af19250505080156103d8575060015b610247573d808015610406576040519150601f19603f3d011682016040523d82523d6000602084013e61040b565b606091505b506000610417826117ff565b90507f935847fa000000000000000000000000000000000000000000000000000000007fffffffff0000000000000000000000000000000000000000000000000000000082160161049a57600061047c836004808651610477919061184f565b610c57565b80602001905181019061048f9190611866565b935061024792505050565b6040517f08c379a000000000000000000000000000000000000000000000000000000000815260206004820152601060248201527f496e76616c696420696e6974436f64650000000000000000000000000000000060448201526064015b60405180910390fd5b60408051606080820183526000808352602083015291810191909152610525610dd3565b6000546040517fee21942300000000000000000000000000000000000000000000000000000000815273ffffffffffffffffffffffffffffffffffffffff9091169063ee2194239061057b9086906004016118ee565b600060405180830381600087803b15801561059557600080fd5b505af19250505080156105a6575060015b610c52573d8080156105d4576040519150601f19603f3d011682016040523d82523d6000602084013e6105d9565b606091505b5060006105e5826117ff565b90507f1f300fa1000000000000000000000000000000000000000000000000000000007fffffffff000000000000000000000000000000000000000000000000000000008216016107c557600080600080610649866004808951610477919061184f565b80602001905181019061065c9190611b4a565b6040805161010081018252601060c082019081527f56616c69646174696f6e526573756c740000000000000000000000000000000060e0830152815260208082018790528183018690526060808301869052608083018590528351808501855260035473ffffffffffffffffffffffffffffffffffffffff168152845180860186526004548152600554818501528184015260a0840152835190810184526018805460ff161515825260195492820192909252601a8054989c50969a509498509296509194919385929184019161073290611bbc565b80601f016020809104026020016040519081016040528092919081815260200182805461075e90611bbc565b80156107ab5780601f10610780576101008083540402835291602001916107ab565b820191906000526020600020905b81548152906001019060200180831161078e57829003601f168201915b505050505081525050915097509750505050505050915091565b7f05134b1c000000000000000000000000000000000000000000000000000000007fffffffff00000000000000000000000000000000000000000000000000000000821601610971576000806000806000610829876004808a51610477919061184f565b80602001905181019061083c9190611c0f565b6040805161010081018252601f60c082019081527f56616c69646174696f6e526573756c74576974684167677265676174696f6e0060e08301528152602080820188905281830187905260608083018790526080830186905260a08301859052835190810184526018805460ff161515825260195492820192909252601a8054999e50979c50959a509398509196509194909385928401916108dd90611bbc565b80601f016020809104026020016040519081016040528092919081815260200182805461090990611bbc565b80156109565780601f1061092b57610100808354040283529160200191610956565b820191906000526020600020905b81548152906001019060200180831161093957829003601f168201915b50505050508152505091509850985050505050505050915091565b7fddfd994a000000000000000000000000000000000000000000000000000000007fffffffff00000000000000000000000000000000000000000000000000000000821601610c4f576000806109d0846004808751610477919061184f565b8060200190518101906109e39190611ce6565b91509150604051806060016040528060011515815260200183815260200182815250600a806040518060c0016040529081600082018054610a2390611bbc565b80601f0160208091040260200160405190810160405280929190818152602001828054610a4f90611bbc565b8015610a9c5780601f10610a7157610100808354040283529160200191610a9c565b820191906000526020600020905b815481529060010190602001808311610a7f57829003601f168201915b50505091835250506040805160c08101825260018401805482526002850154602083810191909152600386015460ff811615159484019490945265ffffffffffff610100850481166060850152670100000000000000909404909316608083015260048501805493909401939192909160a0840191610b1a90611bbc565b80601f0160208091040260200160405190810160405280929190818152602001828054610b4690611bbc565b8015610b935780601f10610b6857610100808354040283529160200191610b93565b820191906000526020600020905b815481529060010190602001808311610b7657829003601f168201915b505050919092525050508152604080518082018252600584015481526006840154602082810191909152808401919091528151808301835260078501548152600885015481830152828401528151808301835260098501548152600a85015481830152606084015281518083018352600b85015473ffffffffffffffffffffffffffffffffffffffff1681528251808401909352600c8501548352600d9094015482820152830152608001529199919850909650505050505050565b50505b915091565b606081610c6581601f611d41565b1015610ccd576040517f08c379a000000000000000000000000000000000000000000000000000000000815260206004820152600e60248201527f736c6963655f6f766572666c6f7700000000000000000000000000000000000060448201526064016104f8565b610cd78284611d41565b84511015610d41576040517f08c379a000000000000000000000000000000000000000000000000000000000815260206004820152601160248201527f736c6963655f6f75744f66426f756e647300000000000000000000000000000060448201526064016104f8565b606082158015610d605760405191506000825260208201604052610dc8565b6040519150601f8416801560200281840101858101878315602002848b0101015b81831015610d99578051835260209283019201610d81565b5050858452601f017fffffffffffffffffffffffffffffffffffffffffffffffffffffffffffffffe016604052505b5090505b9392505050565b6040805160c0808201835260608083528351918201845260008083526020838101829052948301819052828201819052608083015260a082015290918201908152602001610e34604051806040016040528060008152602001600081525090565b8152602001610e56604051806040016040528060008152602001600081525090565b8152602001610e78604051806040016040528060008152602001600081525090565b8152602001610e85610e8a565b905290565b6040518060400160405280600073ffffffffffffffffffffffffffffffffffffffff168152602001610e85604051806040016040528060008152602001600081525090565b73ffffffffffffffffffffffffffffffffffffffff81168114610ef157600080fd5b50565b7f4e487b7100000000000000000000000000000000000000000000000000000000600052604160045260246000fd5b604051610160810167ffffffffffffffff81118282101715610f4757610f47610ef4565b60405290565b60405160c0810167ffffffffffffffff81118282101715610f4757610f47610ef4565b6040805190810167ffffffffffffffff81118282101715610f4757610f47610ef4565b604051601f82017fffffffffffffffffffffffffffffffffffffffffffffffffffffffffffffffe016810167ffffffffffffffff81118282101715610fda57610fda610ef4565b604052919050565b600067ffffffffffffffff821115610ffc57610ffc610ef4565b5060051b60200190565b803561101181610ecf565b919050565b600067ffffffffffffffff82111561103057611030610ef4565b50601f017fffffffffffffffffffffffffffffffffffffffffffffffffffffffffffffffe01660200190565b600082601f83011261106d57600080fd5b813561108061107b82611016565b610f93565b81815284602083860101111561109557600080fd5b816020850160208301376000918101602001919091529392505050565b600080604083850312156110c557600080fd5b82356110d081610ecf565b915060208381013567ffffffffffffffff808211156110ee57600080fd5b818601915086601f83011261110257600080fd5b813561111061107b82610fe2565b81815260059190911b8301840190848101908983111561112f57600080fd5b8585015b8381101561127e5780358581111561114a57600080fd5b8601610160818d037fffffffffffffffffffffffffffffffffffffffffffffffffffffffffffffffe001121561117f57600080fd5b611187610f23565b611192898301611006565b81526040820135898201526060820135878111156111af57600080fd5b6111bd8e8b8386010161105c565b6040830152506080820135878111156111d557600080fd5b6111e38e8b8386010161105c565b60608301525060a0820135608082015260c082013560a082015260e082013560c082015261010082013560e0820152610120820135610100820152610140808301358881111561123257600080fd5b6112408f8c8387010161105c565b610120840152506101608301358881111561125a57600080fd5b6112688f8c8387010161105c565b9183019190915250845250918601918601611133565b508096505050505050509250929050565b6020808252825182820181905260009190848201906040850190845b818110156112c7578351835292840192918401916001016112ab565b50909695505050505050565b600060208083850312156112e657600080fd5b823567ffffffffffffffff8111156112fd57600080fd5b8301601f8101851361130e57600080fd5b803561131c61107b82610fe2565b81815260059190911b8201830190838101908783111561133b57600080fd5b928401925b8284101561136257833561135381610ecf565b82529284019290840190611340565b979650505050505050565b6000806020838503121561138057600080fd5b823567ffffffffffffffff8082111561139857600080fd5b818501915085601f8301126113ac57600080fd5b8135818111156113bb57600080fd5b8660208285010111156113cd57600080fd5b60209290920196919550909350505050565b6000602082840312156113f157600080fd5b813567ffffffffffffffff81111561140857600080fd5b82016101608185031215610dcc57600080fd5b60005b8381101561143657818101518382015260200161141e565b83811115611445576000848401525b50505050565b6000815180845261146381602086016020860161141b565b601f017fffffffffffffffffffffffffffffffffffffffffffffffffffffffffffffffe0169290920160200192915050565b600060408083528451151581840152602080860151606085015281860151606060808601526114c760a086018261144b565b90508481038286015261016086518183526114e48284018261144b565b9150508287015182820384840152805182528381015184830152848101511515858301526060810151935065ffffffffffff80851660608401528060808301511660808401525060a081015193505060c060a082015261154760c082018461144b565b925050828601516115648483018280518252602090810151910152565b50606086015180516080830152602081015160a083015292506080860151805160c0830152602081015160e0830152925060a086015192506115d5610100820184805173ffffffffffffffffffffffffffffffffffffffff1682526020908101518051828401520151604090910152565b5095945050505050565b7f4e487b7100000000000000000000000000000000000000000000000000000000600052603260045260246000fd5b6020815261163560208201835173ffffffffffffffffffffffffffffffffffffffff169052565b602082015160408201526000604083015161016080606085015261165d61018085018361144b565b915060608501517fffffffffffffffffffffffffffffffffffffffffffffffffffffffffffffffe080868503016080870152611699848361144b565b9350608087015160a087015260a087015160c087015260c087015160e087015260e087015191506101008281880152808801519250506101208281880152808801519250506101408187860301818801526116f4858461144b565b908801518782039092018488015293509050611710838261144b565b9695505050505050565b60006020828403121561172c57600080fd5b5051919050565b7f4e487b7100000000000000000000000000000000000000000000000000000000600052601160045260246000fd5b60007fffffffffffffffffffffffffffffffffffffffffffffffffffffffffffffffff820361179357611793611733565b5060010190565b8183528181602085013750600060208284010152600060207fffffffffffffffffffffffffffffffffffffffffffffffffffffffffffffffe0601f840116840101905092915050565b6020815260006117f760208301848661179a565b949350505050565b6000815160208301517fffffffff00000000000000000000000000000000000000000000000000000000808216935060048310156118475780818460040360031b1b83161693505b505050919050565b60008282101561186157611861611733565b500390565b60006020828403121561187857600080fd5b8151610dcc81610ecf565b60008083357fffffffffffffffffffffffffffffffffffffffffffffffffffffffffffffffe18436030181126118b857600080fd5b830160208101925035905067ffffffffffffffff8111156118d857600080fd5b8036038213156118e757600080fd5b9250929050565b6020815261191c6020820161190284611006565b73ffffffffffffffffffffffffffffffffffffffff169052565b6020820135604082015260006119356040840184611883565b61016080606086015261194d6101808601838561179a565b925061195c6060870187611883565b92507fffffffffffffffffffffffffffffffffffffffffffffffffffffffffffffffe08087860301608088015261199485858461179a565b9450608088013560a088015260a088013560c088015260c088013560e0880152610100935060e088013584880152610120915083880135828801526119db82890189611883565b945091506101408188870301818901526119f686868561179a565b9550611a04818a018a611883565b95509250508087860301838801525061136284848361179a565b805165ffffffffffff8116811461101157600080fd5b6000611a4261107b84611016565b9050828152838383011115611a5657600080fd5b610dcc83602083018461141b565b600082601f830112611a7557600080fd5b610dcc83835160208501611a34565b600060c08284031215611a9657600080fd5b611a9e610f4d565b9050815181526020820151602082015260408201518015158114611ac157600080fd5b6040820152611ad260608301611a1e565b6060820152611ae360808301611a1e565b608082015260a082015167ffffffffffffffff811115611b0257600080fd5b611b0e84828501611a64565b60a08301525092915050565b600060408284031215611b2c57600080fd5b611b34610f70565b9050815181526020820151602082015292915050565b60008060008060e08587031215611b6057600080fd5b845167ffffffffffffffff811115611b7757600080fd5b611b8387828801611a84565b945050611b938660208701611b1a565b9250611ba28660608701611b1a565b9150611bb18660a08701611b1a565b905092959194509250565b600181811c90821680611bd057607f821691505b602082108103611c09577f4e487b7100000000000000000000000000000000000000000000000000000000600052602260045260246000fd5b50919050565b6000806000806000858703610140811215611c2957600080fd5b865167ffffffffffffffff811115611c4057600080fd5b611c4c89828a01611a84565b965050611c5c8860208901611b1a565b9450611c6b8860608901611b1a565b9350611c7a8860a08901611b1a565b925060607fffffffffffffffffffffffffffffffffffffffffffffffffffffffffffffff2082011215611cac57600080fd5b50611cb5610f70565b60e0870151611cc381610ecf565b8152611cd3886101008901611b1a565b6020820152809150509295509295909350565b60008060408385031215611cf957600080fd5b82519150602083015167ffffffffffffffff811115611d1757600080fd5b8301601f81018513611d2857600080fd5b611d3785825160208401611a34565b9150509250929050565b60008219821115611d5457611d54611733565b50019056fea26469706673582212201d4babb9a933320ca8637395105a2f5628d576d099d45c49070c745fa1078b7d64736f6c634300080f0033",
    "linkReferences": {},
    "deployedLinkReferences": {}
}