{
  "address": "0x851F65a06DA4B86342D5F3b4C1524e0F3960A794",
  "abi": [
    {
      "type": "constructor",
      "inputs": [
        {
          "name": "_portal",
          "type": "address",
          "internalType": "contract OptimismPortal"
        }
      ],
      "stateMutability": "nonpayable"
    },
    {
      "type": "function",
      "name": "PORTAL",
      "inputs": [],
      "outputs": [
        {
          "name": "",
          "type": "address",
          "internalType": "contract OptimismPortal"
        }
      ],
      "stateMutability": "view"
    },
    {
      "type": "function",
      "name": "donate",
      "inputs": [],
      "outputs": [],
      "stateMutability": "nonpayable"
    }
  ],
  "transactionHash": "0xd799ed04b20033a89e83b52d2233059c57547deb73e3cc08bd41176d6c062e12",
  "args": [
    "0xD00d5Cc5620697a31014E5594AABba590793836D"
  ],
  "numDeployments": 1,
  "bytecode": "0x60a060405234801561001057600080fd5b506040516101b53803806101b583398101604081905261002f91610040565b6001600160a01b0316608052610070565b60006020828403121561005257600080fd5b81516001600160a01b038116811461006957600080fd5b9392505050565b6080516101256100906000396000818160400152609701526101256000f3fe608060405234801561001057600080fd5b50600436106100365760003560e01c80630ff754ea1461003b578063ed88c68e1461008b575b600080fd5b6100627f000000000000000000000000000000000000000000000000000000000000000081565b60405173ffffffffffffffffffffffffffffffffffffffff909116815260200160405180910390f35b610093610095565b005b7f000000000000000000000000000000000000000000000000000000000000000073ffffffffffffffffffffffffffffffffffffffff16638b4c40b0476040518263ffffffff1660e01b81526004016000604051808303818588803b1580156100fd57600080fd5b505af1158015610111573d6000803e3d6000fd5b505050505056fea164736f6c634300080f000a"
}