{
  "address": "0x67E86FEB8AE5AB378A579E436E10b5D64a9f348D",
  "abi": [
    {
      "type": "constructor",
      "inputs": [],
      "stateMutability": "nonpayable"
    },
    {
      "type": "function",
      "name": "EXIT_1_NO_RETURN_STEP",
      "inputs": [],
      "outputs": [
        {
          "name": "",
          "type": "uint8",
          "internalType": "uint8"
        }
      ],
      "stateMutability": "view"
    },
    {
      "type": "function",
      "name": "PROXY_TRANSFER_STEP",
      "inputs": [],
      "outputs": [
        {
          "name": "",
          "type": "uint8",
          "internalType": "uint8"
        }
      ],
      "stateMutability": "view"
    },
    {
      "type": "function",
      "name": "config",
      "inputs": [],
      "outputs": [
        {
          "name": "globalConfig",
          "type": "tuple",
          "internalType": "struct SystemDictator.GlobalConfig",
          "components": [
            {
              "name": "addressManager",
              "type": "address",
              "internalType": "contract AddressManager"
            },
            {
              "name": "proxyAdmin",
              "type": "address",
              "internalType": "contract ProxyAdmin"
            },
            {
              "name": "controller",
              "type": "address",
              "internalType": "address"
            },
            {
              "name": "finalOwner",
              "type": "address",
              "internalType": "address"
            }
          ]
        },
        {
          "name": "proxyAddressConfig",
          "type": "tuple",
          "internalType": "struct SystemDictator.ProxyAddressConfig",
          "components": [
            {
              "name": "l2OutputOracleProxy",
              "type": "address",
              "internalType": "address"
            },
            {
              "name": "optimismPortalProxy",
              "type": "address",
              "internalType": "address"
            },
            {
              "name": "l1CrossDomainMessengerProxy",
              "type": "address",
              "internalType": "address"
            },
            {
              "name": "l1StandardBridgeProxy",
              "type": "address",
              "internalType": "address"
            },
            {
              "name": "optimismMintableERC20FactoryProxy",
              "type": "address",
              "internalType": "address"
            },
            {
              "name": "l1ERC721BridgeProxy",
              "type": "address",
              "internalType": "address"
            },
            {
              "name": "systemConfigProxy",
              "type": "address",
              "internalType": "address"
            },
            {
              "name": "protocolVersionsProxy",
              "type": "address",
              "internalType": "address"
            },
            {
              "name": "superchainConfigProxy",
              "type": "address",
              "internalType": "address"
            }
          ]
        },
        {
          "name": "implementationAddressConfig",
          "type": "tuple",
          "internalType": "struct SystemDictator.ImplementationAddressConfig",
          "components": [
            {
              "name": "l2OutputOracleImpl",
              "type": "address",
              "internalType": "contract L2OutputOracle"
            },
            {
              "name": "optimismPortalImpl",
              "type": "address",
              "internalType": "contract OptimismPortal"
            },
            {
              "name": "l1CrossDomainMessengerImpl",
              "type": "address",
              "internalType": "contract L1CrossDomainMessenger"
            },
            {
              "name": "l1StandardBridgeImpl",
              "type": "address",
              "internalType": "contract L1StandardBridge"
            },
            {
              "name": "optimismMintableERC20FactoryImpl",
              "type": "address",
              "internalType": "contract OptimismMintableERC20Factory"
            },
            {
              "name": "l1ERC721BridgeImpl",
              "type": "address",
              "internalType": "contract L1ERC721Bridge"
            },
            {
              "name": "portalSenderImpl",
              "type": "address",
              "internalType": "contract PortalSender"
            },
            {
              "name": "addressDeprecatorImpl",
              "type": "address",
              "internalType": "contract AddressDeprecator"
            },
            {
              "name": "systemConfigImpl",
              "type": "address",
              "internalType": "contract SystemConfig"
            },
            {
              "name": "protocolVersionsImpl",
              "type": "address",
              "internalType": "contract ProtocolVersions"
            },
            {
              "name": "superchainConfigImpl",
              "type": "address",
              "internalType": "contract SuperchainConfig"
            }
          ]
        },
        {
          "name": "systemConfigConfig",
          "type": "tuple",
          "internalType": "struct SystemDictator.SystemConfigConfig",
          "components": [
            {
              "name": "owner",
              "type": "address",
              "internalType": "address"
            },
            {
              "name": "overhead",
              "type": "uint256",
              "internalType": "uint256"
            },
            {
              "name": "scalar",
              "type": "uint256",
              "internalType": "uint256"
            },
            {
              "name": "batcherHash",
              "type": "bytes32",
              "internalType": "bytes32"
            },
            {
              "name": "gasLimit",
              "type": "uint64",
              "internalType": "uint64"
            },
            {
              "name": "unsafeBlockSigner",
              "type": "address",
              "internalType": "address"
            },
            {
              "name": "resourceConfig",
              "type": "tuple",
              "internalType": "struct ResourceMetering.ResourceConfig",
              "components": [
                {
                  "name": "maxResourceLimit",
                  "type": "uint32",
                  "internalType": "uint32"
                },
                {
                  "name": "elasticityMultiplier",
                  "type": "uint8",
                  "internalType": "uint8"
                },
                {
                  "name": "baseFeeMaxChangeDenominator",
                  "type": "uint8",
                  "internalType": "uint8"
                },
                {
                  "name": "minimumBaseFee",
                  "type": "uint32",
                  "internalType": "uint32"
                },
                {
                  "name": "systemTxMaxGas",
                  "type": "uint32",
                  "internalType": "uint32"
                },
                {
                  "name": "maximumBaseFee",
                  "type": "uint128",
                  "internalType": "uint128"
                }
              ]
            },
            {
              "name": "opnodeStartBlock",
              "type": "uint256",
              "internalType": "uint256"
            },
            {
              "name": "batchInbox",
              "type": "address",
              "internalType": "address"
            },
            {
              "name": "systemConfigAddressConfig",
              "type": "tuple",
              "internalType": "struct SystemConfig.Addresses",
              "components": [
                {
                  "name": "l1CrossDomainMessenger",
                  "type": "address",
                  "internalType": "address"
                },
                {
                  "name": "l1ERC721Bridge",
                  "type": "address",
                  "internalType": "address"
                },
                {
                  "name": "l1StandardBridge",
                  "type": "address",
                  "internalType": "address"
                },
                {
                  "name": "disputeGameFactory",
                  "type": "address",
                  "internalType": "address"
                },
                {
                  "name": "optimismPortal",
                  "type": "address",
                  "internalType": "address"
                },
                {
                  "name": "optimismMintableERC20Factory",
                  "type": "address",
                  "internalType": "address"
                },
                {
                  "name": "gasPayingToken",
                  "type": "address",
                  "internalType": "address"
                }
              ]
            }
          ]
        },
        {
          "name": "protocolVersionConfig",
          "type": "tuple",
          "internalType": "struct SystemDictator.ProtocolVersionConfig",
          "components": [
            {
              "name": "requiredProtocolVersion",
              "type": "uint256",
              "internalType": "ProtocolVersion"
            },
            {
              "name": "recommendedProtocolVersion",
              "type": "uint256",
              "internalType": "ProtocolVersion"
            }
          ]
        }
      ],
      "stateMutability": "view"
    },
    {
      "type": "function",
      "name": "currentStep",
      "inputs": [],
      "outputs": [
        {
          "name": "",
          "type": "uint8",
          "internalType": "uint8"
        }
      ],
      "stateMutability": "view"
    },
    {
      "type": "function",
      "name": "dynamicConfigSet",
      "inputs": [],
      "outputs": [
        {
          "name": "",
          "type": "bool",
          "internalType": "bool"
        }
      ],
      "stateMutability": "view"
    },
    {
      "type": "function",
      "name": "exit1",
      "inputs": [],
      "outputs": [],
      "stateMutability": "nonpayable"
    },
    {
      "type": "function",
      "name": "exited",
      "inputs": [],
      "outputs": [
        {
          "name": "",
          "type": "bool",
          "internalType": "bool"
        }
      ],
      "stateMutability": "view"
    },
    {
      "type": "function",
      "name": "finalize",
      "inputs": [],
      "outputs": [],
      "stateMutability": "nonpayable"
    },
    {
      "type": "function",
      "name": "finalized",
      "inputs": [],
      "outputs": [
        {
          "name": "",
          "type": "bool",
          "internalType": "bool"
        }
      ],
      "stateMutability": "view"
    },
    {
      "type": "function",
      "name": "initialize",
      "inputs": [
        {
          "name": "_config",
          "type": "tuple",
          "internalType": "struct SystemDictator.DeployConfig",
          "components": [
            {
              "name": "globalConfig",
              "type": "tuple",
              "internalType": "struct SystemDictator.GlobalConfig",
              "components": [
                {
                  "name": "addressManager",
                  "type": "address",
                  "internalType": "contract AddressManager"
                },
                {
                  "name": "proxyAdmin",
                  "type": "address",
                  "internalType": "contract ProxyAdmin"
                },
                {
                  "name": "controller",
                  "type": "address",
                  "internalType": "address"
                },
                {
                  "name": "finalOwner",
                  "type": "address",
                  "internalType": "address"
                }
              ]
            },
            {
              "name": "proxyAddressConfig",
              "type": "tuple",
              "internalType": "struct SystemDictator.ProxyAddressConfig",
              "components": [
                {
                  "name": "l2OutputOracleProxy",
                  "type": "address",
                  "internalType": "address"
                },
                {
                  "name": "optimismPortalProxy",
                  "type": "address",
                  "internalType": "address"
                },
                {
                  "name": "l1CrossDomainMessengerProxy",
                  "type": "address",
                  "internalType": "address"
                },
                {
                  "name": "l1StandardBridgeProxy",
                  "type": "address",
                  "internalType": "address"
                },
                {
                  "name": "optimismMintableERC20FactoryProxy",
                  "type": "address",
                  "internalType": "address"
                },
                {
                  "name": "l1ERC721BridgeProxy",
                  "type": "address",
                  "internalType": "address"
                },
                {
                  "name": "systemConfigProxy",
                  "type": "address",
                  "internalType": "address"
                },
                {
                  "name": "protocolVersionsProxy",
                  "type": "address",
                  "internalType": "address"
                },
                {
                  "name": "superchainConfigProxy",
                  "type": "address",
                  "internalType": "address"
                }
              ]
            },
            {
              "name": "implementationAddressConfig",
              "type": "tuple",
              "internalType": "struct SystemDictator.ImplementationAddressConfig",
              "components": [
                {
                  "name": "l2OutputOracleImpl",
                  "type": "address",
                  "internalType": "contract L2OutputOracle"
                },
                {
                  "name": "optimismPortalImpl",
                  "type": "address",
                  "internalType": "contract OptimismPortal"
                },
                {
                  "name": "l1CrossDomainMessengerImpl",
                  "type": "address",
                  "internalType": "contract L1CrossDomainMessenger"
                },
                {
                  "name": "l1StandardBridgeImpl",
                  "type": "address",
                  "internalType": "contract L1StandardBridge"
                },
                {
                  "name": "optimismMintableERC20FactoryImpl",
                  "type": "address",
                  "internalType": "contract OptimismMintableERC20Factory"
                },
                {
                  "name": "l1ERC721BridgeImpl",
                  "type": "address",
                  "internalType": "contract L1ERC721Bridge"
                },
                {
                  "name": "portalSenderImpl",
                  "type": "address",
                  "internalType": "contract PortalSender"
                },
                {
                  "name": "addressDeprecatorImpl",
                  "type": "address",
                  "internalType": "contract AddressDeprecator"
                },
                {
                  "name": "systemConfigImpl",
                  "type": "address",
                  "internalType": "contract SystemConfig"
                },
                {
                  "name": "protocolVersionsImpl",
                  "type": "address",
                  "internalType": "contract ProtocolVersions"
                },
                {
                  "name": "superchainConfigImpl",
                  "type": "address",
                  "internalType": "contract SuperchainConfig"
                }
              ]
            },
            {
              "name": "systemConfigConfig",
              "type": "tuple",
              "internalType": "struct SystemDictator.SystemConfigConfig",
              "components": [
                {
                  "name": "owner",
                  "type": "address",
                  "internalType": "address"
                },
                {
                  "name": "overhead",
                  "type": "uint256",
                  "internalType": "uint256"
                },
                {
                  "name": "scalar",
                  "type": "uint256",
                  "internalType": "uint256"
                },
                {
                  "name": "batcherHash",
                  "type": "bytes32",
                  "internalType": "bytes32"
                },
                {
                  "name": "gasLimit",
                  "type": "uint64",
                  "internalType": "uint64"
                },
                {
                  "name": "unsafeBlockSigner",
                  "type": "address",
                  "internalType": "address"
                },
                {
                  "name": "resourceConfig",
                  "type": "tuple",
                  "internalType": "struct ResourceMetering.ResourceConfig",
                  "components": [
                    {
                      "name": "maxResourceLimit",
                      "type": "uint32",
                      "internalType": "uint32"
                    },
                    {
                      "name": "elasticityMultiplier",
                      "type": "uint8",
                      "internalType": "uint8"
                    },
                    {
                      "name": "baseFeeMaxChangeDenominator",
                      "type": "uint8",
                      "internalType": "uint8"
                    },
                    {
                      "name": "minimumBaseFee",
                      "type": "uint32",
                      "internalType": "uint32"
                    },
                    {
                      "name": "systemTxMaxGas",
                      "type": "uint32",
                      "internalType": "uint32"
                    },
                    {
                      "name": "maximumBaseFee",
                      "type": "uint128",
                      "internalType": "uint128"
                    }
                  ]
                },
                {
                  "name": "opnodeStartBlock",
                  "type": "uint256",
                  "internalType": "uint256"
                },
                {
                  "name": "batchInbox",
                  "type": "address",
                  "internalType": "address"
                },
                {
                  "name": "systemConfigAddressConfig",
                  "type": "tuple",
                  "internalType": "struct SystemConfig.Addresses",
                  "components": [
                    {
                      "name": "l1CrossDomainMessenger",
                      "type": "address",
                      "internalType": "address"
                    },
                    {
                      "name": "l1ERC721Bridge",
                      "type": "address",
                      "internalType": "address"
                    },
                    {
                      "name": "l1StandardBridge",
                      "type": "address",
                      "internalType": "address"
                    },
                    {
                      "name": "disputeGameFactory",
                      "type": "address",
                      "internalType": "address"
                    },
                    {
                      "name": "optimismPortal",
                      "type": "address",
                      "internalType": "address"
                    },
                    {
                      "name": "optimismMintableERC20Factory",
                      "type": "address",
                      "internalType": "address"
                    },
                    {
                      "name": "gasPayingToken",
                      "type": "address",
                      "internalType": "address"
                    }
                  ]
                }
              ]
            },
            {
              "name": "protocolVersionConfig",
              "type": "tuple",
              "internalType": "struct SystemDictator.ProtocolVersionConfig",
              "components": [
                {
                  "name": "requiredProtocolVersion",
                  "type": "uint256",
                  "internalType": "ProtocolVersion"
                },
                {
                  "name": "recommendedProtocolVersion",
                  "type": "uint256",
                  "internalType": "ProtocolVersion"
                }
              ]
            }
          ]
        }
      ],
      "outputs": [],
      "stateMutability": "nonpayable"
    },
    {
      "type": "function",
      "name": "l2OutputOracleDynamicConfig",
      "inputs": [],
      "outputs": [
        {
          "name": "l2OutputOracleSubmissionInterval",
          "type": "uint256",
          "internalType": "uint256"
        },
        {
          "name": "l2BlockTime",
          "type": "uint256",
          "internalType": "uint256"
        },
        {
          "name": "l2OutputOracleStartingBlockNumber",
          "type": "uint256",
          "internalType": "uint256"
        },
        {
          "name": "l2OutputOracleStartingTimestamp",
          "type": "uint256",
          "internalType": "uint256"
        },
        {
          "name": "l2OutputOracleProposer",
          "type": "address",
          "internalType": "address"
        },
        {
          "name": "l2OutputOracleChallenger",
          "type": "address",
          "internalType": "address"
        },
        {
          "name": "finalizationPeriodSeconds",
          "type": "uint256",
          "internalType": "uint256"
        }
      ],
      "stateMutability": "view"
    },
    {
      "type": "function",
      "name": "oldL1CrossDomainMessenger",
      "inputs": [],
      "outputs": [
        {
          "name": "",
          "type": "address",
          "internalType": "address"
        }
      ],
      "stateMutability": "view"
    },
    {
      "type": "function",
      "name": "optimismPortalDynamicConfig",
      "inputs": [],
      "outputs": [
        {
          "name": "portalGuardian",
          "type": "address",
          "internalType": "address"
        }
      ],
      "stateMutability": "view"
    },
    {
      "type": "function",
      "name": "owner",
      "inputs": [],
      "outputs": [
        {
          "name": "",
          "type": "address",
          "internalType": "address"
        }
      ],
      "stateMutability": "view"
    },
    {
      "type": "function",
      "name": "phase1",
      "inputs": [],
      "outputs": [],
      "stateMutability": "nonpayable"
    },
    {
      "type": "function",
      "name": "phase2",
      "inputs": [],
      "outputs": [],
      "stateMutability": "nonpayable"
    },
    {
      "type": "function",
      "name": "renounceOwnership",
      "inputs": [],
      "outputs": [],
      "stateMutability": "nonpayable"
    },
    {
      "type": "function",
      "name": "step1",
      "inputs": [],
      "outputs": [],
      "stateMutability": "nonpayable"
    },
    {
      "type": "function",
      "name": "step2",
      "inputs": [],
      "outputs": [],
      "stateMutability": "nonpayable"
    },
    {
      "type": "function",
      "name": "step3",
      "inputs": [],
      "outputs": [],
      "stateMutability": "nonpayable"
    },
    {
      "type": "function",
      "name": "step4",
      "inputs": [],
      "outputs": [],
      "stateMutability": "nonpayable"
    },
    {
      "type": "function",
      "name": "step5",
      "inputs": [],
      "outputs": [],
      "stateMutability": "nonpayable"
    },
    {
      "type": "function",
      "name": "transferOwnership",
      "inputs": [
        {
          "name": "newOwner",
          "type": "address",
          "internalType": "address"
        }
      ],
      "outputs": [],
      "stateMutability": "nonpayable"
    },
    {
      "type": "function",
      "name": "updateDynamicConfig",
      "inputs": [
        {
          "name": "_l2OutputOracleDynamicConfig",
          "type": "tuple",
          "internalType": "struct SystemDictator.L2OutputOracleDynamicConfig",
          "components": [
            {
              "name": "l2OutputOracleSubmissionInterval",
              "type": "uint256",
              "internalType": "uint256"
            },
            {
              "name": "l2BlockTime",
              "type": "uint256",
              "internalType": "uint256"
            },
            {
              "name": "l2OutputOracleStartingBlockNumber",
              "type": "uint256",
              "internalType": "uint256"
            },
            {
              "name": "l2OutputOracleStartingTimestamp",
              "type": "uint256",
              "internalType": "uint256"
            },
            {
              "name": "l2OutputOracleProposer",
              "type": "address",
              "internalType": "address"
            },
            {
              "name": "l2OutputOracleChallenger",
              "type": "address",
              "internalType": "address"
            },
            {
              "name": "finalizationPeriodSeconds",
              "type": "uint256",
              "internalType": "uint256"
            }
          ]
        },
        {
          "name": "_optimismPortalDynamicConfig",
          "type": "tuple",
          "internalType": "struct SystemDictator.OptimismPortalDynamicConfig",
          "components": [
            {
              "name": "portalGuardian",
              "type": "address",
              "internalType": "address"
            }
          ]
        }
      ],
      "outputs": [],
      "stateMutability": "nonpayable"
    },
    {
      "type": "event",
      "name": "Initialized",
      "inputs": [
        {
          "name": "version",
          "type": "uint8",
          "indexed": false,
          "internalType": "uint8"
        }
      ],
      "anonymous": false
    },
    {
      "type": "event",
      "name": "OwnershipTransferred",
      "inputs": [
        {
          "name": "previousOwner",
          "type": "address",
          "indexed": true,
          "internalType": "address"
        },
        {
          "name": "newOwner",
          "type": "address",
          "indexed": true,
          "internalType": "address"
        }
      ],
      "anonymous": false
    }
  ],
  "transactionHash": "0xa71bdc7366fc3f1451a2e723538c669c1e094fd18aea8adc65b5c180e1a68705",
  "args": [],
  "numDeployments": 1,
  "bytecode": "0x60806040523480156200001157600080fd5b506000620000296200019360201b620047b41760201c565b604080516101208082018352600060a080840182815260c080860184905260e0808701859052610100808801869052928752875180870189528581526020818101879052818a0187905260608083018890526080838101899052838801899052838601899052838501899052838701899052828b01939093528a5161016081018c52888152808301899052808c01899052808201899052808401899052808801899052808601899052808501899052808701899052808a018990526101408082018a90528b8d01919091528b519081018c52888152808301899052808c018990528082018990528084018990528088018990528086018d9052600019818601529586018890528a519384018b52878452838201889052838b0188905283810188905283830188905295830187905292820186905295830152918501528451808601909552818552840181905290820192909252919250906200018b906200020a565b505062000c46565b6040805160c081018252600080825260208201819052918101829052606081018290526080810182905260a0810191909152506040805160c0810182526301312d008152600a6020820152600891810191909152633b9aca006060820152620f424060808201526001600160801b0360a082015290565b600054610100900460ff16158080156200022b5750600054600160ff909116105b806200025b5750620002483062000b1660201b620048341760201c565b1580156200025b575060005460ff166001145b620002c45760405162461bcd60e51b815260206004820152602e60248201527f496e697469616c697a61626c653a20636f6e747261637420697320616c72656160448201526d191e481a5b9a5d1a585b1a5e995960921b60648201526084015b60405180910390fd5b6000805460ff191660011790558015620002e8576000805461ff0019166101001790555b81606560008201518160000160008201518160000160006101000a8154816001600160a01b0302191690836001600160a01b0316021790555060208201518160010160006101000a8154816001600160a01b0302191690836001600160a01b0316021790555060408201518160020160006101000a8154816001600160a01b0302191690836001600160a01b0316021790555060608201518160030160006101000a8154816001600160a01b0302191690836001600160a01b03160217905550505060208201518160040160008201518160000160006101000a8154816001600160a01b0302191690836001600160a01b0316021790555060208201518160010160006101000a8154816001600160a01b0302191690836001600160a01b0316021790555060408201518160020160006101000a8154816001600160a01b0302191690836001600160a01b0316021790555060608201518160030160006101000a8154816001600160a01b0302191690836001600160a01b0316021790555060808201518160040160006101000a8154816001600160a01b0302191690836001600160a01b0316021790555060a08201518160050160006101000a8154816001600160a01b0302191690836001600160a01b0316021790555060c08201518160060160006101000a8154816001600160a01b0302191690836001600160a01b0316021790555060e08201518160070160006101000a8154816001600160a01b0302191690836001600160a01b031602179055506101008201518160080160006101000a8154816001600160a01b0302191690836001600160a01b031602179055505050604082015181600d0160008201518160000160006101000a8154816001600160a01b0302191690836001600160a01b0316021790555060208201518160010160006101000a8154816001600160a01b0302191690836001600160a01b0316021790555060408201518160020160006101000a8154816001600160a01b0302191690836001600160a01b0316021790555060608201518160030160006101000a8154816001600160a01b0302191690836001600160a01b0316021790555060808201518160040160006101000a8154816001600160a01b0302191690836001600160a01b0316021790555060a08201518160050160006101000a8154816001600160a01b0302191690836001600160a01b0316021790555060c08201518160060160006101000a8154816001600160a01b0302191690836001600160a01b0316021790555060e08201518160070160006101000a8154816001600160a01b0302191690836001600160a01b031602179055506101008201518160080160006101000a8154816001600160a01b0302191690836001600160a01b031602179055506101208201518160090160006101000a8154816001600160a01b0302191690836001600160a01b0316021790555061014082015181600a0160006101000a8154816001600160a01b0302191690836001600160a01b03160217905550505060608201518160180160008201518160000160006101000a8154816001600160a01b0302191690836001600160a01b0316021790555060208201518160010155604082015181600201556060820151816003015560808201518160040160006101000a8154816001600160401b0302191690836001600160401b0316021790555060a08201518160040160086101000a8154816001600160a01b0302191690836001600160a01b0316021790555060c08201518160050160008201518160000160006101000a81548163ffffffff021916908363ffffffff16021790555060208201518160000160046101000a81548160ff021916908360ff16021790555060408201518160000160056101000a81548160ff021916908360ff16021790555060608201518160000160066101000a81548163ffffffff021916908363ffffffff160217905550608082015181600001600a6101000a81548163ffffffff021916908363ffffffff16021790555060a082015181600001600e6101000a8154816001600160801b0302191690836001600160801b03160217905550505060e082015181600601556101008201518160070160006101000a8154816001600160a01b0302191690836001600160a01b031602179055506101208201518160080160008201518160000160006101000a8154816001600160a01b0302191690836001600160a01b0316021790555060208201518160010160006101000a8154816001600160a01b0302191690836001600160a01b0316021790555060408201518160020160006101000a8154816001600160a01b0302191690836001600160a01b0316021790555060608201518160030160006101000a8154816001600160a01b0302191690836001600160a01b0316021790555060808201518160040160006101000a8154816001600160a01b0302191690836001600160a01b0316021790555060a08201518160050160006101000a8154816001600160a01b0302191690836001600160a01b0316021790555060c08201518160060160006101000a8154816001600160a01b0302191690836001600160a01b0316021790555050505050608082015181602701600082015181600001556020820151816001015550509050506001609660006101000a81548160ff021916908360ff16021790555062000ab462000b2560201b60201c565b60675462000acb906001600160a01b031662000b8d565b801562000b12576000805461ff0019169055604051600181527f7f26b83ff96e1f2b6a682f133852f6798a09c465da95921460cefb38474024989060200160405180910390a15b5050565b6001600160a01b03163b151590565b600054610100900460ff1662000b815760405162461bcd60e51b815260206004820152602b602482015260008051602062006b5283398151915260448201526a6e697469616c697a696e6760a81b6064820152608401620002bb565b62000b8b62000bdf565b565b603380546001600160a01b038381166001600160a01b0319831681179093556040519116919082907f8be0079c531659141344cd1fd0a4f28419497f9722a3daafe3b4186f6b6457e090600090a35050565b600054610100900460ff1662000c3b5760405162461bcd60e51b815260206004820152602b602482015260008051602062006b5283398151915260448201526a6e697469616c697a696e6760a81b6064820152608401620002bb565b62000b8b3362000b8d565b615efc8062000c566000396000f3fe608060405234801561001057600080fd5b50600436106101985760003560e01c8063b3f05b97116100e3578063e10ad8631161008c578063f2fde38b11610066578063f2fde38b146110f7578063fb5d73761461110a578063fe6b1ddf1461111257600080fd5b8063e10ad863146110c9578063e502c962146110dc578063e7c56229146110ef57600080fd5b8063d4deb3b6116100bd578063d4deb3b614611099578063d7efbb30146110a1578063df4ec249146110c157600080fd5b8063b3f05b9714611056578063cf03c22d14611069578063d40a71fb1461109157600080fd5b8063715018a61161014557806389cb73431161011f57806389cb734314610ffd5780638da5cb5b1461100f5780638f4ed3331461104e57600080fd5b8063715018a61461028857806379502c55146102905780637d1d95a614610ff557600080fd5b80634fb4bcec116101765780634fb4bcec1461024f5780635bc34f71146102575780635ce6c3271461026457600080fd5b8063204c881c1461019d578063289c6af71461022b5780634bb278f314610245575b600080fd5b608e54608f546090546091546092546093546094546101d8969594939273ffffffffffffffffffffffffffffffffffffffff90811692169087565b60408051978852602088019690965294860193909352606085019190915273ffffffffffffffffffffffffffffffffffffffff90811660808501521660a083015260c082015260e0015b60405180910390f35b610233600381565b60405160ff9091168152602001610222565b61024d61111a565b005b61024d61137f565b6096546102339060ff1681565b609654610278906301000000900460ff1681565b6040519015158152602001610222565b61024d6129cd565b610fe46065806000016040518060800160405290816000820160009054906101000a900473ffffffffffffffffffffffffffffffffffffffff1673ffffffffffffffffffffffffffffffffffffffff1673ffffffffffffffffffffffffffffffffffffffff1681526020016001820160009054906101000a900473ffffffffffffffffffffffffffffffffffffffff1673ffffffffffffffffffffffffffffffffffffffff1673ffffffffffffffffffffffffffffffffffffffff1681526020016002820160009054906101000a900473ffffffffffffffffffffffffffffffffffffffff1673ffffffffffffffffffffffffffffffffffffffff1673ffffffffffffffffffffffffffffffffffffffff1681526020016003820160009054906101000a900473ffffffffffffffffffffffffffffffffffffffff1673ffffffffffffffffffffffffffffffffffffffff1673ffffffffffffffffffffffffffffffffffffffff16815250509080600401604051806101200160405290816000820160009054906101000a900473ffffffffffffffffffffffffffffffffffffffff1673ffffffffffffffffffffffffffffffffffffffff1673ffffffffffffffffffffffffffffffffffffffff1681526020016001820160009054906101000a900473ffffffffffffffffffffffffffffffffffffffff1673ffffffffffffffffffffffffffffffffffffffff1673ffffffffffffffffffffffffffffffffffffffff1681526020016002820160009054906101000a900473ffffffffffffffffffffffffffffffffffffffff1673ffffffffffffffffffffffffffffffffffffffff1673ffffffffffffffffffffffffffffffffffffffff1681526020016003820160009054906101000a900473ffffffffffffffffffffffffffffffffffffffff1673ffffffffffffffffffffffffffffffffffffffff1673ffffffffffffffffffffffffffffffffffffffff1681526020016004820160009054906101000a900473ffffffffffffffffffffffffffffffffffffffff1673ffffffffffffffffffffffffffffffffffffffff1673ffffffffffffffffffffffffffffffffffffffff1681526020016005820160009054906101000a900473ffffffffffffffffffffffffffffffffffffffff1673ffffffffffffffffffffffffffffffffffffffff1673ffffffffffffffffffffffffffffffffffffffff1681526020016006820160009054906101000a900473ffffffffffffffffffffffffffffffffffffffff1673ffffffffffffffffffffffffffffffffffffffff1673ffffffffffffffffffffffffffffffffffffffff1681526020016007820160009054906101000a900473ffffffffffffffffffffffffffffffffffffffff1673ffffffffffffffffffffffffffffffffffffffff1673ffffffffffffffffffffffffffffffffffffffff1681526020016008820160009054906101000a900473ffffffffffffffffffffffffffffffffffffffff1673ffffffffffffffffffffffffffffffffffffffff1673ffffffffffffffffffffffffffffffffffffffff16815250509080600d01604051806101600160405290816000820160009054906101000a900473ffffffffffffffffffffffffffffffffffffffff1673ffffffffffffffffffffffffffffffffffffffff1673ffffffffffffffffffffffffffffffffffffffff1681526020016001820160009054906101000a900473ffffffffffffffffffffffffffffffffffffffff1673ffffffffffffffffffffffffffffffffffffffff1673ffffffffffffffffffffffffffffffffffffffff1681526020016002820160009054906101000a900473ffffffffffffffffffffffffffffffffffffffff1673ffffffffffffffffffffffffffffffffffffffff1673ffffffffffffffffffffffffffffffffffffffff1681526020016003820160009054906101000a900473ffffffffffffffffffffffffffffffffffffffff1673ffffffffffffffffffffffffffffffffffffffff1673ffffffffffffffffffffffffffffffffffffffff1681526020016004820160009054906101000a900473ffffffffffffffffffffffffffffffffffffffff1673ffffffffffffffffffffffffffffffffffffffff1673ffffffffffffffffffffffffffffffffffffffff1681526020016005820160009054906101000a900473ffffffffffffffffffffffffffffffffffffffff1673ffffffffffffffffffffffffffffffffffffffff1673ffffffffffffffffffffffffffffffffffffffff1681526020016006820160009054906101000a900473ffffffffffffffffffffffffffffffffffffffff1673ffffffffffffffffffffffffffffffffffffffff1673ffffffffffffffffffffffffffffffffffffffff1681526020016007820160009054906101000a900473ffffffffffffffffffffffffffffffffffffffff1673ffffffffffffffffffffffffffffffffffffffff1673ffffffffffffffffffffffffffffffffffffffff1681526020016008820160009054906101000a900473ffffffffffffffffffffffffffffffffffffffff1673ffffffffffffffffffffffffffffffffffffffff1673ffffffffffffffffffffffffffffffffffffffff1681526020016009820160009054906101000a900473ffffffffffffffffffffffffffffffffffffffff1673ffffffffffffffffffffffffffffffffffffffff1673ffffffffffffffffffffffffffffffffffffffff168152602001600a820160009054906101000a900473ffffffffffffffffffffffffffffffffffffffff1673ffffffffffffffffffffffffffffffffffffffff1673ffffffffffffffffffffffffffffffffffffffff16815250509080601801604051806101400160405290816000820160009054906101000a900473ffffffffffffffffffffffffffffffffffffffff1673ffffffffffffffffffffffffffffffffffffffff1673ffffffffffffffffffffffffffffffffffffffff1681526020016001820154815260200160028201548152602001600382015481526020016004820160009054906101000a900467ffffffffffffffff1667ffffffffffffffff1667ffffffffffffffff1681526020016004820160089054906101000a900473ffffffffffffffffffffffffffffffffffffffff1673ffffffffffffffffffffffffffffffffffffffff1673ffffffffffffffffffffffffffffffffffffffff168152602001600582016040518060c00160405290816000820160009054906101000a900463ffffffff1663ffffffff1663ffffffff1681526020016000820160049054906101000a900460ff1660ff1660ff1681526020016000820160059054906101000a900460ff1660ff1660ff1681526020016000820160069054906101000a900463ffffffff1663ffffffff1663ffffffff16815260200160008201600a9054906101000a900463ffffffff1663ffffffff1663ffffffff16815260200160008201600e9054906101000a90046fffffffffffffffffffffffffffffffff166fffffffffffffffffffffffffffffffff166fffffffffffffffffffffffffffffffff16815250508152602001600682015481526020016007820160009054906101000a900473ffffffffffffffffffffffffffffffffffffffff1673ffffffffffffffffffffffffffffffffffffffff1673ffffffffffffffffffffffffffffffffffffffff168152602001600882016040518060e00160405290816000820160009054906101000a900473ffffffffffffffffffffffffffffffffffffffff1673ffffffffffffffffffffffffffffffffffffffff1673ffffffffffffffffffffffffffffffffffffffff1681526020016001820160009054906101000a900473ffffffffffffffffffffffffffffffffffffffff1673ffffffffffffffffffffffffffffffffffffffff1673ffffffffffffffffffffffffffffffffffffffff1681526020016002820160009054906101000a900473ffffffffffffffffffffffffffffffffffffffff1673ffffffffffffffffffffffffffffffffffffffff1673ffffffffffffffffffffffffffffffffffffffff1681526020016003820160009054906101000a900473ffffffffffffffffffffffffffffffffffffffff1673ffffffffffffffffffffffffffffffffffffffff1673ffffffffffffffffffffffffffffffffffffffff1681526020016004820160009054906101000a900473ffffffffffffffffffffffffffffffffffffffff1673ffffffffffffffffffffffffffffffffffffffff1673ffffffffffffffffffffffffffffffffffffffff1681526020016005820160009054906101000a900473ffffffffffffffffffffffffffffffffffffffff1673ffffffffffffffffffffffffffffffffffffffff1673ffffffffffffffffffffffffffffffffffffffff1681526020016006820160009054906101000a900473ffffffffffffffffffffffffffffffffffffffff1673ffffffffffffffffffffffffffffffffffffffff1673ffffffffffffffffffffffffffffffffffffffff168152505081525050908060270160405180604001604052908160008201548152602001600182015481525050905085565b604051610222959493929190614d9c565b610233600481565b60965461027890610100900460ff1681565b60335473ffffffffffffffffffffffffffffffffffffffff165b60405173ffffffffffffffffffffffffffffffffffffffff9091168152602001610222565b61024d6129e1565b6096546102789062010000900460ff1681565b60965461102990640100000000900473ffffffffffffffffffffffffffffffffffffffff1681565b61024d612d64565b61024d6132c3565b6095546110299073ffffffffffffffffffffffffffffffffffffffff1681565b61024d6132eb565b61024d6110d73660046151aa565b6135b1565b61024d6110ea3660046156b7565b61367a565b61024d614373565b61024d61110536600461578f565b61438b565b61024d614442565b61024d61470d565b611122614850565b6066546068546040517ff2fde38b00000000000000000000000000000000000000000000000000000000815273ffffffffffffffffffffffffffffffffffffffff918216600482015291169063f2fde38b90602401600060405180830381600087803b15801561119157600080fd5b505af11580156111a5573d6000803e3d6000fd5b5050609654600460ff9091161191506113509050576065546068546040517ff2fde38b00000000000000000000000000000000000000000000000000000000815273ffffffffffffffffffffffffffffffffffffffff918216600482015291169063f2fde38b90602401600060405180830381600087803b15801561122957600080fd5b505af115801561123d573d6000803e3d6000fd5b5050606c546068546040517f13af403500000000000000000000000000000000000000000000000000000000815273ffffffffffffffffffffffffffffffffffffffff9182166004820152911692506313af40359150602401600060405180830381600087803b1580156112b057600080fd5b505af11580156112c4573d6000803e3d6000fd5b5050606e546068546040517f8f28397000000000000000000000000000000000000000000000000000000000815273ffffffffffffffffffffffffffffffffffffffff918216600482015291169250638f2839709150602401600060405180830381600087803b15801561133757600080fd5b505af115801561134b573d6000803e3d6000fd5b505050505b609680547fffffffffffffffffffffffffffffffffffffffffffffffffffffffffff00ffff1662010000179055565b611387614850565b60965460059062010000900460ff1615611402576040517f08c379a000000000000000000000000000000000000000000000000000000000815260206004820152601160248201527f416c72656164792066696e616c697a656400000000000000000000000000000060448201526064015b60405180910390fd5b6096546301000000900460ff1615611476576040517f08c379a000000000000000000000000000000000000000000000000000000000815260206004820152600e60248201527f416c72656164792065786974656400000000000000000000000000000000000060448201526064016113f9565b60965460ff8281169116146114e7576040517f08c379a000000000000000000000000000000000000000000000000000000000815260206004820152600e60248201527f496e636f7272656374207374657000000000000000000000000000000000000060448201526064016113f9565b609654610100900460ff16611558576040517f08c379a000000000000000000000000000000000000000000000000000000000815260206004820152601560248201527f4443206973206e6f7420696e697469616c697a6564000000000000000000000060448201526064016113f9565b606654606954607254608e54608f54609054609154609254609354609454604051602481019790975260448701959095526064860193909352608485019190915273ffffffffffffffffffffffffffffffffffffffff90811660a485015290811660c484015260e483019190915293841693639623609d93811692169061010401604080517fffffffffffffffffffffffffffffffffffffffffffffffffffffffffffffffe08184030181529181526020820180517bffffffffffffffffffffffffffffffffffffffffffffffffffffffff167f1c89c97d00000000000000000000000000000000000000000000000000000000179052517fffffffff0000000000000000000000000000000000000000000000000000000060e086901b16815261168893929190600401615829565b600060405180830381600087803b1580156116a257600080fd5b505af11580156116b6573d6000803e3d6000fd5b5050606654606a54607354606954606f5460715460405173ffffffffffffffffffffffffffffffffffffffff93841660248201529183166044830152821660648201529381169550639623609d945091821692911690608401604080517fffffffffffffffffffffffffffffffffffffffffffffffffffffffffffffffe08184030181529181526020820180517bffffffffffffffffffffffffffffffffffffffffffffffffffffffff167fc0c53b8b00000000000000000000000000000000000000000000000000000000179052517fffffffff0000000000000000000000000000000000000000000000000000000060e086901b1681526117be93929190600401615829565b600060405180830381600087803b1580156117d857600080fd5b505af11580156117ec573d6000803e3d6000fd5b5050606654606b546074546040517f99a88ec400000000000000000000000000000000000000000000000000000000815273ffffffffffffffffffffffffffffffffffffffff92831660048201529082166024820152911692506399a88ec49150604401600060405180830381600087803b15801561186a57600080fd5b505af115801561187e573d6000803e3d6000fd5b5050606b54607154606a54606f546040517fc0c53b8b00000000000000000000000000000000000000000000000000000000815273ffffffffffffffffffffffffffffffffffffffff93841660048201529183166024830152821660448201529116925063c0c53b8b9150606401600060405180830381600087803b15801561190657600080fd5b505af1925050508015611917575060015b611a745761192361586b565b806308c379a0036119ea5750611937615887565b8061194257506119ec565b7f7a2a4e26842155ea933fe6eb6e3137eb5a296dcdf55721c552be7b4c3cc2375981604051602001611974919061592f565b60405160208183030381529060405280519060200120148160405160200161199c919061594b565b604051602081830303815290604052906119e3576040517f08c379a00000000000000000000000000000000000000000000000000000000081526004016113f99190615990565b5050611a74565b505b6040517f08c379a000000000000000000000000000000000000000000000000000000000815260206004820152602260248201527f52657665727465643a204572726f7220696e697469616c697a696e67204c315860448201527f444d00000000000000000000000000000000000000000000000000000000000060648201526084016113f9565b606654606c546078546040805160048082526024820183526020820180517bffffffffffffffffffffffffffffffffffffffffffffffffffffffff167fed88c68e0000000000000000000000000000000000000000000000000000000017905291517f9623609d00000000000000000000000000000000000000000000000000000000815273ffffffffffffffffffffffffffffffffffffffff95861695639623609d95611b2a95908216949116929101615829565b600060405180830381600087803b158015611b4457600080fd5b505af1158015611b58573d6000803e3d6000fd5b5050606654606c546075546040517f99a88ec400000000000000000000000000000000000000000000000000000000815273ffffffffffffffffffffffffffffffffffffffff92831660048201529082166024820152911692506399a88ec49150604401600060405180830381600087803b158015611bd657600080fd5b505af1158015611bea573d6000803e3d6000fd5b5050606654606d546076546040517f99a88ec400000000000000000000000000000000000000000000000000000000815273ffffffffffffffffffffffffffffffffffffffff92831660048201529082166024820152911692506399a88ec49150604401600060405180830381600087803b158015611c6857600080fd5b505af1158015611c7c573d6000803e3d6000fd5b5050606654606e546077546040517f99a88ec400000000000000000000000000000000000000000000000000000000815273ffffffffffffffffffffffffffffffffffffffff92831660048201529082166024820152911692506399a88ec49150604401600060405180830381600087803b158015611cfa57600080fd5b505af1158015611d0e573d6000803e3d6000fd5b5050606654607054607b546040517f99a88ec400000000000000000000000000000000000000000000000000000000815273ffffffffffffffffffffffffffffffffffffffff92831660048201529082166024820152911692506399a88ec49150604401600060405180830381600087803b158015611d8c57600080fd5b505af1158015611da0573d6000803e3d6000fd5b5050606654607154607c546040517f99a88ec400000000000000000000000000000000000000000000000000000000815273ffffffffffffffffffffffffffffffffffffffff92831660048201529082166024820152911692506399a88ec49150604401600060405180830381600087803b158015611e1e57600080fd5b505af1158015611e32573d6000803e3d6000fd5b5050606c54606b54607154606f546040517fc0c53b8b00000000000000000000000000000000000000000000000000000000815273ffffffffffffffffffffffffffffffffffffffff93841660048201529183166024830152821660448201529116925063c0c53b8b9150606401600060405180830381600087803b158015611eba57600080fd5b505af1925050508015611ecb575060015b61202857611ed761586b565b806308c379a003611f9e5750611eeb615887565b80611ef65750611fa0565b7f7a2a4e26842155ea933fe6eb6e3137eb5a296dcdf55721c552be7b4c3cc2375981604051602001611f28919061592f565b604051602081830303815290604052805190602001201481604051602001611f5091906159a3565b60405160208183030381529060405290611f97576040517f08c379a00000000000000000000000000000000000000000000000000000000081526004016113f99190615990565b5050612028565b505b6040517f08c379a000000000000000000000000000000000000000000000000000000000815260206004820152602160248201527f52657665727465643a204572726f7220696e697469616c697a696e67204c315360448201527f420000000000000000000000000000000000000000000000000000000000000060648201526084016113f9565b606c546071546040517fe23754da00000000000000000000000000000000000000000000000000000000815273ffffffffffffffffffffffffffffffffffffffff918216600482015291169063e23754da90602401600060405180830381600087803b15801561209757600080fd5b505af19250505080156120a8575060015b612205576120b461586b565b806308c379a00361217b57506120c8615887565b806120d3575061217d565b7f4fbaa7e98e32928bd420bc39465f06e05abac62baa90bf4053a4ef877dfdd90181604051602001612105919061592f565b60405160208183030381529060405280519060200120148160405160200161212d91906159e8565b60405160208183030381529060405290612174576040517f08c379a00000000000000000000000000000000000000000000000000000000081526004016113f99190615990565b5050612205565b505b6040517f08c379a000000000000000000000000000000000000000000000000000000000815260206004820152602d60248201527f52657665727465643a204572726f722073657474696e6720537570657263686160448201527f696e436f6e666967204c3153420000000000000000000000000000000000000060648201526084016113f9565b606e54606b546071546040517f485cc95500000000000000000000000000000000000000000000000000000000815273ffffffffffffffffffffffffffffffffffffffff9283166004820152908216602482015291169063485cc95590604401600060405180830381600087803b15801561227f57600080fd5b505af1925050508015612290575060015b6123ed5761229c61586b565b806308c379a00361236357506122b0615887565b806122bb5750612365565b7f7a2a4e26842155ea933fe6eb6e3137eb5a296dcdf55721c552be7b4c3cc23759816040516020016122ed919061592f565b6040516020818303038152906040528051906020012014816040516020016123159190615a53565b6040516020818303038152906040529061235c576040517f08c379a00000000000000000000000000000000000000000000000000000000081526004016113f99190615990565b50506123ed565b505b6040517f08c379a000000000000000000000000000000000000000000000000000000000815260206004820152602b60248201527f52657665727465643a204572726f7220696e697469616c697a696e67204c314560448201527f524337323142726964676500000000000000000000000000000000000000000060648201526084016113f9565b606d54606c546040517fc4d66de800000000000000000000000000000000000000000000000000000000815273ffffffffffffffffffffffffffffffffffffffff918216600482015291169063c4d66de890602401600060405180830381600087803b15801561245c57600080fd5b505af192505050801561246d575060015b6125ca5761247961586b565b806308c379a003612540575061248d615887565b806124985750612542565b7f7a2a4e26842155ea933fe6eb6e3137eb5a296dcdf55721c552be7b4c3cc23759816040516020016124ca919061592f565b6040516020818303038152906040528051906020012014816040516020016124f29190615abe565b60405160208183030381529060405290612539576040517f08c379a00000000000000000000000000000000000000000000000000000000081526004016113f99190615990565b50506125ca565b505b6040517f08c379a000000000000000000000000000000000000000000000000000000000815260206004820152602b60248201527f52657665727465643a204572726f7220696e697469616c697a696e67204c314560448201527f52433230466163746f727900000000000000000000000000000000000000000060648201526084016113f9565b607054606654608c54608d546040517f7a1ac61e00000000000000000000000000000000000000000000000000000000815273ffffffffffffffffffffffffffffffffffffffff938416600482015260248101929092526044820152911690637a1ac61e90606401600060405180830381600087803b15801561264c57600080fd5b505af192505050801561265d575060015b6127ba5761266961586b565b806308c379a003612730575061267d615887565b806126885750612732565b7f7a2a4e26842155ea933fe6eb6e3137eb5a296dcdf55721c552be7b4c3cc23759816040516020016126ba919061592f565b6040516020818303038152906040528051906020012014816040516020016126e29190615b1c565b60405160208183030381529060405290612729576040517f08c379a00000000000000000000000000000000000000000000000000000000081526004016113f99190615990565b50506127ba565b505b6040517f08c379a000000000000000000000000000000000000000000000000000000000815260206004820152602d60248201527f52657665727465643a204572726f7220696e697469616c697a696e672050726f60448201527f746f636f6c56657273696f6e730000000000000000000000000000000000000060648201526084016113f9565b6071546095546040517f400ada7500000000000000000000000000000000000000000000000000000000815273ffffffffffffffffffffffffffffffffffffffff91821660048201526000602482015291169063400ada7590604401600060405180830381600087803b15801561283057600080fd5b505af1925050508015612841575060015b61299e5761284d61586b565b806308c379a0036129145750612861615887565b8061286c5750612916565b7f7a2a4e26842155ea933fe6eb6e3137eb5a296dcdf55721c552be7b4c3cc237598160405160200161289e919061592f565b6040516020818303038152906040528051906020012014816040516020016128c69190615b7a565b6040516020818303038152906040529061290d576040517f08c379a00000000000000000000000000000000000000000000000000000000081526004016113f99190615990565b505061299e565b505b6040517f08c379a000000000000000000000000000000000000000000000000000000000815260206004820152602d60248201527f52657665727465643a204572726f7220696e697469616c697a696e672053757060448201527f6572636861696e436f6e6669670000000000000000000000000000000000000060648201526084016113f9565b6096805460ff169060006129b183615bd8565b91906101000a81548160ff021916908360ff1602179055505050565b6129d5614850565b6129df60006148d1565b565b6129e9614850565b60965460029062010000900460ff1615612a5f576040517f08c379a000000000000000000000000000000000000000000000000000000000815260206004820152601160248201527f416c72656164792066696e616c697a656400000000000000000000000000000060448201526064016113f9565b6096546301000000900460ff1615612ad3576040517f08c379a000000000000000000000000000000000000000000000000000000000815260206004820152600e60248201527f416c72656164792065786974656400000000000000000000000000000000000060448201526064016113f9565b60965460ff828116911614612b44576040517f08c379a000000000000000000000000000000000000000000000000000000000815260206004820152600e60248201527f496e636f7272656374207374657000000000000000000000000000000000000060448201526064016113f9565b6065546040517fbf40fac100000000000000000000000000000000000000000000000000000000815273ffffffffffffffffffffffffffffffffffffffff9091169063bf40fac190612b9890600401615c1e565b602060405180830381865afa158015612bb5573d6000803e3d6000fd5b505050506040513d601f19601f82011682018060405250810190612bd99190615c61565b609680547fffffffffffffffff0000000000000000000000000000000000000000ffffffff1664010000000073ffffffffffffffffffffffffffffffffffffffff938416021790556065546040517f9b2ea4bd000000000000000000000000000000000000000000000000000000008152911690639b2ea4bd90612c6290600090600401615c7e565b600060405180830381600087803b158015612c7c57600080fd5b505af1158015612c90573d6000803e3d6000fd5b5050606554604080517f9b2ea4bd0000000000000000000000000000000000000000000000000000000081526004810191909152601160448201527f44544c5f534855544f46465f424c4f434b000000000000000000000000000000606482015273ffffffffffffffffffffffffffffffffffffffff43811660248301529091169250639b2ea4bd91506084015b600060405180830381600087803b158015612d3857600080fd5b505af1158015612d4c573d6000803e3d6000fd5b50506096805460ff169250905060006129b183615bd8565b612d6c614850565b60965460019062010000900460ff1615612de2576040517f08c379a000000000000000000000000000000000000000000000000000000000815260206004820152601160248201527f416c72656164792066696e616c697a656400000000000000000000000000000060448201526064016113f9565b6096546301000000900460ff1615612e56576040517f08c379a000000000000000000000000000000000000000000000000000000000815260206004820152600e60248201527f416c72656164792065786974656400000000000000000000000000000000000060448201526064016113f9565b60965460ff828116911614612ec7576040517f08c379a000000000000000000000000000000000000000000000000000000000815260206004820152600e60248201527f496e636f7272656374207374657000000000000000000000000000000000000060448201526064016113f9565b6066546065546040517f0652b57a00000000000000000000000000000000000000000000000000000000815273ffffffffffffffffffffffffffffffffffffffff9182166004820152911690630652b57a90602401600060405180830381600087803b158015612f3657600080fd5b505af1158015612f4a573d6000803e3d6000fd5b5050606654606b546040517f8d52d4a000000000000000000000000000000000000000000000000000000000815273ffffffffffffffffffffffffffffffffffffffff9283169450638d52d4a09350612fac9290911690600290600401615cdf565b600060405180830381600087803b158015612fc657600080fd5b505af1158015612fda573d6000803e3d6000fd5b5050606654606b546040517f860f7cda00000000000000000000000000000000000000000000000000000000815273ffffffffffffffffffffffffffffffffffffffff928316945063860f7cda93506130399290911690600401615d40565b600060405180830381600087803b15801561305357600080fd5b505af1158015613067573d6000803e3d6000fd5b5050606654606c546040517f8d52d4a000000000000000000000000000000000000000000000000000000000815273ffffffffffffffffffffffffffffffffffffffff9283169450638d52d4a093506130c99290911690600190600401615cdf565b600060405180830381600087803b1580156130e357600080fd5b505af11580156130f7573d6000803e3d6000fd5b5050606654606f54607a54607d54607e54607f5460805460815473ffffffffffffffffffffffffffffffffffffffff9788169950639623609d985095871696948516959385169492939192909167ffffffffffffffff81169168010000000000000000909104166131e16040805160c081018252600080825260208201819052918101829052606081018290526080810182905260a0810191909152506040805160c0810182526301312d008152600a6020820152600891810191909152633b9aca006060820152620f424060808201526fffffffffffffffffffffffffffffffff60a082015290565b608454604051613214989796959493929173ffffffffffffffffffffffffffffffffffffffff1690608590602401615d99565b604080517fffffffffffffffffffffffffffffffffffffffffffffffffffffffffffffffe08184030181529181526020820180517bffffffffffffffffffffffffffffffffffffffffffffffffffffffff167f4c1e843d00000000000000000000000000000000000000000000000000000000179052517fffffffff0000000000000000000000000000000000000000000000000000000060e086901b168152612d1e93929190600401615829565b6132cb614850565b6132d36132eb565b6132db614442565b6132e361137f565b6129df61111a565b6132f3614850565b60965460039062010000900460ff1615613369576040517f08c379a000000000000000000000000000000000000000000000000000000000815260206004820152601160248201527f416c72656164792066696e616c697a656400000000000000000000000000000060448201526064016113f9565b6096546301000000900460ff16156133dd576040517f08c379a000000000000000000000000000000000000000000000000000000000815260206004820152600e60248201527f416c72656164792065786974656400000000000000000000000000000000000060448201526064016113f9565b60965460ff82811691161461344e576040517f08c379a000000000000000000000000000000000000000000000000000000000815260206004820152600e60248201527f496e636f7272656374207374657000000000000000000000000000000000000060448201526064016113f9565b60795460408051600481526024810182526020810180517bffffffffffffffffffffffffffffffffffffffffffffffffffffffff167fe873233c00000000000000000000000000000000000000000000000000000000179052905160009273ffffffffffffffffffffffffffffffffffffffff16916134cc9161592f565b600060405180830381855af49150503d8060008114613507576040519150601f19603f3d011682016040523d82523d6000602084013e61350c565b606091505b505090508061359d576040517f08c379a000000000000000000000000000000000000000000000000000000000815260206004820152602560248201527f52657665727465643a204572726f72206465707265636174696e67206164647260448201527f657373657300000000000000000000000000000000000000000000000000000060648201526084016113f9565b506096805460ff169060006129b183615bd8565b6135b9614850565b8151608e556020820151608f55604082015160905560608201516091556080820151609280547fffffffffffffffffffffffff000000000000000000000000000000000000000090811673ffffffffffffffffffffffffffffffffffffffff9384161790915560a084015160938054831691841691909117905560c0909301516094559051609580549093169116179055609680546101007fffffffffffffffffffffffffffffffffffffffffffffffffffffffffffff00ff909116179055565b600054610100900460ff161580801561369a5750600054600160ff909116105b806136b45750303b1580156136b4575060005460ff166001145b613740576040517f08c379a000000000000000000000000000000000000000000000000000000000815260206004820152602e60248201527f496e697469616c697a61626c653a20636f6e747261637420697320616c72656160448201527f647920696e697469616c697a656400000000000000000000000000000000000060648201526084016113f9565b600080547fffffffffffffffffffffffffffffffffffffffffffffffffffffffffffffff00166001179055801561379e57600080547fffffffffffffffffffffffffffffffffffffffffffffffffffffffffffff00ff166101001790555b81606560008201518160000160008201518160000160006101000a81548173ffffffffffffffffffffffffffffffffffffffff021916908373ffffffffffffffffffffffffffffffffffffffff16021790555060208201518160010160006101000a81548173ffffffffffffffffffffffffffffffffffffffff021916908373ffffffffffffffffffffffffffffffffffffffff16021790555060408201518160020160006101000a81548173ffffffffffffffffffffffffffffffffffffffff021916908373ffffffffffffffffffffffffffffffffffffffff16021790555060608201518160030160006101000a81548173ffffffffffffffffffffffffffffffffffffffff021916908373ffffffffffffffffffffffffffffffffffffffff160217905550505060208201518160040160008201518160000160006101000a81548173ffffffffffffffffffffffffffffffffffffffff021916908373ffffffffffffffffffffffffffffffffffffffff16021790555060208201518160010160006101000a81548173ffffffffffffffffffffffffffffffffffffffff021916908373ffffffffffffffffffffffffffffffffffffffff16021790555060408201518160020160006101000a81548173ffffffffffffffffffffffffffffffffffffffff021916908373ffffffffffffffffffffffffffffffffffffffff16021790555060608201518160030160006101000a81548173ffffffffffffffffffffffffffffffffffffffff021916908373ffffffffffffffffffffffffffffffffffffffff16021790555060808201518160040160006101000a81548173ffffffffffffffffffffffffffffffffffffffff021916908373ffffffffffffffffffffffffffffffffffffffff16021790555060a08201518160050160006101000a81548173ffffffffffffffffffffffffffffffffffffffff021916908373ffffffffffffffffffffffffffffffffffffffff16021790555060c08201518160060160006101000a81548173ffffffffffffffffffffffffffffffffffffffff021916908373ffffffffffffffffffffffffffffffffffffffff16021790555060e08201518160070160006101000a81548173ffffffffffffffffffffffffffffffffffffffff021916908373ffffffffffffffffffffffffffffffffffffffff1602179055506101008201518160080160006101000a81548173ffffffffffffffffffffffffffffffffffffffff021916908373ffffffffffffffffffffffffffffffffffffffff1602179055505050604082015181600d0160008201518160000160006101000a81548173ffffffffffffffffffffffffffffffffffffffff021916908373ffffffffffffffffffffffffffffffffffffffff16021790555060208201518160010160006101000a81548173ffffffffffffffffffffffffffffffffffffffff021916908373ffffffffffffffffffffffffffffffffffffffff16021790555060408201518160020160006101000a81548173ffffffffffffffffffffffffffffffffffffffff021916908373ffffffffffffffffffffffffffffffffffffffff16021790555060608201518160030160006101000a81548173ffffffffffffffffffffffffffffffffffffffff021916908373ffffffffffffffffffffffffffffffffffffffff16021790555060808201518160040160006101000a81548173ffffffffffffffffffffffffffffffffffffffff021916908373ffffffffffffffffffffffffffffffffffffffff16021790555060a08201518160050160006101000a81548173ffffffffffffffffffffffffffffffffffffffff021916908373ffffffffffffffffffffffffffffffffffffffff16021790555060c08201518160060160006101000a81548173ffffffffffffffffffffffffffffffffffffffff021916908373ffffffffffffffffffffffffffffffffffffffff16021790555060e08201518160070160006101000a81548173ffffffffffffffffffffffffffffffffffffffff021916908373ffffffffffffffffffffffffffffffffffffffff1602179055506101008201518160080160006101000a81548173ffffffffffffffffffffffffffffffffffffffff021916908373ffffffffffffffffffffffffffffffffffffffff1602179055506101208201518160090160006101000a81548173ffffffffffffffffffffffffffffffffffffffff021916908373ffffffffffffffffffffffffffffffffffffffff16021790555061014082015181600a0160006101000a81548173ffffffffffffffffffffffffffffffffffffffff021916908373ffffffffffffffffffffffffffffffffffffffff160217905550505060608201518160180160008201518160000160006101000a81548173ffffffffffffffffffffffffffffffffffffffff021916908373ffffffffffffffffffffffffffffffffffffffff16021790555060208201518160010155604082015181600201556060820151816003015560808201518160040160006101000a81548167ffffffffffffffff021916908367ffffffffffffffff16021790555060a08201518160040160086101000a81548173ffffffffffffffffffffffffffffffffffffffff021916908373ffffffffffffffffffffffffffffffffffffffff16021790555060c08201518160050160008201518160000160006101000a81548163ffffffff021916908363ffffffff16021790555060208201518160000160046101000a81548160ff021916908360ff16021790555060408201518160000160056101000a81548160ff021916908360ff16021790555060608201518160000160066101000a81548163ffffffff021916908363ffffffff160217905550608082015181600001600a6101000a81548163ffffffff021916908363ffffffff16021790555060a082015181600001600e6101000a8154816fffffffffffffffffffffffffffffffff02191690836fffffffffffffffffffffffffffffffff160217905550505060e082015181600601556101008201518160070160006101000a81548173ffffffffffffffffffffffffffffffffffffffff021916908373ffffffffffffffffffffffffffffffffffffffff1602179055506101208201518160080160008201518160000160006101000a81548173ffffffffffffffffffffffffffffffffffffffff021916908373ffffffffffffffffffffffffffffffffffffffff16021790555060208201518160010160006101000a81548173ffffffffffffffffffffffffffffffffffffffff021916908373ffffffffffffffffffffffffffffffffffffffff16021790555060408201518160020160006101000a81548173ffffffffffffffffffffffffffffffffffffffff021916908373ffffffffffffffffffffffffffffffffffffffff16021790555060608201518160030160006101000a81548173ffffffffffffffffffffffffffffffffffffffff021916908373ffffffffffffffffffffffffffffffffffffffff16021790555060808201518160040160006101000a81548173ffffffffffffffffffffffffffffffffffffffff021916908373ffffffffffffffffffffffffffffffffffffffff16021790555060a08201518160050160006101000a81548173ffffffffffffffffffffffffffffffffffffffff021916908373ffffffffffffffffffffffffffffffffffffffff16021790555060c08201518160060160006101000a81548173ffffffffffffffffffffffffffffffffffffffff021916908373ffffffffffffffffffffffffffffffffffffffff16021790555050505050608082015181602701600082015181600001556020820151816001015550509050506001609660006101000a81548160ff021916908360ff1602179055506142ea614948565b60675461430c9073ffffffffffffffffffffffffffffffffffffffff166148d1565b801561436f57600080547fffffffffffffffffffffffffffffffffffffffffffffffffffffffffffff00ff169055604051600181527f7f26b83ff96e1f2b6a682f133852f6798a09c465da95921460cefb38474024989060200160405180910390a15b5050565b61437b614850565b614383612d64565b6129df6129e1565b614393614850565b73ffffffffffffffffffffffffffffffffffffffff8116614436576040517f08c379a000000000000000000000000000000000000000000000000000000000815260206004820152602660248201527f4f776e61626c653a206e6577206f776e657220697320746865207a65726f206160448201527f646472657373000000000000000000000000000000000000000000000000000060648201526084016113f9565b61443f816148d1565b50565b61444a614850565b60965460049062010000900460ff16156144c0576040517f08c379a000000000000000000000000000000000000000000000000000000000815260206004820152601160248201527f416c72656164792066696e616c697a656400000000000000000000000000000060448201526064016113f9565b6096546301000000900460ff1615614534576040517f08c379a000000000000000000000000000000000000000000000000000000000815260206004820152600e60248201527f416c72656164792065786974656400000000000000000000000000000000000060448201526064016113f9565b60965460ff8281169116146145a5576040517f08c379a000000000000000000000000000000000000000000000000000000000815260206004820152600e60248201527f496e636f7272656374207374657000000000000000000000000000000000000060448201526064016113f9565b6065546066546040517ff2fde38b00000000000000000000000000000000000000000000000000000000815273ffffffffffffffffffffffffffffffffffffffff918216600482015291169063f2fde38b90602401600060405180830381600087803b15801561461457600080fd5b505af1158015614628573d6000803e3d6000fd5b5050606c546066546040517f13af403500000000000000000000000000000000000000000000000000000000815273ffffffffffffffffffffffffffffffffffffffff9182166004820152911692506313af40359150602401600060405180830381600087803b15801561469b57600080fd5b505af11580156146af573d6000803e3d6000fd5b5050606e546066546040517f8f28397000000000000000000000000000000000000000000000000000000000815273ffffffffffffffffffffffffffffffffffffffff918216600482015291169250638f2839709150602401612d1e565b614715614850565b60965460ff16600314614784576040517f08c379a000000000000000000000000000000000000000000000000000000000815260206004820152601860248201527f4578697431206f6e6c79206265666f726520737465702033000000000000000060448201526064016113f9565b609680547fffffffffffffffffffffffffffffffffffffffffffffffffffffffff00ffffff166301000000179055565b6040805160c081018252600080825260208201819052918101829052606081018290526080810182905260a0810191909152506040805160c0810182526301312d008152600a6020820152600891810191909152633b9aca006060820152620f424060808201526fffffffffffffffffffffffffffffffff60a082015290565b73ffffffffffffffffffffffffffffffffffffffff163b151590565b60335473ffffffffffffffffffffffffffffffffffffffff1633146129df576040517f08c379a000000000000000000000000000000000000000000000000000000000815260206004820181905260248201527f4f776e61626c653a2063616c6c6572206973206e6f7420746865206f776e657260448201526064016113f9565b6033805473ffffffffffffffffffffffffffffffffffffffff8381167fffffffffffffffffffffffff0000000000000000000000000000000000000000831681179093556040519116919082907f8be0079c531659141344cd1fd0a4f28419497f9722a3daafe3b4186f6b6457e090600090a35050565b600054610100900460ff166149df576040517f08c379a000000000000000000000000000000000000000000000000000000000815260206004820152602b60248201527f496e697469616c697a61626c653a20636f6e7472616374206973206e6f74206960448201527f6e697469616c697a696e6700000000000000000000000000000000000000000060648201526084016113f9565b6129df600054610100900460ff16614a79576040517f08c379a000000000000000000000000000000000000000000000000000000000815260206004820152602b60248201527f496e697469616c697a61626c653a20636f6e7472616374206973206e6f74206960448201527f6e697469616c697a696e6700000000000000000000000000000000000000000060648201526084016113f9565b6129df336148d1565b805173ffffffffffffffffffffffffffffffffffffffff1682526020810151614ac3602084018273ffffffffffffffffffffffffffffffffffffffff169052565b506040810151614aeb604084018273ffffffffffffffffffffffffffffffffffffffff169052565b506060810151614b13606084018273ffffffffffffffffffffffffffffffffffffffff169052565b506080810151614b3b608084018273ffffffffffffffffffffffffffffffffffffffff169052565b5060a0810151614b6360a084018273ffffffffffffffffffffffffffffffffffffffff169052565b5060c0810151614b8b60c084018273ffffffffffffffffffffffffffffffffffffffff169052565b5060e0810151614bb360e084018273ffffffffffffffffffffffffffffffffffffffff169052565b506101008181015173ffffffffffffffffffffffffffffffffffffffff81168483015250506101208181015173ffffffffffffffffffffffffffffffffffffffff81168483015250506101408181015173ffffffffffffffffffffffffffffffffffffffff8116848301525b50505050565b805173ffffffffffffffffffffffffffffffffffffffff1682526020810151602083015260408101516040830152606081015160608301526080810151614c78608084018267ffffffffffffffff169052565b5060a0810151614ca060a084018273ffffffffffffffffffffffffffffffffffffffff169052565b5060c0810151614d0c60c084018263ffffffff80825116835260ff602083015116602084015260ff6040830151166040840152806060830151166060840152806080830151166080840152506fffffffffffffffffffffffffffffffff60a08201511660a08301525050565b5060e081015161018083015261010081015173ffffffffffffffffffffffffffffffffffffffff9081166101a084015261012090910151805182166101c0840152602081015182166101e084015260408101518216610200840152606081015182166102208401526080810151821661024084015260a0810151821661026084015260c001511661028090910152565b855173ffffffffffffffffffffffffffffffffffffffff90811682526020808801518216818401526040808901518316818501526060808a015184169085015287518316608085015290870151821660a084015286015190811660c08301526105e082019050606086015173ffffffffffffffffffffffffffffffffffffffff811660e0840152506080860151610100614e4d8185018373ffffffffffffffffffffffffffffffffffffffff169052565b60a088015173ffffffffffffffffffffffffffffffffffffffff90811661012086015260c0890151811661014086015260e08901518116610160860152908801511661018084015250614ea46101a0830186614a82565b614eb2610300830185614c25565b82516105a083015260208301516105c08301529695505050505050565b60e0810181811067ffffffffffffffff82111715614f16577f4e487b7100000000000000000000000000000000000000000000000000000000600052604160045260246000fd5b60405250565b60a0810181811067ffffffffffffffff82111715614f16577f4e487b7100000000000000000000000000000000000000000000000000000000600052604160045260246000fd5b6080810181811067ffffffffffffffff82111715614f16577f4e487b7100000000000000000000000000000000000000000000000000000000600052604160045260246000fd5b7fffffffffffffffffffffffffffffffffffffffffffffffffffffffffffffffe0601f830116810181811067ffffffffffffffff82111715615015577f4e487b7100000000000000000000000000000000000000000000000000000000600052604160045260246000fd5b6040525050565b604051610120810167ffffffffffffffff81118282101715615067577f4e487b7100000000000000000000000000000000000000000000000000000000600052604160045260246000fd5b60405290565b604051610160810167ffffffffffffffff81118282101715615067577f4e487b7100000000000000000000000000000000000000000000000000000000600052604160045260246000fd5b604051610140810167ffffffffffffffff81118282101715615067577f4e487b7100000000000000000000000000000000000000000000000000000000600052604160045260246000fd5b73ffffffffffffffffffffffffffffffffffffffff8116811461443f57600080fd5b803561513081615103565b919050565b60006020828403121561514757600080fd5b6040516020810181811067ffffffffffffffff82111715615191577f4e487b7100000000000000000000000000000000000000000000000000000000600052604160045260246000fd5b60405290508082356151a281615103565b905292915050565b6000808284036101008112156151bf57600080fd5b60e08112156151cd57600080fd5b506040516151da81614ecf565b83358152602084013560208201526040840135604082015260608401356060820152608084013561520a81615103565b608082015260a084013561521d81615103565b60a082015260c08481013590820152915061523b8460e08501615135565b90509250929050565b6000610120828403121561525757600080fd5b61525f61501c565b905061526a82615125565b815261527860208301615125565b602082015261528960408301615125565b604082015261529a60608301615125565b60608201526152ab60808301615125565b60808201526152bc60a08301615125565b60a08201526152cd60c08301615125565b60c08201526152de60e08301615125565b60e08201526101006152f1818401615125565b9082015292915050565b6000610160828403121561530e57600080fd5b61531661506d565b905061532182615125565b815261532f60208301615125565b602082015261534060408301615125565b604082015261535160608301615125565b606082015261536260808301615125565b608082015261537360a08301615125565b60a082015261538460c08301615125565b60c082015261539560e08301615125565b60e08201526101006153a8818401615125565b908201526101206153ba838201615125565b908201526101406152f1838201615125565b803567ffffffffffffffff8116811461513057600080fd5b803563ffffffff8116811461513057600080fd5b803560ff8116811461513057600080fd5b600060c0828403121561541b57600080fd5b60405160c0810181811067ffffffffffffffff82111715615465577f4e487b7100000000000000000000000000000000000000000000000000000000600052604160045260246000fd5b604052905080615474836153e4565b8152615482602084016153f8565b6020820152615493604084016153f8565b60408201526154a4606084016153e4565b60608201526154b5608084016153e4565b608082015260a08301356fffffffffffffffffffffffffffffffff811681146154dd57600080fd5b60a0919091015292915050565b600060e082840312156154fc57600080fd5b60405161550881614ecf565b809150823561551681615103565b8152602083013561552681615103565b6020820152604083013561553981615103565b6040820152606083013561554c81615103565b6060820152608083013561555f81615103565b608082015260a083013561557281615103565b60a082015261558360c08401615125565b60c08201525092915050565b60006102a082840312156155a257600080fd5b6155aa6150b8565b90506155b582615125565b81526020820135602082015260408201356040820152606082013560608201526155e1608083016153cc565b60808201526155f260a08301615125565b60a08201526156048360c08401615409565b60c082015261018082013560e08201526156216101a08301615125565b610100820152615635836101c084016154ea565b61012082015292915050565b60006040828403121561565357600080fd5b6040516040810181811067ffffffffffffffff8211171561569d577f4e487b7100000000000000000000000000000000000000000000000000000000600052604160045260246000fd5b604052823581526020928301359281019290925250919050565b60008183036105e08112156156cb57600080fd5b6040516156d781614f1c565b60808212156156e557600080fd5b60405191506156f382614f63565b83356156fe81615103565b8252602084013561570e81615103565b6020830152604084013561572181615103565b6040830152606084013561573481615103565b60608301528181526157498560808601615244565b602082015261575c856101a086016152fb565b604082015261576f85610300860161558f565b6060820152615782856105a08601615641565b6080820152949350505050565b6000602082840312156157a157600080fd5b81356157ac81615103565b9392505050565b60005b838110156157ce5781810151838201526020016157b6565b83811115614c1f5750506000910152565b600081518084526157f78160208601602086016157b3565b601f017fffffffffffffffffffffffffffffffffffffffffffffffffffffffffffffffe0169290920160200192915050565b600073ffffffffffffffffffffffffffffffffffffffff80861683528085166020840152506060604083015261586260608301846157df565b95945050505050565b600060033d11156158845760046000803e5060005160e01c5b90565b600060443d10156158955790565b6040517ffffffffffffffffffffffffffffffffffffffffffffffffffffffffffffffffc803d016004833e81513d67ffffffffffffffff81602484011181841117156158e357505050505090565b82850191508151818111156158fb5750505050505090565b843d87010160208285010111156159155750505050505090565b61592460208286010187614faa565b509095945050505050565b600082516159418184602087016157b3565b9190910192915050565b7f4572726f7220696e697469616c697a696e67204c3158444d3a2000000000000081526000825161598381601a8501602087016157b3565b91909101601a0192915050565b6020815260006157ac60208301846157df565b7f4572726f7220696e697469616c697a696e67204c3153423a20000000000000008152600082516159db8160198501602087016157b3565b9190910160190192915050565b7f4572726f722073657474696e67205375706572636861696e436f6e666967204c81527f3153423a20000000000000000000000000000000000000000000000000000000602082015260008251615a468160258501602087016157b3565b9190910160250192915050565b7f4572726f7220696e697469616c697a696e67204c31455243373231427269646781527f653a200000000000000000000000000000000000000000000000000000000000602082015260008251615ab18160238501602087016157b3565b9190910160230192915050565b7f4572726f7220696e697469616c697a696e67204c314552433230466163746f7281527f793a200000000000000000000000000000000000000000000000000000000000602082015260008251615ab18160238501602087016157b3565b7f4572726f7220696e697469616c697a696e672050726f746f636f6c566572736981527f6f6e733a20000000000000000000000000000000000000000000000000000000602082015260008251615a468160258501602087016157b3565b7f4572726f7220696e697469616c697a696e67205375706572636861696e436f6e81527f6669673a20000000000000000000000000000000000000000000000000000000602082015260008251615a468160258501602087016157b3565b600060ff821660ff8103615c15577f4e487b7100000000000000000000000000000000000000000000000000000000600052601160045260246000fd5b60010192915050565b602081526000615c5b60208301601a81527f4f564d5f4c3143726f7373446f6d61696e4d657373656e676572000000000000602082015260400190565b92915050565b600060208284031215615c7357600080fd5b81516157ac81615103565b604081526000615cbb60408301601a81527f4f564d5f4c3143726f7373446f6d61696e4d657373656e676572000000000000602082015260400190565b905073ffffffffffffffffffffffffffffffffffffffff8316602083015292915050565b73ffffffffffffffffffffffffffffffffffffffff831681526040810160038310615d33577f4e487b7100000000000000000000000000000000000000000000000000000000600052602160045260246000fd5b8260208301529392505050565b73ffffffffffffffffffffffffffffffffffffffff821681526040602082015260006157ac60408301601a81527f4f564d5f4c3143726f7373446f6d61696e4d657373656e676572000000000000602082015260400190565b60006102808201905073ffffffffffffffffffffffffffffffffffffffff808c1683528a602084015289604084015288606084015267ffffffffffffffff8816608084015280871660a0840152615e4c60c084018763ffffffff80825116835260ff602083015116602084015260ff6040830151166040840152806060830151166060840152806080830151166080840152506fffffffffffffffffffffffffffffffff60a08201511660a08301525050565b808516610180840152615e7b6101a084018286541673ffffffffffffffffffffffffffffffffffffffff169052565b50600183015473ffffffffffffffffffffffffffffffffffffffff9081166101c0840152600284015481166101e0840152600384015481166102008401526004840154811661022084015260058401548116610240840152600690930154909216610260909101529897505050505050505056fea164736f6c634300080f000a496e697469616c697a61626c653a20636f6e7472616374206973206e6f742069"
}