{
  "address": "0x6e12e0a0acf0A015c2c723eCB596dF777Caf3805",
  "abi": [
    {
      "type": "constructor",
      "inputs": [],
      "stateMutability": "nonpayable"
    },
    {
      "type": "function",
      "name": "MESSAGE_VERSION",
      "inputs": [],
      "outputs": [
        {
          "name": "",
          "type": "uint16",
          "internalType": "uint16"
        }
      ],
      "stateMutability": "view"
    },
    {
      "type": "function",
      "name": "MIN_GAS_CALLDATA_OVERHEAD",
      "inputs": [],
      "outputs": [
        {
          "name": "",
          "type": "uint64",
          "internalType": "uint64"
        }
      ],
      "stateMutability": "view"
    },
    {
      "type": "function",
      "name": "MIN_GAS_DYNAMIC_OVERHEAD_DENOMINATOR",
      "inputs": [],
      "outputs": [
        {
          "name": "",
          "type": "uint64",
          "internalType": "uint64"
        }
      ],
      "stateMutability": "view"
    },
    {
      "type": "function",
      "name": "MIN_GAS_DYNAMIC_OVERHEAD_NUMERATOR",
      "inputs": [],
      "outputs": [
        {
          "name": "",
          "type": "uint64",
          "internalType": "uint64"
        }
      ],
      "stateMutability": "view"
    },
    {
      "type": "function",
      "name": "OTHER_MESSENGER",
      "inputs": [],
      "outputs": [
        {
          "name": "",
          "type": "address",
          "internalType": "contract CrossDomainMessenger"
        }
      ],
      "stateMutability": "view"
    },
    {
      "type": "function",
      "name": "PORTAL",
      "inputs": [],
      "outputs": [
        {
          "name": "",
          "type": "address",
          "internalType": "contract OptimismPortal"
        }
      ],
      "stateMutability": "view"
    },
    {
      "type": "function",
      "name": "RELAY_CALL_OVERHEAD",
      "inputs": [],
      "outputs": [
        {
          "name": "",
          "type": "uint64",
          "internalType": "uint64"
        }
      ],
      "stateMutability": "view"
    },
    {
      "type": "function",
      "name": "RELAY_CONSTANT_OVERHEAD",
      "inputs": [],
      "outputs": [
        {
          "name": "",
          "type": "uint64",
          "internalType": "uint64"
        }
      ],
      "stateMutability": "view"
    },
    {
      "type": "function",
      "name": "RELAY_GAS_CHECK_BUFFER",
      "inputs": [],
      "outputs": [
        {
          "name": "",
          "type": "uint64",
          "internalType": "uint64"
        }
      ],
      "stateMutability": "view"
    },
    {
      "type": "function",
      "name": "RELAY_RESERVED_GAS",
      "inputs": [],
      "outputs": [
        {
          "name": "",
          "type": "uint64",
          "internalType": "uint64"
        }
      ],
      "stateMutability": "view"
    },
    {
      "type": "function",
      "name": "baseGas",
      "inputs": [
        {
          "name": "_message",
          "type": "bytes",
          "internalType": "bytes"
        },
        {
          "name": "_minGasLimit",
          "type": "uint32",
          "internalType": "uint32"
        }
      ],
      "outputs": [
        {
          "name": "",
          "type": "uint64",
          "internalType": "uint64"
        }
      ],
      "stateMutability": "pure"
    },
    {
      "type": "function",
      "name": "failedMessages",
      "inputs": [
        {
          "name": "",
          "type": "bytes32",
          "internalType": "bytes32"
        }
      ],
      "outputs": [
        {
          "name": "",
          "type": "bool",
          "internalType": "bool"
        }
      ],
      "stateMutability": "view"
    },
    {
      "type": "function",
      "name": "initialize",
      "inputs": [
        {
          "name": "_superchainConfig",
          "type": "address",
          "internalType": "contract SuperchainConfig"
        },
        {
          "name": "_portal",
          "type": "address",
          "internalType": "contract OptimismPortal"
        },
        {
          "name": "_systemConfig",
          "type": "address",
          "internalType": "contract SystemConfig"
        }
      ],
      "outputs": [],
      "stateMutability": "nonpayable"
    },
    {
      "type": "function",
      "name": "messageNonce",
      "inputs": [],
      "outputs": [
        {
          "name": "",
          "type": "uint256",
          "internalType": "uint256"
        }
      ],
      "stateMutability": "view"
    },
    {
      "type": "function",
      "name": "otherMessenger",
      "inputs": [],
      "outputs": [
        {
          "name": "",
          "type": "address",
          "internalType": "contract CrossDomainMessenger"
        }
      ],
      "stateMutability": "view"
    },
    {
      "type": "function",
      "name": "paused",
      "inputs": [],
      "outputs": [
        {
          "name": "",
          "type": "bool",
          "internalType": "bool"
        }
      ],
      "stateMutability": "view"
    },
    {
      "type": "function",
      "name": "portal",
      "inputs": [],
      "outputs": [
        {
          "name": "",
          "type": "address",
          "internalType": "contract OptimismPortal"
        }
      ],
      "stateMutability": "view"
    },
    {
      "type": "function",
      "name": "relayMessage",
      "inputs": [
        {
          "name": "_nonce",
          "type": "uint256",
          "internalType": "uint256"
        },
        {
          "name": "_sender",
          "type": "address",
          "internalType": "address"
        },
        {
          "name": "_target",
          "type": "address",
          "internalType": "address"
        },
        {
          "name": "_value",
          "type": "uint256",
          "internalType": "uint256"
        },
        {
          "name": "_minGasLimit",
          "type": "uint256",
          "internalType": "uint256"
        },
        {
          "name": "_message",
          "type": "bytes",
          "internalType": "bytes"
        }
      ],
      "outputs": [],
      "stateMutability": "payable"
    },
    {
      "type": "function",
      "name": "sendMessage",
      "inputs": [
        {
          "name": "_target",
          "type": "address",
          "internalType": "address"
        },
        {
          "name": "_message",
          "type": "bytes",
          "internalType": "bytes"
        },
        {
          "name": "_minGasLimit",
          "type": "uint32",
          "internalType": "uint32"
        }
      ],
      "outputs": [],
      "stateMutability": "payable"
    },
    {
      "type": "function",
      "name": "sendMintETHERC20Message",
      "inputs": [
        {
          "name": "_l1Token",
          "type": "address",
          "internalType": "address"
        },
        {
          "name": "_l2Token",
          "type": "address",
          "internalType": "address"
        },
        {
          "name": "_sender",
          "type": "address",
          "internalType": "address"
        },
        {
          "name": "_to",
          "type": "address",
          "internalType": "address"
        },
        {
          "name": "_value",
          "type": "uint256",
          "internalType": "uint256"
        },
        {
          "name": "_gasLimit",
          "type": "uint64",
          "internalType": "uint64"
        }
      ],
      "outputs": [
        {
          "name": "",
          "type": "bytes",
          "internalType": "bytes"
        }
      ],
      "stateMutability": "nonpayable"
    },
    {
      "type": "function",
      "name": "successfulMessages",
      "inputs": [
        {
          "name": "",
          "type": "bytes32",
          "internalType": "bytes32"
        }
      ],
      "outputs": [
        {
          "name": "",
          "type": "bool",
          "internalType": "bool"
        }
      ],
      "stateMutability": "view"
    },
    {
      "type": "function",
      "name": "superchainConfig",
      "inputs": [],
      "outputs": [
        {
          "name": "",
          "type": "address",
          "internalType": "contract SuperchainConfig"
        }
      ],
      "stateMutability": "view"
    },
    {
      "type": "function",
      "name": "systemConfig",
      "inputs": [],
      "outputs": [
        {
          "name": "",
          "type": "address",
          "internalType": "contract SystemConfig"
        }
      ],
      "stateMutability": "view"
    },
    {
      "type": "function",
      "name": "version",
      "inputs": [],
      "outputs": [
        {
          "name": "",
          "type": "string",
          "internalType": "string"
        }
      ],
      "stateMutability": "view"
    },
    {
      "type": "function",
      "name": "xDomainMessageSender",
      "inputs": [],
      "outputs": [
        {
          "name": "",
          "type": "address",
          "internalType": "address"
        }
      ],
      "stateMutability": "view"
    },
    {
      "type": "event",
      "name": "FailedRelayedMessage",
      "inputs": [
        {
          "name": "msgHash",
          "type": "bytes32",
          "indexed": true,
          "internalType": "bytes32"
        }
      ],
      "anonymous": false
    },
    {
      "type": "event",
      "name": "Initialized",
      "inputs": [
        {
          "name": "version",
          "type": "uint8",
          "indexed": false,
          "internalType": "uint8"
        }
      ],
      "anonymous": false
    },
    {
      "type": "event",
      "name": "RelayedMessage",
      "inputs": [
        {
          "name": "msgHash",
          "type": "bytes32",
          "indexed": true,
          "internalType": "bytes32"
        }
      ],
      "anonymous": false
    },
    {
      "type": "event",
      "name": "SentMessage",
      "inputs": [
        {
          "name": "target",
          "type": "address",
          "indexed": true,
          "internalType": "address"
        },
        {
          "name": "sender",
          "type": "address",
          "indexed": false,
          "internalType": "address"
        },
        {
          "name": "message",
          "type": "bytes",
          "indexed": false,
          "internalType": "bytes"
        },
        {
          "name": "messageNonce",
          "type": "uint256",
          "indexed": false,
          "internalType": "uint256"
        },
        {
          "name": "gasLimit",
          "type": "uint256",
          "indexed": false,
          "internalType": "uint256"
        }
      ],
      "anonymous": false
    },
    {
      "type": "event",
      "name": "SentMessageExtension1",
      "inputs": [
        {
          "name": "sender",
          "type": "address",
          "indexed": true,
          "internalType": "address"
        },
        {
          "name": "value",
          "type": "uint256",
          "indexed": false,
          "internalType": "uint256"
        }
      ],
      "anonymous": false
    }
  ],
  "transactionHash": "0x6a855dac45b51680ddb1c65e247492bf9eafbff69a5c5c8cbb58b694fd462d2c",
  "args": [],
  "numDeployments": 1,
  "bytecode": "0x60806040523480156200001157600080fd5b50620000206000808062000026565b6200023f565b600054600390600160a81b900460ff1615801562000052575060005460ff808316600160a01b90920416105b620000bb5760405162461bcd60e51b815260206004820152602e60248201527f496e697469616c697a61626c653a20636f6e747261637420697320616c72656160448201526d191e481a5b9a5d1a585b1a5e995960921b60648201526084015b60405180910390fd5b6000805460ff60a81b1960ff8416600160a01b021661ffff60a01b1990911617600160a81b17905560fb80546001600160a01b038087166001600160a01b03199283161790925560fc805486841690831617905560fd8054928516929091169190911790556200013f73420000000000000000000000000000000000000762000188565b6000805460ff60a81b1916905560405160ff821681527f7f26b83ff96e1f2b6a682f133852f6798a09c465da95921460cefb38474024989060200160405180910390a150505050565b600054600160a81b900460ff16620001f75760405162461bcd60e51b815260206004820152602b60248201527f496e697469616c697a61626c653a20636f6e7472616374206973206e6f74206960448201526a6e697469616c697a696e6760a81b6064820152608401620000b2565b60cc546001600160a01b03166200021d5760cc80546001600160a01b03191661dead1790555b60cf80546001600160a01b0319166001600160a01b0392909216919091179055565b6128dc806200024f6000396000f3fe6080604052600436106101965760003560e01c80636425666b116100e1578063a4f957ff1161008a578063c0c53b8b11610064578063c0c53b8b146104a6578063d764ad0b146104c6578063db505d80146104d9578063ecc704281461050657600080fd5b8063a4f957ff14610436578063b1b1b20914610456578063b28ade251461048657600080fd5b80638cbeeef2116100bb5780638cbeeef2146102db5780639fce812c146103db578063a4e7f8bd1461040657600080fd5b80636425666b146103825780636e296e45146103af57806383a74074146103c457600080fd5b80633dbb202b1161014357806354fd4d501161011d57806354fd4d50146102f15780635644cfdf146103475780635c975abb1461035d57600080fd5b80633dbb202b1461029e5780633f827a5a146102b35780634c1d6a69146102db57600080fd5b80632828d7e8116101745780632828d7e81461022f57806333d7e2bd1461024457806335e80ab31461027157600080fd5b8063028f85f71461019b5780630c568498146101ce5780630ff754ea146101e3575b600080fd5b3480156101a757600080fd5b506101b0601081565b60405167ffffffffffffffff90911681526020015b60405180910390f35b3480156101da57600080fd5b506101b0603f81565b3480156101ef57600080fd5b5060fc5473ffffffffffffffffffffffffffffffffffffffff165b60405173ffffffffffffffffffffffffffffffffffffffff90911681526020016101c5565b34801561023b57600080fd5b506101b0604081565b34801561025057600080fd5b5060fd5461020a9073ffffffffffffffffffffffffffffffffffffffff1681565b34801561027d57600080fd5b5060fb5461020a9073ffffffffffffffffffffffffffffffffffffffff1681565b6102b16102ac36600461208d565b61056b565b005b3480156102bf57600080fd5b506102c8600181565b60405161ffff90911681526020016101c5565b3480156102e757600080fd5b506101b0619c4081565b3480156102fd57600080fd5b5061033a6040518060400160405280600581526020017f322e342e3000000000000000000000000000000000000000000000000000000081525081565b6040516101c5919061216e565b34801561035357600080fd5b506101b061138881565b34801561036957600080fd5b5061037261089e565b60405190151581526020016101c5565b34801561038e57600080fd5b5060fc5461020a9073ffffffffffffffffffffffffffffffffffffffff1681565b3480156103bb57600080fd5b5061020a610937565b3480156103d057600080fd5b506101b062030d4081565b3480156103e757600080fd5b5060cf5473ffffffffffffffffffffffffffffffffffffffff1661020a565b34801561041257600080fd5b50610372610421366004612181565b60ce6020526000908152604090205460ff1681565b34801561044257600080fd5b5061033a61045136600461219a565b610a1e565b34801561046257600080fd5b50610372610471366004612181565b60cb6020526000908152604090205460ff1681565b34801561049257600080fd5b506101b06104a136600461224f565b610ebf565b3480156104b257600080fd5b506102b16104c136600461232f565b610f2f565b6102b16104d436600461237a565b61116c565b3480156104e557600080fd5b5060cf5461020a9073ffffffffffffffffffffffffffffffffffffffff1681565b34801561051257600080fd5b5061055d60cd547dffffffffffffffffffffffffffffffffffffffffffffffffffffffffffff167e010000000000000000000000000000000000000000000000000000000000001790565b6040519081526020016101c5565b610573611a81565b1561060b57341561060b576040517f08c379a000000000000000000000000000000000000000000000000000000000815260206004820152603d60248201527f43726f7373446f6d61696e4d657373656e6765723a2063616e6e6f742073656e60448201527f642076616c7565207769746820637573746f6d2067617320746f6b656e00000060648201526084015b60405180910390fd5b60cf54604080516020601f86018190048102820181019092528481526107739273ffffffffffffffffffffffffffffffffffffffff169161066991908790879081908401838280828437600092019190915250879250610ebf915050565b347fd764ad0b000000000000000000000000000000000000000000000000000000006106d560cd547dffffffffffffffffffffffffffffffffffffffffffffffffffffffffffff167e010000000000000000000000000000000000000000000000000000000000001790565b338a34898c8c6040516024016106f19796959493929190612449565b604080517fffffffffffffffffffffffffffffffffffffffffffffffffffffffffffffffe08184030181529190526020810180517bffffffffffffffffffffffffffffffffffffffffffffffffffffffff167fffffffff0000000000000000000000000000000000000000000000000000000090931692909217909152611ac0565b8373ffffffffffffffffffffffffffffffffffffffff167fcb0f7ffd78f9aee47a248fae8db181db6eee833039123e026dcbff529522e52a3385856107f860cd547dffffffffffffffffffffffffffffffffffffffffffffffffffffffffffff167e010000000000000000000000000000000000000000000000000000000000001790565b8660405161080a9594939291906124a8565b60405180910390a260405134815233907f8ebb2ec2465bdb2a06a66fc37a0963af8a2a6a1479d81d56fdb8cbb98096d5469060200160405180910390a2505060cd80547dffffffffffffffffffffffffffffffffffffffffffffffffffffffffffff808216600101167fffff0000000000000000000000000000000000000000000000000000000000009091161790555050565b60fb54604080517f5c975abb000000000000000000000000000000000000000000000000000000008152905160009273ffffffffffffffffffffffffffffffffffffffff1691635c975abb9160048083019260209291908290030181865afa15801561090e573d6000803e3d6000fd5b505050506040513d601f19601f8201168201806040525081019061093291906124f6565b905090565b60cc5460009073ffffffffffffffffffffffffffffffffffffffff167fffffffffffffffffffffffffffffffffffffffffffffffffffffffffffff215301610a01576040517f08c379a000000000000000000000000000000000000000000000000000000000815260206004820152603560248201527f43726f7373446f6d61696e4d657373656e6765723a2078446f6d61696e4d657360448201527f7361676553656e646572206973206e6f742073657400000000000000000000006064820152608401610602565b5060cc5473ffffffffffffffffffffffffffffffffffffffff1690565b60fd54604080517f0a49cb03000000000000000000000000000000000000000000000000000000008152905160609273ffffffffffffffffffffffffffffffffffffffff1691630a49cb039160048083019260209291908290030181865afa158015610a8e573d6000803e3d6000fd5b505050506040513d601f19601f82011682018060405250810190610ab29190612518565b73ffffffffffffffffffffffffffffffffffffffff163373ffffffffffffffffffffffffffffffffffffffff1614610b6c576040517f08c379a000000000000000000000000000000000000000000000000000000000815260206004820152603960248201527f4c3143726f7373446f6d61696e4d657373656e6765723a2073656e646572206d60448201527f75737420626520746865204f7074696d69736d506f7274616c000000000000006064820152608401610602565b604080516000808252602082019092527f0166a07a0000000000000000000000000000000000000000000000000000000090610bb59089908b908a908a908a9060448101612535565b604080517fffffffffffffffffffffffffffffffffffffffffffffffffffffffffffffffe08184030181529190526020810180517bffffffffffffffffffffffffffffffffffffffffffffffffffffffff167fffffffff0000000000000000000000000000000000000000000000000000000090931692909217909152905060007fd764ad0b00000000000000000000000000000000000000000000000000000000610ca160cd547dffffffffffffffffffffffffffffffffffffffffffffffffffffffffffff167e010000000000000000000000000000000000000000000000000000000000001790565b60fd60009054906101000a900473ffffffffffffffffffffffffffffffffffffffff1673ffffffffffffffffffffffffffffffffffffffff1663078f29cf6040518163ffffffff1660e01b8152600401602060405180830381865afa158015610d0e573d6000803e3d6000fd5b505050506040513d601f19601f82011682018060405250810190610d329190612518565b73420000000000000000000000000000000000001060008887604051602401610d6096959493929190612590565b604080517fffffffffffffffffffffffffffffffffffffffffffffffffffffffffffffffe08184030181529190526020810180517bffffffffffffffffffffffffffffffffffffffffffffffffffffffff167fffffffff0000000000000000000000000000000000000000000000000000000090931692909217909152905060008080610ded8588610ebf565b600085604051602001610e049594939291906125e5565b604080517fffffffffffffffffffffffffffffffffffffffffffffffffffffffffffffffe081840301815291905260cd54909150610e63907dffffffffffffffffffffffffffffffffffffffffffffffffffffffffffff166001612679565b60cd80547fffff000000000000000000000000000000000000000000000000000000000000167dffffffffffffffffffffffffffffffffffffffffffffffffffffffffffff929092169190911790559998505050505050505050565b6000611388619c4080603f610edb604063ffffffff88166126bb565b610ee591906126eb565b60108751610ef391906126bb565b610f009062030d40612739565b610f0a9190612739565b610f149190612739565b610f1e9190612739565b610f289190612739565b9392505050565b6000546003907501000000000000000000000000000000000000000000900460ff16158015610f7d575060005460ff8083167401000000000000000000000000000000000000000090920416105b611009576040517f08c379a000000000000000000000000000000000000000000000000000000000815260206004820152602e60248201527f496e697469616c697a61626c653a20636f6e747261637420697320616c72656160448201527f647920696e697469616c697a65640000000000000000000000000000000000006064820152608401610602565b600080547fffffffffffffffffffff00ffffffffffffffffffffffffffffffffffffffffff60ff84167401000000000000000000000000000000000000000002167fffffffffffffffffffff0000ffffffffffffffffffffffffffffffffffffffff90911617750100000000000000000000000000000000000000000017905560fb805473ffffffffffffffffffffffffffffffffffffffff8087167fffffffffffffffffffffffff00000000000000000000000000000000000000009283161790925560fc805486841690831617905560fd805492851692909116919091179055611108734200000000000000000000000000000000000007611b59565b600080547fffffffffffffffffffff00ffffffffffffffffffffffffffffffffffffffffff16905560405160ff821681527f7f26b83ff96e1f2b6a682f133852f6798a09c465da95921460cefb38474024989060200160405180910390a150505050565b61117461089e565b156111db576040517f08c379a000000000000000000000000000000000000000000000000000000000815260206004820152601c60248201527f43726f7373446f6d61696e4d657373656e6765723a20706175736564000000006044820152606401610602565b60f087901c60028110611296576040517f08c379a000000000000000000000000000000000000000000000000000000000815260206004820152604d60248201527f43726f7373446f6d61696e4d657373656e6765723a206f6e6c7920766572736960448201527f6f6e2030206f722031206d657373616765732061726520737570706f7274656460648201527f20617420746869732074696d6500000000000000000000000000000000000000608482015260a401610602565b8061ffff1660000361138b5760006112e7878986868080601f0160208091040260200160405190810160405280939291908181526020018383808284376000920191909152508f9250611c95915050565b600081815260cb602052604090205490915060ff1615611389576040517f08c379a000000000000000000000000000000000000000000000000000000000815260206004820152603760248201527f43726f7373446f6d61696e4d657373656e6765723a206c65676163792077697460448201527f6864726177616c20616c72656164792072656c617965640000000000000000006064820152608401610602565b505b60006113d1898989898989898080601f016020809104026020016040519081016040528093929190818152602001838380828437600092019190915250611cb492505050565b90506113db611cd7565b15611413578534146113ef576113ef61275c565b600081815260ce602052604090205460ff161561140e5761140e61275c565b611565565b34156114c7576040517f08c379a000000000000000000000000000000000000000000000000000000000815260206004820152605060248201527f43726f7373446f6d61696e4d657373656e6765723a2076616c7565206d75737460448201527f206265207a65726f20756e6c657373206d6573736167652069732066726f6d2060648201527f612073797374656d206164647265737300000000000000000000000000000000608482015260a401610602565b600081815260ce602052604090205460ff16611565576040517f08c379a000000000000000000000000000000000000000000000000000000000815260206004820152603060248201527f43726f7373446f6d61696e4d657373656e6765723a206d65737361676520636160448201527f6e6e6f74206265207265706c61796564000000000000000000000000000000006064820152608401610602565b61156e87611db3565b15611621576040517f08c379a000000000000000000000000000000000000000000000000000000000815260206004820152604360248201527f43726f7373446f6d61696e4d657373656e6765723a2063616e6e6f742073656e60448201527f64206d65737361676520746f20626c6f636b65642073797374656d206164647260648201527f6573730000000000000000000000000000000000000000000000000000000000608482015260a401610602565b600081815260cb602052604090205460ff16156116c0576040517f08c379a000000000000000000000000000000000000000000000000000000000815260206004820152603660248201527f43726f7373446f6d61696e4d657373656e6765723a206d65737361676520686160448201527f7320616c7265616479206265656e2072656c61796564000000000000000000006064820152608401610602565b6116e1856116d2611388619c40612739565b67ffffffffffffffff16611df9565b1580611707575060cc5473ffffffffffffffffffffffffffffffffffffffff1661dead14155b1561182057600081815260ce602052604080822080547fffffffffffffffffffffffffffffffffffffffffffffffffffffffffffffff001660011790555182917f99d0e048484baa1b1540b1367cb128acd7ab2946d1ed91ec10e3c85e4bf51b8f91a27fffffffffffffffffffffffffffffffffffffffffffffffffffffffffffffffff3201611819576040517f08c379a000000000000000000000000000000000000000000000000000000000815260206004820152602d60248201527f43726f7373446f6d61696e4d657373656e6765723a206661696c656420746f2060448201527f72656c6179206d657373616765000000000000000000000000000000000000006064820152608401610602565b5050611a78565b60cc80547fffffffffffffffffffffffff00000000000000000000000000000000000000001673ffffffffffffffffffffffffffffffffffffffff8a1617905560006118b188619c405a611874919061278b565b8988888080601f016020809104026020016040519081016040528093929190818152602001838380828437600092019190915250611e1792505050565b60cc80547fffffffffffffffffffffffff00000000000000000000000000000000000000001661dead1790559050801561196757600082815260cb602052604090205460ff16156119045761190461275c565b600082815260cb602052604080822080547fffffffffffffffffffffffffffffffffffffffffffffffffffffffffffffff001660011790555183917f4641df4a962071e12719d8c8c8e5ac7fc4d97b927346a3d7a335b1f7517e133c91a2611a74565b600082815260ce602052604080822080547fffffffffffffffffffffffffffffffffffffffffffffffffffffffffffffff001660011790555183917f99d0e048484baa1b1540b1367cb128acd7ab2946d1ed91ec10e3c85e4bf51b8f91a27fffffffffffffffffffffffffffffffffffffffffffffffffffffffffffffffff3201611a74576040517f08c379a000000000000000000000000000000000000000000000000000000000815260206004820152602d60248201527f43726f7373446f6d61696e4d657373656e6765723a206661696c656420746f2060448201527f72656c6179206d657373616765000000000000000000000000000000000000006064820152608401610602565b5050505b50505050505050565b600080611a8c611e31565b5073ffffffffffffffffffffffffffffffffffffffff1673eeeeeeeeeeeeeeeeeeeeeeeeeeeeeeeeeeeeeeee141592915050565b60fc546040517fe9e05c4200000000000000000000000000000000000000000000000000000000815273ffffffffffffffffffffffffffffffffffffffff9091169063e9e05c42908490611b219088908390899060009089906004016127a2565b6000604051808303818588803b158015611b3a57600080fd5b505af1158015611b4e573d6000803e3d6000fd5b505050505050505050565b6000547501000000000000000000000000000000000000000000900460ff16611c04576040517f08c379a000000000000000000000000000000000000000000000000000000000815260206004820152602b60248201527f496e697469616c697a61626c653a20636f6e7472616374206973206e6f74206960448201527f6e697469616c697a696e670000000000000000000000000000000000000000006064820152608401610602565b60cc5473ffffffffffffffffffffffffffffffffffffffff16611c4e5760cc80547fffffffffffffffffffffffff00000000000000000000000000000000000000001661dead1790555b60cf80547fffffffffffffffffffffffff00000000000000000000000000000000000000001673ffffffffffffffffffffffffffffffffffffffff92909216919091179055565b6000611ca385858585611ece565b805190602001209050949350505050565b6000611cc4878787878787611f67565b8051906020012090509695505050505050565b60fc5460009073ffffffffffffffffffffffffffffffffffffffff1633148015610932575060cf5460fc54604080517f9bf62d82000000000000000000000000000000000000000000000000000000008152905173ffffffffffffffffffffffffffffffffffffffff9384169390921691639bf62d82916004808201926020929091908290030181865afa158015611d73573d6000803e3d6000fd5b505050506040513d601f19601f82011682018060405250810190611d979190612518565b73ffffffffffffffffffffffffffffffffffffffff1614905090565b600073ffffffffffffffffffffffffffffffffffffffff8216301480611df3575060fc5473ffffffffffffffffffffffffffffffffffffffff8381169116145b92915050565b600080603f83619c4001026040850201603f5a021015949350505050565b600080600080845160208601878a8af19695505050505050565b60fd54604080517f4397dfef0000000000000000000000000000000000000000000000000000000081528151600093849373ffffffffffffffffffffffffffffffffffffffff90911692634397dfef92600480830193928290030181865afa158015611ea1573d6000803e3d6000fd5b505050506040513d601f19601f82011682018060405250810190611ec591906127fa565b90939092509050565b606084848484604051602401611ee7949392919061283a565b604080517fffffffffffffffffffffffffffffffffffffffffffffffffffffffffffffffe08184030181529190526020810180517bffffffffffffffffffffffffffffffffffffffffffffffffffffffff167fcbd4ece9000000000000000000000000000000000000000000000000000000001790529050949350505050565b6060868686868686604051602401611f8496959493929190612884565b604080517fffffffffffffffffffffffffffffffffffffffffffffffffffffffffffffffe08184030181529190526020810180517bffffffffffffffffffffffffffffffffffffffffffffffffffffffff167fd764ad0b0000000000000000000000000000000000000000000000000000000017905290509695505050505050565b73ffffffffffffffffffffffffffffffffffffffff8116811461202857600080fd5b50565b60008083601f84011261203d57600080fd5b50813567ffffffffffffffff81111561205557600080fd5b60208301915083602082850101111561206d57600080fd5b9250929050565b803563ffffffff8116811461208857600080fd5b919050565b600080600080606085870312156120a357600080fd5b84356120ae81612006565b9350602085013567ffffffffffffffff8111156120ca57600080fd5b6120d68782880161202b565b90945092506120e9905060408601612074565b905092959194509250565b60005b8381101561210f5781810151838201526020016120f7565b8381111561211e576000848401525b50505050565b6000815180845261213c8160208601602086016120f4565b601f017fffffffffffffffffffffffffffffffffffffffffffffffffffffffffffffffe0169290920160200192915050565b602081526000610f286020830184612124565b60006020828403121561219357600080fd5b5035919050565b60008060008060008060c087890312156121b357600080fd5b86356121be81612006565b955060208701356121ce81612006565b945060408701356121de81612006565b935060608701356121ee81612006565b92506080870135915060a087013567ffffffffffffffff8116811461221257600080fd5b809150509295509295509295565b7f4e487b7100000000000000000000000000000000000000000000000000000000600052604160045260246000fd5b6000806040838503121561226257600080fd5b823567ffffffffffffffff8082111561227a57600080fd5b818501915085601f83011261228e57600080fd5b8135818111156122a0576122a0612220565b604051601f82017fffffffffffffffffffffffffffffffffffffffffffffffffffffffffffffffe0908116603f011681019083821181831017156122e6576122e6612220565b816040528281528860208487010111156122ff57600080fd5b82602086016020830137600060208483010152809650505050505061232660208401612074565b90509250929050565b60008060006060848603121561234457600080fd5b833561234f81612006565b9250602084013561235f81612006565b9150604084013561236f81612006565b809150509250925092565b600080600080600080600060c0888a03121561239557600080fd5b8735965060208801356123a781612006565b955060408801356123b781612006565b9450606088013593506080880135925060a088013567ffffffffffffffff8111156123e157600080fd5b6123ed8a828b0161202b565b989b979a50959850939692959293505050565b8183528181602085013750600060208284010152600060207fffffffffffffffffffffffffffffffffffffffffffffffffffffffffffffffe0601f840116840101905092915050565b878152600073ffffffffffffffffffffffffffffffffffffffff808916602084015280881660408401525085606083015263ffffffff8516608083015260c060a083015261249b60c083018486612400565b9998505050505050505050565b73ffffffffffffffffffffffffffffffffffffffff861681526080602082015260006124d8608083018688612400565b905083604083015263ffffffff831660608301529695505050505050565b60006020828403121561250857600080fd5b81518015158114610f2857600080fd5b60006020828403121561252a57600080fd5b8151610f2881612006565b600073ffffffffffffffffffffffffffffffffffffffff80891683528088166020840152808716604084015280861660608401525083608083015260c060a083015261258460c0830184612124565b98975050505050505050565b868152600073ffffffffffffffffffffffffffffffffffffffff808816602084015280871660408401525084606083015267ffffffffffffffff8416608083015260c060a083015261258460c0830184612124565b8581528460208201527fffffffffffffffff0000000000000000000000000000000000000000000000008460c01b16604082015282151560f81b6048820152600082516126398160498501602087016120f4565b919091016049019695505050505050565b7f4e487b7100000000000000000000000000000000000000000000000000000000600052601160045260246000fd5b60007dffffffffffffffffffffffffffffffffffffffffffffffffffffffffffff8083168185168083038211156126b2576126b261264a565b01949350505050565b600067ffffffffffffffff808316818516818304811182151516156126e2576126e261264a565b02949350505050565b600067ffffffffffffffff8084168061272d577f4e487b7100000000000000000000000000000000000000000000000000000000600052601260045260246000fd5b92169190910492915050565b600067ffffffffffffffff8083168185168083038211156126b2576126b261264a565b7f4e487b7100000000000000000000000000000000000000000000000000000000600052600160045260246000fd5b60008282101561279d5761279d61264a565b500390565b73ffffffffffffffffffffffffffffffffffffffff8616815284602082015267ffffffffffffffff84166040820152821515606082015260a0608082015260006127ef60a0830184612124565b979650505050505050565b6000806040838503121561280d57600080fd5b825161281881612006565b602084015190925060ff8116811461282f57600080fd5b809150509250929050565b600073ffffffffffffffffffffffffffffffffffffffff8087168352808616602084015250608060408301526128736080830185612124565b905082606083015295945050505050565b868152600073ffffffffffffffffffffffffffffffffffffffff808816602084015280871660408401525084606083015283608083015260c060a083015261258460c083018461212456fea164736f6c634300080f000a"
}