{"abi":[{"type":"constructor","inputs":[{"name":"_gameType","type":"uint32","internalType":"GameType"},{"name":"_absolutePrestate","type":"bytes32","internalType":"Claim"},{"name":"_maxGameDepth","type":"uint256","internalType":"uint256"},{"name":"_splitDepth","type":"uint256","internalType":"uint256"},{"name":"_clockExtension","type":"uint64","internalType":"Duration"},{"name":"_maxClockDuration","type":"uint64","internalType":"Duration"},{"name":"_vm","type":"address","internalType":"contract IBigStepper"},{"name":"_weth","type":"address","internalType":"contract IDelayedWETH"},{"name":"_anchorStateRegistry","type":"address","internalType":"contract IAnchorStateRegistry"},{"name":"_l2ChainId","type":"uint256","internalType":"uint256"}],"stateMutability":"nonpayable"},{"type":"function","name":"absolutePrestate","inputs":[],"outputs":[{"name":"absolutePrestate_","type":"bytes32","internalType":"Claim"}],"stateMutability":"view"},{"type":"function","name":"addLocalData","inputs":[{"name":"_ident","type":"uint256","internalType":"uint256"},{"name":"_execLeafIdx","type":"uint256","internalType":"uint256"},{"name":"_partOffset","type":"uint256","internalType":"uint256"}],"outputs":[],"stateMutability":"nonpayable"},{"type":"function","name":"anchorStateRegistry","inputs":[],"outputs":[{"name":"registry_","type":"address","internalType":"contract IAnchorStateRegistry"}],"stateMutability":"view"},{"type":"function","name":"attack","inputs":[{"name":"_disputed","type":"bytes32","internalType":"Claim"},{"name":"_parentIndex","type":"uint256","internalType":"uint256"},{"name":"_claim","type":"bytes32","internalType":"Claim"}],"outputs":[],"stateMutability":"payable"},{"type":"function","name":"challengeRootL2Block","inputs":[{"name":"_outputRootProof","type":"tuple","internalType":"struct Types.OutputRootProof","components":[{"name":"version","type":"bytes32","internalType":"bytes32"},{"name":"stateRoot","type":"bytes32","internalType":"bytes32"},{"name":"messagePasserStorageRoot","type":"bytes32","internalType":"bytes32"},{"name":"latestBlockhash","type":"bytes32","internalType":"bytes32"}]},{"name":"_headerRLP","type":"bytes","internalType":"bytes"}],"outputs":[],"stateMutability":"nonpayable"},{"type":"function","name":"claimCredit","inputs":[{"name":"_recipient","type":"address","internalType":"address"}],"outputs":[],"stateMutability":"nonpayable"},{"type":"function","name":"claimData","inputs":[{"name":"","type":"uint256","internalType":"uint256"}],"outputs":[{"name":"parentIndex","type":"uint32","internalType":"uint32"},{"name":"counteredBy","type":"address","internalType":"address"},{"name":"claimant","type":"address","internalType":"address"},{"name":"bond","type":"uint128","internalType":"uint128"},{"name":"claim","type":"bytes32","internalType":"Claim"},{"name":"position","type":"uint128","internalType":"Position"},{"name":"clock","type":"uint128","internalType":"Clock"}],"stateMutability":"view"},{"type":"function","name":"claimDataLen","inputs":[],"outputs":[{"name":"len_","type":"uint256","internalType":"uint256"}],"stateMutability":"view"},{"type":"function","name":"claims","inputs":[{"name":"","type":"bytes32","internalType":"Hash"}],"outputs":[{"name":"","type":"bool","internalType":"bool"}],"stateMutability":"view"},{"type":"function","name":"clockExtension","inputs":[],"outputs":[{"name":"clockExtension_","type":"uint64","internalType":"Duration"}],"stateMutability":"view"},{"type":"function","name":"createdAt","inputs":[],"outputs":[{"name":"","type":"uint64","internalType":"Timestamp"}],"stateMutability":"view"},{"type":"function","name":"credit","inputs":[{"name":"","type":"address","internalType":"address"}],"outputs":[{"name":"","type":"uint256","internalType":"uint256"}],"stateMutability":"view"},{"type":"function","name":"defend","inputs":[{"name":"_disputed","type":"bytes32","internalType":"Claim"},{"name":"_parentIndex","type":"uint256","internalType":"uint256"},{"name":"_claim","type":"bytes32","internalType":"Claim"}],"outputs":[],"stateMutability":"payable"},{"type":"function","name":"extraData","inputs":[],"outputs":[{"name":"extraData_","type":"bytes","internalType":"bytes"}],"stateMutability":"pure"},{"type":"function","name":"gameCreator","inputs":[],"outputs":[{"name":"creator_","type":"address","internalType":"address"}],"stateMutability":"pure"},{"type":"function","name":"gameData","inputs":[],"outputs":[{"name":"gameType_","type":"uint32","internalType":"GameType"},{"name":"rootClaim_","type":"bytes32","internalType":"Claim"},{"name":"extraData_","type":"bytes","internalType":"bytes"}],"stateMutability":"view"},{"type":"function","name":"gameType","inputs":[],"outputs":[{"name":"gameType_","type":"uint32","internalType":"GameType"}],"stateMutability":"view"},{"type":"function","name":"getChallengerDuration","inputs":[{"name":"_claimIndex","type":"uint256","internalType":"uint256"}],"outputs":[{"name":"duration_","type":"uint64","internalType":"Duration"}],"stateMutability":"view"},{"type":"function","name":"getNumToResolve","inputs":[{"name":"_claimIndex","type":"uint256","internalType":"uint256"}],"outputs":[{"name":"numRemainingChildren_","type":"uint256","internalType":"uint256"}],"stateMutability":"view"},{"type":"function","name":"getRequiredBond","inputs":[{"name":"_position","type":"uint128","internalType":"Position"}],"outputs":[{"name":"requiredBond_","type":"uint256","internalType":"uint256"}],"stateMutability":"view"},{"type":"function","name":"initialize","inputs":[],"outputs":[],"stateMutability":"payable"},{"type":"function","name":"l1Head","inputs":[],"outputs":[{"name":"l1Head_","type":"bytes32","internalType":"Hash"}],"stateMutability":"pure"},{"type":"function","name":"l2BlockNumber","inputs":[],"outputs":[{"name":"l2BlockNumber_","type":"uint256","internalType":"uint256"}],"stateMutability":"pure"},{"type":"function","name":"l2BlockNumberChallenged","inputs":[],"outputs":[{"name":"","type":"bool","internalType":"bool"}],"stateMutability":"view"},{"type":"function","name":"l2BlockNumberChallenger","inputs":[],"outputs":[{"name":"","type":"address","internalType":"address"}],"stateMutability":"view"},{"type":"function","name":"l2ChainId","inputs":[],"outputs":[{"name":"l2ChainId_","type":"uint256","internalType":"uint256"}],"stateMutability":"view"},{"type":"function","name":"maxClockDuration","inputs":[],"outputs":[{"name":"maxClockDuration_","type":"uint64","internalType":"Duration"}],"stateMutability":"view"},{"type":"function","name":"maxGameDepth","inputs":[],"outputs":[{"name":"maxGameDepth_","type":"uint256","internalType":"uint256"}],"stateMutability":"view"},{"type":"function","name":"move","inputs":[{"name":"_disputed","type":"bytes32","internalType":"Claim"},{"name":"_challengeIndex","type":"uint256","internalType":"uint256"},{"name":"_claim","type":"bytes32","internalType":"Claim"},{"name":"_isAttack","type":"bool","internalType":"bool"}],"outputs":[],"stateMutability":"payable"},{"type":"function","name":"resolutionCheckpoints","inputs":[{"name":"","type":"uint256","internalType":"uint256"}],"outputs":[{"name":"initialCheckpointComplete","type":"bool","internalType":"bool"},{"name":"subgameIndex","type":"uint32","internalType":"uint32"},{"name":"leftmostPosition","type":"uint128","internalType":"Position"},{"name":"counteredBy","type":"address","internalType":"address"}],"stateMutability":"view"},{"type":"function","name":"resolve","inputs":[],"outputs":[{"name":"status_","type":"uint8","internalType":"enum GameStatus"}],"stateMutability":"nonpayable"},{"type":"function","name":"resolveClaim","inputs":[{"name":"_claimIndex","type":"uint256","internalType":"uint256"},{"name":"_numToResolve","type":"uint256","internalType":"uint256"}],"outputs":[],"stateMutability":"nonpayable"},{"type":"function","name":"resolvedAt","inputs":[],"outputs":[{"name":"","type":"uint64","internalType":"Timestamp"}],"stateMutability":"view"},{"type":"function","name":"resolvedSubgames","inputs":[{"name":"","type":"uint256","internalType":"uint256"}],"outputs":[{"name":"","type":"bool","internalType":"bool"}],"stateMutability":"view"},{"type":"function","name":"rootClaim","inputs":[],"outputs":[{"name":"rootClaim_","type":"bytes32","internalType":"Claim"}],"stateMutability":"pure"},{"type":"function","name":"splitDepth","inputs":[],"outputs":[{"name":"splitDepth_","type":"uint256","internalType":"uint256"}],"stateMutability":"view"},{"type":"function","name":"startingBlockNumber","inputs":[],"outputs":[{"name":"startingBlockNumber_","type":"uint256","internalType":"uint256"}],"stateMutability":"view"},{"type":"function","name":"startingOutputRoot","inputs":[],"outputs":[{"name":"root","type":"bytes32","internalType":"Hash"},{"name":"l2BlockNumber","type":"uint256","internalType":"uint256"}],"stateMutability":"view"},{"type":"function","name":"startingRootHash","inputs":[],"outputs":[{"name":"startingRootHash_","type":"bytes32","internalType":"Hash"}],"stateMutability":"view"},{"type":"function","name":"status","inputs":[],"outputs":[{"name":"","type":"uint8","internalType":"enum GameStatus"}],"stateMutability":"view"},{"type":"function","name":"step","inputs":[{"name":"_claimIndex","type":"uint256","internalType":"uint256"},{"name":"_isAttack","type":"bool","internalType":"bool"},{"name":"_stateData","type":"bytes","internalType":"bytes"},{"name":"_proof","type":"bytes","internalType":"bytes"}],"outputs":[],"stateMutability":"nonpayable"},{"type":"function","name":"subgames","inputs":[{"name":"","type":"uint256","internalType":"uint256"},{"name":"","type":"uint256","internalType":"uint256"}],"outputs":[{"name":"","type":"uint256","internalType":"uint256"}],"stateMutability":"view"},{"type":"function","name":"version","inputs":[],"outputs":[{"name":"","type":"string","internalType":"string"}],"stateMutability":"view"},{"type":"function","name":"vm","inputs":[],"outputs":[{"name":"vm_","type":"address","internalType":"contract IBigStepper"}],"stateMutability":"view"},{"type":"function","name":"weth","inputs":[],"outputs":[{"name":"weth_","type":"address","internalType":"contract IDelayedWETH"}],"stateMutability":"view"},{"type":"event","name":"Move","inputs":[{"name":"parentIndex","type":"uint256","indexed":true,"internalType":"uint256"},{"name":"claim","type":"bytes32","indexed":true,"internalType":"Claim"},{"name":"claimant","type":"address","indexed":true,"internalType":"address"}],"anonymous":false},{"type":"event","name":"Resolved","inputs":[{"name":"status","type":"uint8","indexed":true,"internalType":"enum GameStatus"},{"name":"rootClaim","type":"bytes32","indexed":true,"internalType":"Claim"},{"name":"l2BlockNumber","type":"uint256","indexed":true,"internalType":"uint256"}],"anonymous":false},{"type":"error","name":"AlreadyInitialized","inputs":[]},{"type":"error","name":"AnchorRootNotFound","inputs":[]},{"type":"error","name":"BlockNumberMatches","inputs":[]},{"type":"error","name":"BondTransferFailed","inputs":[]},{"type":"error","name":"CannotDefendRootClaim","inputs":[]},{"type":"error","name":"ClaimAboveSplit","inputs":[]},{"type":"error","name":"ClaimAlreadyExists","inputs":[]},{"type":"error","name":"ClaimAlreadyResolved","inputs":[]},{"type":"error","name":"ClockNotExpired","inputs":[]},{"type":"error","name":"ClockTimeExceeded","inputs":[]},{"type":"error","name":"ContentLengthMismatch","inputs":[]},{"type":"error","name":"DuplicateStep","inputs":[]},{"type":"error","name":"EmptyItem","inputs":[]},{"type":"error","name":"GameDepthExceeded","inputs":[]},{"type":"error","name":"GameNotInProgress","inputs":[]},{"type":"error","name":"IncorrectBondAmount","inputs":[]},{"type":"error","name":"InvalidClockExtension","inputs":[]},{"type":"error","name":"InvalidDataRemainder","inputs":[]},{"type":"error","name":"InvalidDisputedClaimIndex","inputs":[]},{"type":"error","name":"InvalidHeader","inputs":[]},{"type":"error","name":"InvalidHeaderRLP","inputs":[]},{"type":"error","name":"InvalidLocalIdent","inputs":[]},{"type":"error","name":"InvalidOutputRootProof","inputs":[]},{"type":"error","name":"InvalidParent","inputs":[]},{"type":"error","name":"InvalidPrestate","inputs":[]},{"type":"error","name":"InvalidSplitDepth","inputs":[]},{"type":"error","name":"L2BlockNumberChallenged","inputs":[]},{"type":"error","name":"MaxDepthTooLarge","inputs":[]},{"type":"error","name":"NoCreditToClaim","inputs":[]},{"type":"error","name":"OutOfOrderResolution","inputs":[]},{"type":"error","name":"UnexpectedList","inputs":[]},{"type":"error","name":"UnexpectedRootClaim","inputs":[{"name":"rootClaim","type":"bytes32","internalType":"Claim"}]},{"type":"error","name":"UnexpectedString","inputs":[]},{"type":"error","name":"ValidStep","inputs":[]}],"bytecode":{"object":"0x6101c06040523480156200001257600080fd5b5060405162005fb438038062005fb4833981016040819052620000359162000187565b620000436001607e62000248565b60ff168811156200006757604051633beff19960e11b815260040160405180910390fd5b878710620000885760405163e62ccf3960e01b815260040160405180910390fd5b620000a7856001600160401b03166200014e60201b62000c891760201c565b6001600160401b0316620000cf876001600160401b03166200014e60201b62000c891760201c565b6001600160401b03161115620000f85760405163235dfb2b60e21b815260040160405180910390fd5b63ffffffff9099166101205260809790975260a09590955260c0939093526001600160401b039182166101a0521660e0526001600160a01b0390811661010052908116610140521661016052610180526200027a565b90565b80516001600160401b03811681146200016957600080fd5b919050565b6001600160a01b03811681146200018457600080fd5b50565b6000806000806000806000806000806101408b8d031215620001a857600080fd5b8a5163ffffffff81168114620001bd57600080fd5b809a505060208b0151985060408b0151975060608b01519650620001e460808c0162000151565b9550620001f460a08c0162000151565b945060c08b015162000206816200016e565b60e08c015190945062000219816200016e565b6101008c01519093506200022d816200016e565b809250506101208b015190509295989b9194979a5092959850565b600060ff821660ff8416808210156200027157634e487b7160e01b600052601160045260246000fd5b90039392505050565b60805160a05160c05160e05161010051610120516101405161016051610180516101a051615bc2620003f2600039600081816106bb01528181611ed001528181611f8e0152611fb8015260008181610a1e01526137d6015260008181610613015281816117ca01526124f00152600081816105270152818161198c01528181612389015281816128f20152613c9601526000818161088d015281816124af01526138650152600081816104b40152818161314a015261349f015260008181610a7101528181610f6001528181611e6a01528181611efb01528181611ff001528181612afe0152612b40015260008181610aa401528181611cb301528181611dd901528181611f5901528181612f9d0152818161369e01528181613d8d015281816144b3015281816145e1015281816146e201526147b7015260008181610b4b01528181611d7c01528181612c0e01528181612c9401528181612e930152612fbe015260008181610786015261305c0152615bc26000f3fe6080604052600436106102f25760003560e01c806370872aa51161018f578063c6f0308c116100e1578063ec5e63081161008a578063fa24f74311610064578063fa24f74314610b18578063fa315aa914610b3c578063fe2bbeb214610b6f57600080fd5b8063ec5e630814610a95578063eff0f59214610ac8578063f8f43ff614610af857600080fd5b8063d6ae3cd5116100bb578063d6ae3cd514610a0f578063d8cc1a3c14610a42578063dabd396d14610a6257600080fd5b8063c6f0308c14610937578063cf09e0d0146109c1578063d5d44d80146109e257600080fd5b80638d450a9511610143578063bcef3b551161011d578063bcef3b55146108b7578063bd8da956146108f7578063c395e1ca1461091757600080fd5b80638d450a9514610777578063a445ece6146107aa578063bbdc02db1461087657600080fd5b80638129fc1c116101745780638129fc1c1461071a5780638980e0cc146107225780638b85902b1461073757600080fd5b806370872aa5146106f25780637b0f0adc1461070757600080fd5b80633fc8cef3116102485780635c0cba33116101fc5780636361506d116101d65780636361506d1461066c5780636b6716c0146106ac5780636f034409146106df57600080fd5b80635c0cba3314610604578063609d33341461063757806360e274641461064c57600080fd5b806354fd4d501161022d57806354fd4d501461055e57806357da950e146105b45780635a5fa2d9146105e457600080fd5b80633fc8cef314610518578063472777c61461054b57600080fd5b80632810e1d6116102aa57806337b1b2291161028457806337b1b229146104655780633a768463146104a55780633e3ac912146104d857600080fd5b80632810e1d6146103de5780632ad69aeb146103f357806330dbe5701461041357600080fd5b806319effeb4116102db57806319effeb414610339578063200d2ed21461038457806325fc2ace146103bf57600080fd5b806301935130146102f757806303c2924d14610319575b600080fd5b34801561030357600080fd5b5061031761031236600461536d565b610b9f565b005b34801561032557600080fd5b506103176103343660046153c8565b610ec0565b34801561034557600080fd5b506000546103669068010000000000000000900467ffffffffffffffff1681565b60405167ffffffffffffffff90911681526020015b60405180910390f35b34801561039057600080fd5b506000546103b290700100000000000000000000000000000000900460ff1681565b60405161037b9190615419565b3480156103cb57600080fd5b506008545b60405190815260200161037b565b3480156103ea57600080fd5b506103b2611566565b3480156103ff57600080fd5b506103d061040e3660046153c8565b61184b565b34801561041f57600080fd5b506001546104409073ffffffffffffffffffffffffffffffffffffffff1681565b60405173ffffffffffffffffffffffffffffffffffffffff909116815260200161037b565b34801561047157600080fd5b50367ffffffffffffffffffffffffffffffffffffffffffffffffffffffffffffffffe81013560f01c90033560601c610440565b3480156104b157600080fd5b507f0000000000000000000000000000000000000000000000000000000000000000610440565b3480156104e457600080fd5b50600054610508907201000000000000000000000000000000000000900460ff1681565b604051901515815260200161037b565b34801561052457600080fd5b507f0000000000000000000000000000000000000000000000000000000000000000610440565b61031761055936600461545a565b611881565b34801561056a57600080fd5b506105a76040518060400160405280600581526020017f312e322e3000000000000000000000000000000000000000000000000000000081525081565b60405161037b91906154f1565b3480156105c057600080fd5b506008546009546105cf919082565b6040805192835260208301919091520161037b565b3480156105f057600080fd5b506103d06105ff366004615504565b611893565b34801561061057600080fd5b507f0000000000000000000000000000000000000000000000000000000000000000610440565b34801561064357600080fd5b506105a76118cd565b34801561065857600080fd5b50610317610667366004615542565b6118db565b34801561067857600080fd5b50367ffffffffffffffffffffffffffffffffffffffffffffffffffffffffffffffffe81013560f01c9003603401356103d0565b3480156106b857600080fd5b507f0000000000000000000000000000000000000000000000000000000000000000610366565b6103176106ed366004615574565b611a82565b3480156106fe57600080fd5b506009546103d0565b61031761071536600461545a565b612423565b610317612430565b34801561072e57600080fd5b506002546103d0565b34801561074357600080fd5b50367ffffffffffffffffffffffffffffffffffffffffffffffffffffffffffffffffe81013560f01c9003605401356103d0565b34801561078357600080fd5b507f00000000000000000000000000000000000000000000000000000000000000006103d0565b3480156107b657600080fd5b506108226107c5366004615504565b6007602052600090815260409020805460019091015460ff821691610100810463ffffffff1691650100000000009091046fffffffffffffffffffffffffffffffff169073ffffffffffffffffffffffffffffffffffffffff1684565b60408051941515855263ffffffff90931660208501526fffffffffffffffffffffffffffffffff9091169183019190915273ffffffffffffffffffffffffffffffffffffffff16606082015260800161037b565b34801561088257600080fd5b5060405163ffffffff7f000000000000000000000000000000000000000000000000000000000000000016815260200161037b565b3480156108c357600080fd5b50367ffffffffffffffffffffffffffffffffffffffffffffffffffffffffffffffffe81013560f01c9003601401356103d0565b34801561090357600080fd5b50610366610912366004615504565b612989565b34801561092357600080fd5b506103d06109323660046155b3565b612b68565b34801561094357600080fd5b50610957610952366004615504565b612d4b565b6040805163ffffffff909816885273ffffffffffffffffffffffffffffffffffffffff968716602089015295909416948601949094526fffffffffffffffffffffffffffffffff9182166060860152608085015291821660a08401521660c082015260e00161037b565b3480156109cd57600080fd5b506000546103669067ffffffffffffffff1681565b3480156109ee57600080fd5b506103d06109fd366004615542565b60036020526000908152604090205481565b348015610a1b57600080fd5b507f00000000000000000000000000000000000000000000000000000000000000006103d0565b348015610a4e57600080fd5b50610317610a5d3660046155e5565b612de2565b348015610a6e57600080fd5b507f0000000000000000000000000000000000000000000000000000000000000000610366565b348015610aa157600080fd5b507f00000000000000000000000000000000000000000000000000000000000000006103d0565b348015610ad457600080fd5b50610508610ae3366004615504565b60046020526000908152604090205460ff1681565b348015610b0457600080fd5b50610317610b1336600461545a565b613411565b348015610b2457600080fd5b50610b2d613863565b60405161037b9392919061566f565b348015610b4857600080fd5b507f00000000000000000000000000000000000000000000000000000000000000006103d0565b348015610b7b57600080fd5b50610508610b8a366004615504565b60066020526000908152604090205460ff1681565b60008054700100000000000000000000000000000000900460ff166002811115610bcb57610bcb6153ea565b14610c02576040517f67fe195000000000000000000000000000000000000000000000000000000000815260040160405180910390fd5b6000547201000000000000000000000000000000000000900460ff1615610c55576040517f0ea2e75200000000000000000000000000000000000000000000000000000000815260040160405180910390fd5b610c8c367ffffffffffffffffffffffffffffffffffffffffffffffffffffffffffffffffe81013560f01c90036014013590565b90565b610ca3610c9e368690038601866156c3565b6138c3565b14610cda576040517f9cc00b5b00000000000000000000000000000000000000000000000000000000815260040160405180910390fd5b82606001358282604051610cef929190615750565b604051809103902014610d2e576040517fd81d583b00000000000000000000000000000000000000000000000000000000815260040160405180910390fd5b6000610d77610d7284848080601f01602080910402602001604051908101604052809392919081815260200183838082843760009201919091525061391f92505050565b61398c565b90506000610d9e82600881518110610d9157610d91615760565b6020026020010151613b42565b9050602081511115610ddc576040517fd81d583b00000000000000000000000000000000000000000000000000000000815260040160405180910390fd5b602081810151825190910360031b1c367ffffffffffffffffffffffffffffffffffffffffffffffffffffffffffffffffe81013560f01c9003605401358103610e51576040517fb8ed883000000000000000000000000000000000000000000000000000000000815260040160405180910390fd5b5050600180547fffffffffffffffffffffffff000000000000000000000000000000000000000016331790555050600080547fffffffffffffffffffffffffff00ffffffffffffffffffffffffffffffffffff1672010000000000000000000000000000000000001790555050565b60008054700100000000000000000000000000000000900460ff166002811115610eec57610eec6153ea565b14610f23576040517f67fe195000000000000000000000000000000000000000000000000000000000815260040160405180910390fd5b600060028381548110610f3857610f38615760565b906000526020600020906005020190506000610f5384612989565b905067ffffffffffffffff7f000000000000000000000000000000000000000000000000000000000000000081169082161015610fbc576040517ff2440b5300000000000000000000000000000000000000000000000000000000815260040160405180910390fd5b60008481526006602052604090205460ff1615611005576040517ff1a9458100000000000000000000000000000000000000000000000000000000815260040160405180910390fd5b600084815260056020526040902080548015801561102257508515155b156110bd578354640100000000900473ffffffffffffffffffffffffffffffffffffffff16600081156110555781611071565b600186015473ffffffffffffffffffffffffffffffffffffffff165b905061107d8187613bf6565b50505060009485525050600660205250506040902080547fffffffffffffffffffffffffffffffffffffffffffffffffffffffffffffff00166001179055565b6000868152600760209081526040918290208251608081018452815460ff81161515808352610100820463ffffffff16948301949094526501000000000090046fffffffffffffffffffffffffffffffff16938101939093526001015473ffffffffffffffffffffffffffffffffffffffff166060830152611160576fffffffffffffffffffffffffffffffff6040820152600181526000869003611160578195505b600086826020015163ffffffff1661117891906157be565b90506000838211611189578161118b565b835b602084015190915063ffffffff165b818110156112d75760008682815481106111b6576111b6615760565b6000918252602080832090910154808352600690915260409091205490915060ff1661120e576040517f9a07664600000000000000000000000000000000000000000000000000000000815260040160405180910390fd5b60006002828154811061122357611223615760565b600091825260209091206005909102018054909150640100000000900473ffffffffffffffffffffffffffffffffffffffff161580156112805750600481015460408701516fffffffffffffffffffffffffffffffff9182169116115b156112c257600181015473ffffffffffffffffffffffffffffffffffffffff16606087015260048101546fffffffffffffffffffffffffffffffff1660408701525b505080806112cf906157d6565b91505061119a565b5063ffffffff818116602085810191825260008c81526007909152604090819020865181549351928801517fffffffffffffffffffffffffffffffffffffffffffffffffffffff00000000009094169015157fffffffffffffffffffffffffffffffffffffffffffffffffffffff00000000ff161761010092909416918202939093177fffffffffffffffffffffff00000000000000000000000000000000ffffffffff16650100000000006fffffffffffffffffffffffffffffffff909316929092029190911782556060850151600190920180547fffffffffffffffffffffffff00000000000000000000000000000000000000001673ffffffffffffffffffffffffffffffffffffffff9093169290921790915584900361155b57606083015160008a815260066020526040902080547fffffffffffffffffffffffffffffffffffffffffffffffffffffffffffffff001660011790558915801561145757506000547201000000000000000000000000000000000000900460ff165b156114cc5760015473ffffffffffffffffffffffffffffffffffffffff1661147f818a613bf6565b885473ffffffffffffffffffffffffffffffffffffffff909116640100000000027fffffffffffffffff0000000000000000000000000000000000000000ffffffff909116178855611559565b61151373ffffffffffffffffffffffffffffffffffffffff8216156114f1578161150d565b600189015473ffffffffffffffffffffffffffffffffffffffff165b89613bf6565b87547fffffffffffffffff0000000000000000000000000000000000000000ffffffff1664010000000073ffffffffffffffffffffffffffffffffffffffff8316021788555b505b505050505050505050565b600080600054700100000000000000000000000000000000900460ff166002811115611594576115946153ea565b146115cb576040517f67fe195000000000000000000000000000000000000000000000000000000000815260040160405180910390fd5b6000805260066020527f54cdd369e4e8a8515e52ca72ec816c2101831ad1f18bf44102ed171459c9b4f85460ff1661162f576040517f9a07664600000000000000000000000000000000000000000000000000000000815260040160405180910390fd5b600073ffffffffffffffffffffffffffffffffffffffff16600260008154811061165b5761165b615760565b6000918252602090912060059091020154640100000000900473ffffffffffffffffffffffffffffffffffffffff1614611696576001611699565b60025b600080547fffffffffffffffffffffffffffffffff0000000000000000ffffffffffffffff16680100000000000000004267ffffffffffffffff1602179055905061170f60547ffffffffffffffffffffffffffffffffffffffffffffffffffffffffffffffffe369081013560f01c9003013590565b367ffffffffffffffffffffffffffffffffffffffffffffffffffffffffffffffffe81013560f01c900360140135600080548491907fffffffffffffffffffffffffffffff00ffffffffffffffffffffffffffffffff1670010000000000000000000000000000000083600281111561178a5761178a6153ea565b02179055600281111561179f5761179f6153ea565b6040517f1a4e26d93d35415a4dd4d558a0a54334626fc457faedb6563834402b2bea5beb90600090a47f000000000000000000000000000000000000000000000000000000000000000073ffffffffffffffffffffffffffffffffffffffff1663838c2d1e6040518163ffffffff1660e01b8152600401600060405180830381600087803b15801561183057600080fd5b505af1158015611844573d6000803e3d6000fd5b5050505090565b6005602052816000526040600020818154811061186757600080fd5b90600052602060002001600091509150505481565b905090565b61188e8383836001611a82565b505050565b600081815260076020908152604080832060059092528220805482546118c490610100900463ffffffff168261580e565b95945050505050565b606061187c60546020613cf7565b73ffffffffffffffffffffffffffffffffffffffff8116600090815260036020526040812080549082905590819003611940576040517f17bfe5f700000000000000000000000000000000000000000000000000000000815260040160405180910390fd5b6040517ff3fef3a300000000000000000000000000000000000000000000000000000000815273ffffffffffffffffffffffffffffffffffffffff8381166004830152602482018390527f0000000000000000000000000000000000000000000000000000000000000000169063f3fef3a390604401600060405180830381600087803b1580156119d057600080fd5b505af11580156119e4573d6000803e3d6000fd5b5050505060008273ffffffffffffffffffffffffffffffffffffffff168260405160006040518083038185875af1925050503d8060008114611a42576040519150601f19603f3d011682016040523d82523d6000602084013e611a47565b606091505b505090508061188e576040517f83e6cc6b00000000000000000000000000000000000000000000000000000000815260040160405180910390fd5b60008054700100000000000000000000000000000000900460ff166002811115611aae57611aae6153ea565b14611ae5576040517f67fe195000000000000000000000000000000000000000000000000000000000815260040160405180910390fd5b600060028481548110611afa57611afa615760565b60009182526020918290206040805160e0810182526005909302909101805463ffffffff8116845273ffffffffffffffffffffffffffffffffffffffff64010000000090910481169484019490945260018101549093169082015260028201546fffffffffffffffffffffffffffffffff908116606083015260038301546080830181905260049093015480821660a084015270010000000000000000000000000000000090041660c082015291508514611be1576040517f3014033200000000000000000000000000000000000000000000000000000000815260040160405180910390fd5b60a0810151600083156fffffffffffffffffffffffffffffffff83161760011b90506000611ca1826fffffffffffffffffffffffffffffffff167e09010a0d15021d0b0e10121619031e080c141c0f111807131b17061a05041f7f07c4acdd0000000000000000000000000000000000000000000000000000000067ffffffffffffffff831160061b83811c63ffffffff1060051b1792831c600181901c17600281901c17600481901c17600881901c17601081901c170260fb1c1a1790565b60ff169050861580611cdc5750611cd97f000000000000000000000000000000000000000000000000000000000000000060026157be565b81145b8015611ce6575084155b15611d1d576040517fa42637bc00000000000000000000000000000000000000000000000000000000815260040160405180910390fd5b6000547201000000000000000000000000000000000000900460ff168015611d43575086155b15611d7a576040517f0ea2e75200000000000000000000000000000000000000000000000000000000815260040160405180910390fd5b7f0000000000000000000000000000000000000000000000000000000000000000811115611dd4576040517f56f57b2b00000000000000000000000000000000000000000000000000000000815260040160405180910390fd5b611dff7f000000000000000000000000000000000000000000000000000000000000000060016157be565b8103611e1157611e1186888588613d49565b34611e1b83612b68565b14611e52576040517f8620aa1900000000000000000000000000000000000000000000000000000000815260040160405180910390fd5b6000611e5d88612989565b905067ffffffffffffffff7f0000000000000000000000000000000000000000000000000000000000000000811690821603611ec5576040517f3381d11400000000000000000000000000000000000000000000000000000000815260040160405180910390fd5b67ffffffffffffffff7f00000000000000000000000000000000000000000000000000000000000000001667ffffffffffffffff7f000000000000000000000000000000000000000000000000000000000000000016611f259190615825565b67ffffffffffffffff16611f408267ffffffffffffffff1690565b67ffffffffffffffff161115612022576000611f7d60017f000000000000000000000000000000000000000000000000000000000000000061580e565b8314611fb35767ffffffffffffffff7f000000000000000000000000000000000000000000000000000000000000000016611fe8565b611fe87f000000000000000000000000000000000000000000000000000000000000000067ffffffffffffffff16600261584e565b905061201e817f000000000000000000000000000000000000000000000000000000000000000067ffffffffffffffff16615825565b9150505b6000604082901b42176000898152608086901b6fffffffffffffffffffffffffffffffff8c1617602052604081209192509060008181526004602052604090205490915060ff16156120a0576040517f80497e3b00000000000000000000000000000000000000000000000000000000815260040160405180910390fd5b60016004600083815260200190815260200160002060006101000a81548160ff02191690831515021790555060026040518060e001604052808c63ffffffff168152602001600073ffffffffffffffffffffffffffffffffffffffff1681526020013373ffffffffffffffffffffffffffffffffffffffff168152602001346fffffffffffffffffffffffffffffffff1681526020018b8152602001876fffffffffffffffffffffffffffffffff168152602001846fffffffffffffffffffffffffffffffff16815250908060018154018082558091505060019003906000526020600020906005020160009091909190915060008201518160000160006101000a81548163ffffffff021916908363ffffffff16021790555060208201518160000160046101000a81548173ffffffffffffffffffffffffffffffffffffffff021916908373ffffffffffffffffffffffffffffffffffffffff16021790555060408201518160010160006101000a81548173ffffffffffffffffffffffffffffffffffffffff021916908373ffffffffffffffffffffffffffffffffffffffff16021790555060608201518160020160006101000a8154816fffffffffffffffffffffffffffffffff02191690836fffffffffffffffffffffffffffffffff1602179055506080820151816003015560a08201518160040160006101000a8154816fffffffffffffffffffffffffffffffff02191690836fffffffffffffffffffffffffffffffff16021790555060c08201518160040160106101000a8154816fffffffffffffffffffffffffffffffff02191690836fffffffffffffffffffffffffffffffff1602179055505050600560008b81526020019081526020016000206001600280549050612336919061580e565b81546001810183556000928352602083200155604080517fd0e30db0000000000000000000000000000000000000000000000000000000008152905173ffffffffffffffffffffffffffffffffffffffff7f0000000000000000000000000000000000000000000000000000000000000000169263d0e30db09234926004808301939282900301818588803b1580156123ce57600080fd5b505af11580156123e2573d6000803e3d6000fd5b50506040513393508c92508d91507f9b3245740ec3b155098a55be84957a4da13eaf7f14a8bc6f53126c0b9350f2be90600090a45050505050505050505050565b61188e8383836000611a82565b60005471010000000000000000000000000000000000900460ff1615612482576040517f0dc149f000000000000000000000000000000000000000000000000000000000815260040160405180910390fd5b6040517f7258a80700000000000000000000000000000000000000000000000000000000815263ffffffff7f0000000000000000000000000000000000000000000000000000000000000000166004820152600090819073ffffffffffffffffffffffffffffffffffffffff7f00000000000000000000000000000000000000000000000000000000000000001690637258a807906024016040805180830381865afa158015612536573d6000803e3d6000fd5b505050506040513d601f19601f8201168201806040525081019061255a919061587e565b909250905081612596576040517f6a6bc3b200000000000000000000000000000000000000000000000000000000815260040160405180910390fd5b604080518082019091528281526020018190526008829055600981905536607a146125c957639824bdab6000526004601cfd5b80367ffffffffffffffffffffffffffffffffffffffffffffffffffffffffffffffffe81013560f01c90036054013511612663576040517ff40239db000000000000000000000000000000000000000000000000000000008152367ffffffffffffffffffffffffffffffffffffffffffffffffffffffffffffffffe81013560f01c90036014013560048201526024015b60405180910390fd5b6040805160e08101825263ffffffff8082526000602083018181527ffffffffffffffffffffffffffffffffffffffffffffffffffffffffffffffffe369081013560f01c90038035606090811c868801908152346fffffffffffffffffffffffffffffffff81811693890193845260149094013560808901908152600160a08a0181815242871660c08c019081526002805493840181558a529a5160059092027f405787fa12a823e0f2b7631cc41b3ba8828b3321ca811111fa75cd3aa3bb5ace81018054995173ffffffffffffffffffffffffffffffffffffffff908116640100000000027fffffffffffffffff000000000000000000000000000000000000000000000000909b1694909c16939093179890981790915592517f405787fa12a823e0f2b7631cc41b3ba8828b3321ca811111fa75cd3aa3bb5acf87018054918a167fffffffffffffffffffffffff000000000000000000000000000000000000000090921691909117905592517f405787fa12a823e0f2b7631cc41b3ba8828b3321ca811111fa75cd3aa3bb5ad0860180549186167fffffffffffffffffffffffffffffffff0000000000000000000000000000000090921691909117905591517f405787fa12a823e0f2b7631cc41b3ba8828b3321ca811111fa75cd3aa3bb5ad185015551955182167001000000000000000000000000000000000295909116949094177f405787fa12a823e0f2b7631cc41b3ba8828b3321ca811111fa75cd3aa3bb5ad29091015580547fffffffffffffffffffffffffffff00ffffffffffffffffffffffffffffffffff167101000000000000000000000000000000000017815583517fd0e30db000000000000000000000000000000000000000000000000000000000815293517f00000000000000000000000000000000000000000000000000000000000000009092169363d0e30db093926004828101939282900301818588803b15801561293857600080fd5b505af115801561294c573d6000803e3d6000fd5b5050600080547fffffffffffffffffffffffffffffffffffffffffffffffff0000000000000000164267ffffffffffffffff161790555050505050565b600080600054700100000000000000000000000000000000900460ff1660028111156129b7576129b76153ea565b146129ee576040517f67fe195000000000000000000000000000000000000000000000000000000000815260040160405180910390fd5b600060028381548110612a0357612a03615760565b600091825260208220600590910201805490925063ffffffff90811614612a7257815460028054909163ffffffff16908110612a4157612a41615760565b906000526020600020906005020160040160109054906101000a90046fffffffffffffffffffffffffffffffff1690505b6004820154600090612aaa90700100000000000000000000000000000000900467ffffffffffffffff165b67ffffffffffffffff1690565b612abe9067ffffffffffffffff164261580e565b612add612a9d846fffffffffffffffffffffffffffffffff1660401c90565b67ffffffffffffffff16612af191906157be565b905067ffffffffffffffff7f00000000000000000000000000000000000000000000000000000000000000001667ffffffffffffffff168167ffffffffffffffff1611612b3e57806118c4565b7f000000000000000000000000000000000000000000000000000000000000000095945050505050565b600080612c07836fffffffffffffffffffffffffffffffff167e09010a0d15021d0b0e10121619031e080c141c0f111807131b17061a05041f7f07c4acdd0000000000000000000000000000000000000000000000000000000067ffffffffffffffff831160061b83811c63ffffffff1060051b1792831c600181901c17600281901c17600481901c17600881901c17601081901c170260fb1c1a1790565b60ff1690507f0000000000000000000000000000000000000000000000000000000000000000811115612c66576040517f56f57b2b00000000000000000000000000000000000000000000000000000000815260040160405180910390fd5b642e90edd00062061a806311e1a3006000612c8183836158d1565b9050670de0b6b3a76400006000612cb8827f00000000000000000000000000000000000000000000000000000000000000006158e5565b90506000612cd6612cd1670de0b6b3a7640000866158e5565b613efa565b90506000612ce48484614155565b90506000612cf283836141a4565b90506000612cff826141d2565b90506000612d1e82612d19670de0b6b3a76400008f6158e5565b6143ba565b90506000612d2c8b836141a4565b9050612d38818d6158e5565b9f9e505050505050505050505050505050565b60028181548110612d5b57600080fd5b60009182526020909120600590910201805460018201546002830154600384015460049094015463ffffffff8416955064010000000090930473ffffffffffffffffffffffffffffffffffffffff908116949216926fffffffffffffffffffffffffffffffff91821692918082169170010000000000000000000000000000000090041687565b60008054700100000000000000000000000000000000900460ff166002811115612e0e57612e0e6153ea565b14612e45576040517f67fe195000000000000000000000000000000000000000000000000000000000815260040160405180910390fd5b600060028781548110612e5a57612e5a615760565b6000918252602082206005919091020160048101549092506fffffffffffffffffffffffffffffffff16908715821760011b9050612eb97f000000000000000000000000000000000000000000000000000000000000000060016157be565b612f55826fffffffffffffffffffffffffffffffff167e09010a0d15021d0b0e10121619031e080c141c0f111807131b17061a05041f7f07c4acdd0000000000000000000000000000000000000000000000000000000067ffffffffffffffff831160061b83811c63ffffffff1060051b1792831c600181901c17600281901c17600481901c17600881901c17601081901c170260fb1c1a1790565b60ff1614612f8f576040517f5f53dd9800000000000000000000000000000000000000000000000000000000815260040160405180910390fd5b600080891561308657612fe27f00000000000000000000000000000000000000000000000000000000000000007f000000000000000000000000000000000000000000000000000000000000000061580e565b6001901b613001846fffffffffffffffffffffffffffffffff166143f4565b6fffffffffffffffffffffffffffffffff1661301d9190615922565b1561305a5761305161304260016fffffffffffffffffffffffffffffffff8716615936565b865463ffffffff166000614493565b6003015461307c565b7f00000000000000000000000000000000000000000000000000000000000000005b91508490506130b0565b600385015491506130ad6130426fffffffffffffffffffffffffffffffff8616600161595f565b90505b600882901b60088a8a6040516130c7929190615750565b6040518091039020901b14613108576040517f696550ff00000000000000000000000000000000000000000000000000000000815260040160405180910390fd5b60006131138c614577565b90506000613122836003015490565b6040517fe14ced320000000000000000000000000000000000000000000000000000000081527f000000000000000000000000000000000000000000000000000000000000000073ffffffffffffffffffffffffffffffffffffffff169063e14ced329061319c908f908f908f908f908a906004016159dc565b6020604051808303816000875af11580156131bb573d6000803e3d6000fd5b505050506040513d601f19601f820116820180604052508101906131df9190615a16565b60048501549114915060009060029061328a906fffffffffffffffffffffffffffffffff167e09010a0d15021d0b0e10121619031e080c141c0f111807131b17061a05041f7f07c4acdd0000000000000000000000000000000000000000000000000000000067ffffffffffffffff831160061b83811c63ffffffff1060051b1792831c600181901c17600281901c17600481901c17600881901c17601081901c170260fb1c1a1790565b613326896fffffffffffffffffffffffffffffffff167e09010a0d15021d0b0e10121619031e080c141c0f111807131b17061a05041f7f07c4acdd0000000000000000000000000000000000000000000000000000000067ffffffffffffffff831160061b83811c63ffffffff1060051b1792831c600181901c17600281901c17600481901c17600881901c17601081901c170260fb1c1a1790565b6133309190615a2f565b61333a9190615a52565b60ff16159050811515810361337b576040517ffb4e40dd00000000000000000000000000000000000000000000000000000000815260040160405180910390fd5b8754640100000000900473ffffffffffffffffffffffffffffffffffffffff16156133d2576040517f9071e6af00000000000000000000000000000000000000000000000000000000815260040160405180910390fd5b505085547fffffffffffffffff0000000000000000000000000000000000000000ffffffff163364010000000002179095555050505050505050505050565b60008054700100000000000000000000000000000000900460ff16600281111561343d5761343d6153ea565b14613474576040517f67fe195000000000000000000000000000000000000000000000000000000000815260040160405180910390fd5b600080600080613483866145a6565b93509350935093506000613499858585856149af565b905060007f000000000000000000000000000000000000000000000000000000000000000073ffffffffffffffffffffffffffffffffffffffff16637dc0d1d06040518163ffffffff1660e01b8152600401602060405180830381865afa158015613508573d6000803e3d6000fd5b505050506040513d601f19601f8201168201806040525081019061352c9190615a74565b9050600189036136245773ffffffffffffffffffffffffffffffffffffffff81166352f0f3ad8a84613588367ffffffffffffffffffffffffffffffffffffffffffffffffffffffffffffffffe81013560f01c90036034013590565b6040517fffffffff0000000000000000000000000000000000000000000000000000000060e086901b16815260048101939093526024830191909152604482015260206064820152608481018a905260a4015b6020604051808303816000875af11580156135fa573d6000803e3d6000fd5b505050506040513d601f19601f8201168201806040525081019061361e9190615a16565b5061155b565b600289036136505773ffffffffffffffffffffffffffffffffffffffff81166352f0f3ad8a8489613588565b6003890361367c5773ffffffffffffffffffffffffffffffffffffffff81166352f0f3ad8a8487613588565b600489036137985760006136c26fffffffffffffffffffffffffffffffff85167f0000000000000000000000000000000000000000000000000000000000000000614a69565b6009546136cf91906157be565b6136da9060016157be565b905073ffffffffffffffffffffffffffffffffffffffff82166352f0f3ad8b8560405160e084901b7fffffffff000000000000000000000000000000000000000000000000000000001681526004810192909252602482015260c084901b604482015260086064820152608481018b905260a4016020604051808303816000875af115801561376d573d6000803e3d6000fd5b505050506040513d601f19601f820116820180604052508101906137919190615a16565b505061155b565b60058903613831576040517f52f0f3ad000000000000000000000000000000000000000000000000000000008152600481018a9052602481018390527f000000000000000000000000000000000000000000000000000000000000000060c01b6044820152600860648201526084810188905273ffffffffffffffffffffffffffffffffffffffff8216906352f0f3ad9060a4016135db565b6040517fff137e6500000000000000000000000000000000000000000000000000000000815260040160405180910390fd5b7f0000000000000000000000000000000000000000000000000000000000000000367ffffffffffffffffffffffffffffffffffffffffffffffffffffffffffffffffe81013560f01c90036014013560606138bc6118cd565b9050909192565b60008160000151826020015183604001518460600151604051602001613902949392919093845260208401929092526040830152606082015260800190565b604051602081830303815290604052805190602001209050919050565b6040805180820190915260008082526020820152815160000361396e576040517f5ab458fb00000000000000000000000000000000000000000000000000000000815260040160405180910390fd5b50604080518082019091528151815260209182019181019190915290565b6060600080600061399c85614b17565b9194509250905060018160018111156139b7576139b76153ea565b146139ee576040517f4b9c6abe00000000000000000000000000000000000000000000000000000000815260040160405180910390fd5b84516139fa83856157be565b14613a31576040517f5c5537b800000000000000000000000000000000000000000000000000000000815260040160405180910390fd5b604080516020808252610420820190925290816020015b6040805180820190915260008082526020820152815260200190600190039081613a485790505093506000835b8651811015613b3657600080613abb6040518060400160405280858c60000151613a9f919061580e565b8152602001858c60200151613ab491906157be565b9052614b17565b509150915060405180604001604052808383613ad791906157be565b8152602001848b60200151613aec91906157be565b815250888581518110613b0157613b01615760565b6020908102919091010152613b176001856157be565b9350613b2381836157be565b613b2d90846157be565b92505050613a75565b50845250919392505050565b60606000806000613b5285614b17565b919450925090506000816001811115613b6d57613b6d6153ea565b14613ba4576040517f1ff9b2e400000000000000000000000000000000000000000000000000000000815260040160405180910390fd5b613bae82846157be565b855114613be7576040517f5c5537b800000000000000000000000000000000000000000000000000000000815260040160405180910390fd5b6118c485602001518484614fb5565b600281015473ffffffffffffffffffffffffffffffffffffffff8316600090815260036020526040812080546fffffffffffffffffffffffffffffffff90931692839290613c459084906157be565b90915550506040517f7eee288d00000000000000000000000000000000000000000000000000000000815273ffffffffffffffffffffffffffffffffffffffff8481166004830152602482018390527f00000000000000000000000000000000000000000000000000000000000000001690637eee288d90604401600060405180830381600087803b158015613cda57600080fd5b505af1158015613cee573d6000803e3d6000fd5b50505050505050565b604051818152367ffffffffffffffffffffffffffffffffffffffffffffffffffffffffffffffffe81013560f01c90038284820160208401378260208301016000815260208101604052505092915050565b6000613d686fffffffffffffffffffffffffffffffff8416600161595f565b90506000613d7882866001614493565b9050600086901a8380613e645750613db160027f0000000000000000000000000000000000000000000000000000000000000000615922565b6004830154600290613e55906fffffffffffffffffffffffffffffffff167e09010a0d15021d0b0e10121619031e080c141c0f111807131b17061a05041f7f07c4acdd0000000000000000000000000000000000000000000000000000000067ffffffffffffffff831160061b83811c63ffffffff1060051b1792831c600181901c17600281901c17600481901c17600881901c17601081901c170260fb1c1a1790565b613e5f9190615a52565b60ff16145b15613ebc5760ff811660011480613e7e575060ff81166002145b613eb7576040517ff40239db0000000000000000000000000000000000000000000000000000000081526004810188905260240161265a565b613cee565b60ff811615613cee576040517ff40239db0000000000000000000000000000000000000000000000000000000081526004810188905260240161265a565b6fffffffffffffffffffffffffffffffff811160071b81811c67ffffffffffffffff1060061b1781811c63ffffffff1060051b1781811c61ffff1060041b1781811c60ff1060031b1760008213613f5957631615e6386000526004601cfd5b7ff8f9f9faf9fdfafbf9fdfcfdfafbfcfef9fafdfafcfcfbfefafafcfbffffffff6f8421084210842108cc6318c6db6d54be83831c1c601f161a1890811b609f90811c6c465772b2bbbb5f824b15207a3081018102606090811d6d0388eaa27412d5aca026815d636e018202811d6d0df99ac502031bf953eff472fdcc018202811d6d13cdffb29d51d99322bdff5f2211018202811d6d0a0f742023def783a307a986912e018202811d6d01920d8043ca89b5239253284e42018202811d6c0b7a86d7375468fac667a0a527016c29508e458543d8aa4df2abee7883018302821d6d0139601a2efabe717e604cbb4894018302821d6d02247f7a7b6594320649aa03aba1018302821d7fffffffffffffffffffffffffffffffffffffff73c0c716a594e00d54e3c4cbc9018302821d7ffffffffffffffffffffffffffffffffffffffdc7b88c420e53a9890533129f6f01830290911d7fffffffffffffffffffffffffffffffffffffff465fda27eb4d63ded474e5f832019091027ffffffffffffffff5f6af8f7b3396644f18e157960000000000000000000000000105711340daa0d5f769dba1915cef59f0815a5506029190037d0267a36c0c95b3975ab3ee5b203a7614a3f75373f047d803ae7b6687f2b302017d57115e47018c7177eebf7cd370a3356a1b7863008a5ae8028c72b88642840160ae1d90565b60007812725dd1d243aba0e75fe645cc4873f9e65afe688c928e1f218311670de0b6b3a76400000215820261419257637c5f487d6000526004601cfd5b50670de0b6b3a7640000919091020490565b6000816000190483118202156141c25763bac65e5b6000526004601cfd5b50670de0b6b3a764000091020490565b60007ffffffffffffffffffffffffffffffffffffffffffffffffdc0d0570925a462d7821361420057919050565b680755bf798b4a1bf1e5821261421e5763a37bfec96000526004601cfd5b6503782dace9d9604e83901b059150600060606bb17217f7d1cf79abc9e3b39884821b056b80000000000000000000000001901d6bb17217f7d1cf79abc9e3b39881029093037fffffffffffffffffffffffffffffffffffffffdbf3ccf1604d263450f02a550481018102606090811d6d0277594991cfc85f6e2461837cd9018202811d7fffffffffffffffffffffffffffffffffffffe5adedaa1cb095af9e4da10e363c018202811d6db1bbb201f443cf962f1a1d3db4a5018202811d7ffffffffffffffffffffffffffffffffffffd38dc772608b0ae56cce01296c0eb018202811d6e05180bb14799ab47a8a8cb2a527d57016d02d16720577bd19bf614176fe9ea6c10fe68e7fd37d0007b713f765084018402831d9081019084017ffffffffffffffffffffffffffffffffffffffe2c69812cf03b0763fd454a8f7e010290911d6e0587f503bb6ea29d25fcb7401964500190910279d835ebba824c98fb31b83b2ca45c000000000000000000000000010574029d9dc38563c32e5c2f6dc192ee70ef65f9978af30260c3939093039290921c92915050565b60006143eb670de0b6b3a7640000836143d286613efa565b6143dc9190615a91565b6143e69190615b4d565b6141d2565b90505b92915050565b600080614481837e09010a0d15021d0b0e10121619031e080c141c0f111807131b17061a05041f7f07c4acdd0000000000000000000000000000000000000000000000000000000067ffffffffffffffff831160061b83811c63ffffffff1060051b1792831c600181901c17600281901c17600481901c17600881901c17601081901c170260fb1c1a1790565b600160ff919091161b90920392915050565b600080826144dc576144d76fffffffffffffffffffffffffffffffff86167f000000000000000000000000000000000000000000000000000000000000000061504a565b6144f7565b6144f7856fffffffffffffffffffffffffffffffff166151d6565b90506002848154811061450c5761450c615760565b906000526020600020906005020191505b60048201546fffffffffffffffffffffffffffffffff82811691161461456f57815460028054909163ffffffff1690811061455a5761455a615760565b9060005260206000209060050201915061451d565b509392505050565b6000806000806000614588866145a6565b935093509350935061459c848484846149af565b9695505050505050565b60008060008060008590506000600282815481106145c6576145c6615760565b600091825260209091206004600590920201908101549091507f00000000000000000000000000000000000000000000000000000000000000009061469d906fffffffffffffffffffffffffffffffff167e09010a0d15021d0b0e10121619031e080c141c0f111807131b17061a05041f7f07c4acdd0000000000000000000000000000000000000000000000000000000067ffffffffffffffff831160061b83811c63ffffffff1060051b1792831c600181901c17600281901c17600481901c17600881901c17601081901c170260fb1c1a1790565b60ff16116146d7576040517fb34b5c2200000000000000000000000000000000000000000000000000000000815260040160405180910390fd5b6000815b60048301547f00000000000000000000000000000000000000000000000000000000000000009061479e906fffffffffffffffffffffffffffffffff167e09010a0d15021d0b0e10121619031e080c141c0f111807131b17061a05041f7f07c4acdd0000000000000000000000000000000000000000000000000000000067ffffffffffffffff831160061b83811c63ffffffff1060051b1792831c600181901c17600281901c17600481901c17600881901c17601081901c170260fb1c1a1790565b60ff16925082111561481357825463ffffffff166147dd7f000000000000000000000000000000000000000000000000000000000000000060016157be565b83036147e7578391505b600281815481106147fa576147fa615760565b90600052602060002090600502019350809450506146db565b600481810154908401546fffffffffffffffffffffffffffffffff91821691166000816fffffffffffffffffffffffffffffffff1661487c614867856fffffffffffffffffffffffffffffffff1660011c90565b6fffffffffffffffffffffffffffffffff1690565b6fffffffffffffffffffffffffffffffff16149050801561494b5760006148b4836fffffffffffffffffffffffffffffffff166143f4565b6fffffffffffffffffffffffffffffffff16111561491f5760006148f66148ee60016fffffffffffffffffffffffffffffffff8616615936565b896001614493565b6003810154600490910154909c506fffffffffffffffffffffffffffffffff169a506149259050565b6008549a505b600386015460048701549099506fffffffffffffffffffffffffffffffff1697506149a1565b600061496d6148ee6fffffffffffffffffffffffffffffffff8516600161595f565b6003808901546004808b015492840154930154909e506fffffffffffffffffffffffffffffffff9182169d50919b50169850505b505050505050509193509193565b60006fffffffffffffffffffffffffffffffff841615614a1c5760408051602081018790526fffffffffffffffffffffffffffffffff8087169282019290925260608101859052908316608082015260a001604051602081830303815290604052805190602001206118c4565b8282604051602001614a4a9291909182526fffffffffffffffffffffffffffffffff16602082015260400190565b6040516020818303038152906040528051906020012095945050505050565b600080614af6847e09010a0d15021d0b0e10121619031e080c141c0f111807131b17061a05041f7f07c4acdd0000000000000000000000000000000000000000000000000000000067ffffffffffffffff831160061b83811c63ffffffff1060051b1792831c600181901c17600281901c17600481901c17600881901c17601081901c170260fb1c1a1790565b60ff1690508083036001841b600180831b0386831b17039250505092915050565b60008060008360000151600003614b5a576040517f5ab458fb00000000000000000000000000000000000000000000000000000000815260040160405180910390fd5b6020840151805160001a607f8111614b7f576000600160009450945094505050614fae565b60b78111614c95576000614b9460808361580e565b905080876000015111614bd3576040517f66c9448500000000000000000000000000000000000000000000000000000000815260040160405180910390fd5b6001838101517fff00000000000000000000000000000000000000000000000000000000000000169082148015614c4b57507f80000000000000000000000000000000000000000000000000000000000000007fff000000000000000000000000000000000000000000000000000000000000008216105b15614c82576040517fbabb01dd00000000000000000000000000000000000000000000000000000000815260040160405180910390fd5b5060019550935060009250614fae915050565b60bf8111614df3576000614caa60b78361580e565b905080876000015111614ce9576040517f66c9448500000000000000000000000000000000000000000000000000000000815260040160405180910390fd5b60018301517fff00000000000000000000000000000000000000000000000000000000000000166000819003614d4b576040517fbabb01dd00000000000000000000000000000000000000000000000000000000815260040160405180910390fd5b600184015160088302610100031c60378111614d93576040517fbabb01dd00000000000000000000000000000000000000000000000000000000815260040160405180910390fd5b614d9d81846157be565b895111614dd6576040517f66c9448500000000000000000000000000000000000000000000000000000000815260040160405180910390fd5b614de18360016157be565b9750955060009450614fae9350505050565b60f78111614e58576000614e0860c08361580e565b905080876000015111614e47576040517f66c9448500000000000000000000000000000000000000000000000000000000815260040160405180910390fd5b600195509350849250614fae915050565b6000614e6560f78361580e565b905080876000015111614ea4576040517f66c9448500000000000000000000000000000000000000000000000000000000815260040160405180910390fd5b60018301517fff00000000000000000000000000000000000000000000000000000000000000166000819003614f06576040517fbabb01dd00000000000000000000000000000000000000000000000000000000815260040160405180910390fd5b600184015160088302610100031c60378111614f4e576040517fbabb01dd00000000000000000000000000000000000000000000000000000000815260040160405180910390fd5b614f5881846157be565b895111614f91576040517f66c9448500000000000000000000000000000000000000000000000000000000815260040160405180910390fd5b614f9c8360016157be565b9750955060019450614fae9350505050565b9193909250565b60608167ffffffffffffffff811115614fd057614fd0615694565b6040519080825280601f01601f191660200182016040528015614ffa576020820181803683370190505b509050811561504357600061500f84866157be565b90506020820160005b84811015615030578281015182820152602001615018565b8481111561503f576000858301525b5050505b9392505050565b6000816150e9846fffffffffffffffffffffffffffffffff167e09010a0d15021d0b0e10121619031e080c141c0f111807131b17061a05041f7f07c4acdd0000000000000000000000000000000000000000000000000000000067ffffffffffffffff831160061b83811c63ffffffff1060051b1792831c600181901c17600281901c17600481901c17600881901c17601081901c170260fb1c1a1790565b60ff16116150ff5763b34b5c226000526004601cfd5b615108836151d6565b9050816151a7826fffffffffffffffffffffffffffffffff167e09010a0d15021d0b0e10121619031e080c141c0f111807131b17061a05041f7f07c4acdd0000000000000000000000000000000000000000000000000000000067ffffffffffffffff831160061b83811c63ffffffff1060051b1792831c600181901c17600281901c17600481901c17600881901c17601081901c170260fb1c1a1790565b60ff16116143ee576143eb6151bd8360016157be565b6fffffffffffffffffffffffffffffffff83169061527b565b6000811960018301168161526a827e09010a0d15021d0b0e10121619031e080c141c0f111807131b17061a05041f7f07c4acdd0000000000000000000000000000000000000000000000000000000067ffffffffffffffff831160061b83811c63ffffffff1060051b1792831c600181901c17600281901c17600481901c17600881901c17601081901c170260fb1c1a1790565b60ff169390931c8015179392505050565b600080615308847e09010a0d15021d0b0e10121619031e080c141c0f111807131b17061a05041f7f07c4acdd0000000000000000000000000000000000000000000000000000000067ffffffffffffffff831160061b83811c63ffffffff1060051b1792831c600181901c17600281901c17600481901c17600881901c17601081901c170260fb1c1a1790565b60ff169050808303600180821b0385821b179250505092915050565b60008083601f84011261533657600080fd5b50813567ffffffffffffffff81111561534e57600080fd5b60208301915083602082850101111561536657600080fd5b9250929050565b600080600083850360a081121561538357600080fd5b608081121561539157600080fd5b50839250608084013567ffffffffffffffff8111156153af57600080fd5b6153bb86828701615324565b9497909650939450505050565b600080604083850312156153db57600080fd5b50508035926020909101359150565b7f4e487b7100000000000000000000000000000000000000000000000000000000600052602160045260246000fd5b6020810160038310615454577f4e487b7100000000000000000000000000000000000000000000000000000000600052602160045260246000fd5b91905290565b60008060006060848603121561546f57600080fd5b505081359360208301359350604090920135919050565b6000815180845260005b818110156154ac57602081850181015186830182015201615490565b818111156154be576000602083870101525b50601f017fffffffffffffffffffffffffffffffffffffffffffffffffffffffffffffffe0169290920160200192915050565b6020815260006143eb6020830184615486565b60006020828403121561551657600080fd5b5035919050565b73ffffffffffffffffffffffffffffffffffffffff8116811461553f57600080fd5b50565b60006020828403121561555457600080fd5b81356150438161551d565b8035801515811461556f57600080fd5b919050565b6000806000806080858703121561558a57600080fd5b8435935060208501359250604085013591506155a86060860161555f565b905092959194509250565b6000602082840312156155c557600080fd5b81356fffffffffffffffffffffffffffffffff8116811461504357600080fd5b600080600080600080608087890312156155fe57600080fd5b8635955061560e6020880161555f565b9450604087013567ffffffffffffffff8082111561562b57600080fd5b6156378a838b01615324565b9096509450606089013591508082111561565057600080fd5b5061565d89828a01615324565b979a9699509497509295939492505050565b63ffffffff841681528260208201526060604082015260006118c46060830184615486565b7f4e487b7100000000000000000000000000000000000000000000000000000000600052604160045260246000fd5b6000608082840312156156d557600080fd5b6040516080810181811067ffffffffffffffff8211171561571f577f4e487b7100000000000000000000000000000000000000000000000000000000600052604160045260246000fd5b8060405250823581526020830135602082015260408301356040820152606083013560608201528091505092915050565b8183823760009101908152919050565b7f4e487b7100000000000000000000000000000000000000000000000000000000600052603260045260246000fd5b7f4e487b7100000000000000000000000000000000000000000000000000000000600052601160045260246000fd5b600082198211156157d1576157d161578f565b500190565b60007fffffffffffffffffffffffffffffffffffffffffffffffffffffffffffffffff82036158075761580761578f565b5060010190565b6000828210156158205761582061578f565b500390565b600067ffffffffffffffff838116908316818110156158465761584661578f565b039392505050565b600067ffffffffffffffff808316818516818304811182151516156158755761587561578f565b02949350505050565b6000806040838503121561589157600080fd5b505080516020909101519092909150565b7f4e487b7100000000000000000000000000000000000000000000000000000000600052601260045260246000fd5b6000826158e0576158e06158a2565b500490565b6000817fffffffffffffffffffffffffffffffffffffffffffffffffffffffffffffffff048311821515161561591d5761591d61578f565b500290565b600082615931576159316158a2565b500690565b60006fffffffffffffffffffffffffffffffff838116908316818110156158465761584661578f565b60006fffffffffffffffffffffffffffffffff80831681851680830382111561598a5761598a61578f565b01949350505050565b8183528181602085013750600060208284010152600060207fffffffffffffffffffffffffffffffffffffffffffffffffffffffffffffffe0601f840116840101905092915050565b6060815260006159f0606083018789615993565b8281036020840152615a03818688615993565b9150508260408301529695505050505050565b600060208284031215615a2857600080fd5b5051919050565b600060ff821660ff841680821015615a4957615a4961578f565b90039392505050565b600060ff831680615a6557615a656158a2565b8060ff84160691505092915050565b600060208284031215615a8657600080fd5b81516150438161551d565b60007f7fffffffffffffffffffffffffffffffffffffffffffffffffffffffffffffff600084136000841385830485118282161615615ad257615ad261578f565b7f80000000000000000000000000000000000000000000000000000000000000006000871286820588128184161615615b0d57615b0d61578f565b60008712925087820587128484161615615b2957615b2961578f565b87850587128184161615615b3f57615b3f61578f565b505050929093029392505050565b600082615b5c57615b5c6158a2565b7fffffffffffffffffffffffffffffffffffffffffffffffffffffffffffffffff83147f800000000000000000000000000000000000000000000000000000000000000083141615615bb057615bb061578f565b50059056fea164736f6c634300080f000a","linkReferences":{}},"methodIdentifiers":{"absolutePrestate()":"8d450a95","addLocalData(uint256,uint256,uint256)":"f8f43ff6","anchorStateRegistry()":"5c0cba33","attack(bytes32,uint256,bytes32)":"472777c6","challengeRootL2Block((bytes32,bytes32,bytes32,bytes32),bytes)":"01935130","claimCredit(address)":"60e27464","claimData(uint256)":"c6f0308c","claimDataLen()":"8980e0cc","claims(bytes32)":"eff0f592","clockExtension()":"6b6716c0","createdAt()":"cf09e0d0","credit(address)":"d5d44d80","defend(bytes32,uint256,bytes32)":"7b0f0adc","extraData()":"609d3334","gameCreator()":"37b1b229","gameData()":"fa24f743","gameType()":"bbdc02db","getChallengerDuration(uint256)":"bd8da956","getNumToResolve(uint256)":"5a5fa2d9","getRequiredBond(uint128)":"c395e1ca","initialize()":"8129fc1c","l1Head()":"6361506d","l2BlockNumber()":"8b85902b","l2BlockNumberChallenged()":"3e3ac912","l2BlockNumberChallenger()":"30dbe570","l2ChainId()":"d6ae3cd5","maxClockDuration()":"dabd396d","maxGameDepth()":"fa315aa9","move(bytes32,uint256,bytes32,bool)":"6f034409","resolutionCheckpoints(uint256)":"a445ece6","resolve()":"2810e1d6","resolveClaim(uint256,uint256)":"03c2924d","resolvedAt()":"19effeb4","resolvedSubgames(uint256)":"fe2bbeb2","rootClaim()":"bcef3b55","splitDepth()":"ec5e6308","startingBlockNumber()":"70872aa5","startingOutputRoot()":"57da950e","startingRootHash()":"25fc2ace","status()":"200d2ed2","step(uint256,bool,bytes,bytes)":"d8cc1a3c","subgames(uint256,uint256)":"2ad69aeb","version()":"54fd4d50","vm()":"3a768463","weth()":"3fc8cef3"},"storageLayout":{"storage":[{"astId":103730,"contract":"src/dispute/FaultDisputeGame.sol:FaultDisputeGame","label":"createdAt","offset":0,"slot":"0","type":"t_userDefinedValueType(Timestamp)107532"},{"astId":103734,"contract":"src/dispute/FaultDisputeGame.sol:FaultDisputeGame","label":"resolvedAt","offset":8,"slot":"0","type":"t_userDefinedValueType(Timestamp)107532"},{"astId":103738,"contract":"src/dispute/FaultDisputeGame.sol:FaultDisputeGame","label":"status","offset":16,"slot":"0","type":"t_enum(GameStatus)107582"},{"astId":103741,"contract":"src/dispute/FaultDisputeGame.sol:FaultDisputeGame","label":"initialized","offset":17,"slot":"0","type":"t_bool"},{"astId":103744,"contract":"src/dispute/FaultDisputeGame.sol:FaultDisputeGame","label":"l2BlockNumberChallenged","offset":18,"slot":"0","type":"t_bool"},{"astId":103747,"contract":"src/dispute/FaultDisputeGame.sol:FaultDisputeGame","label":"l2BlockNumberChallenger","offset":0,"slot":"1","type":"t_address"},{"astId":103752,"contract":"src/dispute/FaultDisputeGame.sol:FaultDisputeGame","label":"claimData","offset":0,"slot":"2","type":"t_array(t_struct(ClaimData)106770_storage)dyn_storage"},{"astId":103757,"contract":"src/dispute/FaultDisputeGame.sol:FaultDisputeGame","label":"credit","offset":0,"slot":"3","type":"t_mapping(t_address,t_uint256)"},{"astId":103763,"contract":"src/dispute/FaultDisputeGame.sol:FaultDisputeGame","label":"claims","offset":0,"slot":"4","type":"t_mapping(t_userDefinedValueType(Hash)107517,t_bool)"},{"astId":103769,"contract":"src/dispute/FaultDisputeGame.sol:FaultDisputeGame","label":"subgames","offset":0,"slot":"5","type":"t_mapping(t_uint256,t_array(t_uint256)dyn_storage)"},{"astId":103774,"contract":"src/dispute/FaultDisputeGame.sol:FaultDisputeGame","label":"resolvedSubgames","offset":0,"slot":"6","type":"t_mapping(t_uint256,t_bool)"},{"astId":103780,"contract":"src/dispute/FaultDisputeGame.sol:FaultDisputeGame","label":"resolutionCheckpoints","offset":0,"slot":"7","type":"t_mapping(t_uint256,t_struct(ResolutionCheckpoint)106780_storage)"},{"astId":103784,"contract":"src/dispute/FaultDisputeGame.sol:FaultDisputeGame","label":"startingOutputRoot","offset":0,"slot":"8","type":"t_struct(OutputRoot)107588_storage"}],"types":{"t_address":{"encoding":"inplace","label":"address","numberOfBytes":"20"},"t_array(t_struct(ClaimData)106770_storage)dyn_storage":{"encoding":"dynamic_array","label":"struct IFaultDisputeGame.ClaimData[]","numberOfBytes":"32","base":"t_struct(ClaimData)106770_storage"},"t_array(t_uint256)dyn_storage":{"encoding":"dynamic_array","label":"uint256[]","numberOfBytes":"32","base":"t_uint256"},"t_bool":{"encoding":"inplace","label":"bool","numberOfBytes":"1"},"t_enum(GameStatus)107582":{"encoding":"inplace","label":"enum GameStatus","numberOfBytes":"1"},"t_mapping(t_address,t_uint256)":{"encoding":"mapping","key":"t_address","label":"mapping(address => uint256)","numberOfBytes":"32","value":"t_uint256"},"t_mapping(t_uint256,t_array(t_uint256)dyn_storage)":{"encoding":"mapping","key":"t_uint256","label":"mapping(uint256 => uint256[])","numberOfBytes":"32","value":"t_array(t_uint256)dyn_storage"},"t_mapping(t_uint256,t_bool)":{"encoding":"mapping","key":"t_uint256","label":"mapping(uint256 => bool)","numberOfBytes":"32","value":"t_bool"},"t_mapping(t_uint256,t_struct(ResolutionCheckpoint)106780_storage)":{"encoding":"mapping","key":"t_uint256","label":"mapping(uint256 => struct IFaultDisputeGame.ResolutionCheckpoint)","numberOfBytes":"32","value":"t_struct(ResolutionCheckpoint)106780_storage"},"t_mapping(t_userDefinedValueType(Hash)107517,t_bool)":{"encoding":"mapping","key":"t_userDefinedValueType(Hash)107517","label":"mapping(Hash => bool)","numberOfBytes":"32","value":"t_bool"},"t_struct(ClaimData)106770_storage":{"encoding":"inplace","label":"struct IFaultDisputeGame.ClaimData","numberOfBytes":"160","members":[{"astId":106754,"contract":"src/dispute/FaultDisputeGame.sol:FaultDisputeGame","label":"parentIndex","offset":0,"slot":"0","type":"t_uint32"},{"astId":106756,"contract":"src/dispute/FaultDisputeGame.sol:FaultDisputeGame","label":"counteredBy","offset":4,"slot":"0","type":"t_address"},{"astId":106758,"contract":"src/dispute/FaultDisputeGame.sol:FaultDisputeGame","label":"claimant","offset":0,"slot":"1","type":"t_address"},{"astId":106760,"contract":"src/dispute/FaultDisputeGame.sol:FaultDisputeGame","label":"bond","offset":0,"slot":"2","type":"t_uint128"},{"astId":106763,"contract":"src/dispute/FaultDisputeGame.sol:FaultDisputeGame","label":"claim","offset":0,"slot":"3","type":"t_userDefinedValueType(Claim)107470"},{"astId":106766,"contract":"src/dispute/FaultDisputeGame.sol:FaultDisputeGame","label":"position","offset":0,"slot":"4","type":"t_userDefinedValueType(Position)107128"},{"astId":106769,"contract":"src/dispute/FaultDisputeGame.sol:FaultDisputeGame","label":"clock","offset":16,"slot":"4","type":"t_userDefinedValueType(Clock)107378"}]},"t_struct(OutputRoot)107588_storage":{"encoding":"inplace","label":"struct OutputRoot","numberOfBytes":"64","members":[{"astId":107585,"contract":"src/dispute/FaultDisputeGame.sol:FaultDisputeGame","label":"root","offset":0,"slot":"0","type":"t_userDefinedValueType(Hash)107517"},{"astId":107587,"contract":"src/dispute/FaultDisputeGame.sol:FaultDisputeGame","label":"l2BlockNumber","offset":0,"slot":"1","type":"t_uint256"}]},"t_struct(ResolutionCheckpoint)106780_storage":{"encoding":"inplace","label":"struct IFaultDisputeGame.ResolutionCheckpoint","numberOfBytes":"64","members":[{"astId":106772,"contract":"src/dispute/FaultDisputeGame.sol:FaultDisputeGame","label":"initialCheckpointComplete","offset":0,"slot":"0","type":"t_bool"},{"astId":106774,"contract":"src/dispute/FaultDisputeGame.sol:FaultDisputeGame","label":"subgameIndex","offset":1,"slot":"0","type":"t_uint32"},{"astId":106777,"contract":"src/dispute/FaultDisputeGame.sol:FaultDisputeGame","label":"leftmostPosition","offset":5,"slot":"0","type":"t_userDefinedValueType(Position)107128"},{"astId":106779,"contract":"src/dispute/FaultDisputeGame.sol:FaultDisputeGame","label":"counteredBy","offset":0,"slot":"1","type":"t_address"}]},"t_uint128":{"encoding":"inplace","label":"uint128","numberOfBytes":"16"},"t_uint256":{"encoding":"inplace","label":"uint256","numberOfBytes":"32"},"t_uint32":{"encoding":"inplace","label":"uint32","numberOfBytes":"4"},"t_userDefinedValueType(Claim)107470":{"encoding":"inplace","label":"Claim","numberOfBytes":"32"},"t_userDefinedValueType(Clock)107378":{"encoding":"inplace","label":"Clock","numberOfBytes":"16"},"t_userDefinedValueType(Hash)107517":{"encoding":"inplace","label":"Hash","numberOfBytes":"32"},"t_userDefinedValueType(Position)107128":{"encoding":"inplace","label":"Position","numberOfBytes":"16"},"t_userDefinedValueType(Timestamp)107532":{"encoding":"inplace","label":"Timestamp","numberOfBytes":"8"}}},"userdoc":{"version":1,"kind":"user","methods":{"absolutePrestate()":{"notice":"Returns the absolute prestate of the instruction trace."},"addLocalData(uint256,uint256,uint256)":{"notice":"Posts the requested local data to the VM's `PreimageOralce`."},"anchorStateRegistry()":{"notice":"Returns the anchor state registry contract."},"attack(bytes32,uint256,bytes32)":{"notice":"Attack a disagreed upon `Claim`."},"challengeRootL2Block((bytes32,bytes32,bytes32,bytes32),bytes)":{"notice":"Challenges the root L2 block number by providing the preimage of the output root and the L2 block header         and showing that the committed L2 block number is incorrect relative to the claimed L2 block number."},"claimCredit(address)":{"notice":"Claim the credit belonging to the recipient address."},"claimData(uint256)":{"notice":"An append-only array of all claims made during the dispute game."},"claimDataLen()":{"notice":"Returns the length of the `claimData` array."},"claims(bytes32)":{"notice":"A mapping to allow for constant-time lookups of existing claims."},"clockExtension()":{"notice":"Returns the clock extension constant."},"createdAt()":{"notice":"The starting timestamp of the game"},"credit(address)":{"notice":"Credited balances for winning participants."},"defend(bytes32,uint256,bytes32)":{"notice":"Defend an agreed upon `Claim`._disputed The `Claim` being defended."},"extraData()":{"notice":"Getter for the extra data."},"gameCreator()":{"notice":"Getter for the creator of the dispute game."},"gameData()":{"notice":"A compliant implementation of this interface should return the components of the         game UUID's preimage provided in the cwia payload. The preimage of the UUID is         constructed as `keccak256(gameType . rootClaim . extraData)` where `.` denotes         concatenation."},"gameType()":{"notice":"Getter for the game type."},"getChallengerDuration(uint256)":{"notice":"Returns the amount of time elapsed on the potential challenger to `_claimIndex`'s chess clock. Maxes         out at `MAX_CLOCK_DURATION`."},"getNumToResolve(uint256)":{"notice":"Returns the number of children that still need to be resolved in order to fully resolve a subgame rooted         at `_claimIndex`."},"getRequiredBond(uint128)":{"notice":"Returns the required bond for a given move kind."},"initialize()":{"notice":"Initializes the contract."},"l1Head()":{"notice":"Getter for the parent hash of the L1 block when the dispute game was created."},"l2BlockNumber()":{"notice":"The l2BlockNumber of the disputed output root in the `L2OutputOracle`."},"l2BlockNumberChallenged()":{"notice":"Flag for whether or not the L2 block number claim has been invalidated via `challengeRootL2Block`."},"l2BlockNumberChallenger()":{"notice":"The challenger of the L2 block number claim. Should always be `address(0)` if `l2BlockNumberChallenged`         is `false`. Should be the address of the challenger if `l2BlockNumberChallenged` is `true`."},"l2ChainId()":{"notice":"Returns the chain ID of the L2 network this contract argues about."},"maxClockDuration()":{"notice":"Returns the max clock duration."},"maxGameDepth()":{"notice":"Returns the max game depth."},"move(bytes32,uint256,bytes32,bool)":{"notice":"Generic move function, used for both `attack` and `defend` moves."},"resolutionCheckpoints(uint256)":{"notice":"A mapping of claim indices to resolution checkpoints."},"resolve()":{"notice":"If all necessary information has been gathered, this function should mark the game         status as either `CHALLENGER_WINS` or `DEFENDER_WINS` and return the status of         the resolved game. It is at this stage that the bonds should be awarded to the         necessary parties."},"resolveClaim(uint256,uint256)":{"notice":"Resolves the subgame rooted at the given claim index. `_numToResolve` specifies how many children of         the subgame will be checked in this call. If `_numToResolve` is less than the number of children, an         internal cursor will be updated and this function may be called again to complete resolution of the         subgame."},"resolvedAt()":{"notice":"The timestamp of the game's global resolution."},"resolvedSubgames(uint256)":{"notice":"A mapping of resolved subgames rooted at a claim index."},"rootClaim()":{"notice":"Getter for the root claim."},"splitDepth()":{"notice":"Returns the split depth."},"startingBlockNumber()":{"notice":"Only the starting block number of the game."},"startingOutputRoot()":{"notice":"The latest finalized output root, serving as the anchor for output bisection."},"startingRootHash()":{"notice":"Only the starting output root of the game."},"status()":{"notice":"Returns the current status of the game."},"step(uint256,bool,bytes,bytes)":{"notice":"Perform an instruction step via an on-chain fault proof processor."},"subgames(uint256,uint256)":{"notice":"A mapping of subgames rooted at a claim index to other claim indices in the subgame."},"version()":{"notice":"Semantic version."},"vm()":{"notice":"Returns the address of the VM."},"weth()":{"notice":"Returns the WETH contract for holding ETH."}},"events":{"Move(uint256,bytes32,address)":{"notice":"Emitted when a new claim is added to the DAG by `claimant`"},"Resolved(uint8,bytes32,uint256)":{"notice":"Emitted when the game is resolved."}},"errors":{"AlreadyInitialized()":[{"notice":"Thrown when a dispute game has already been initialized."}],"AnchorRootNotFound()":[{"notice":"Thrown when an anchor root is not found for a given game type."}],"BlockNumberMatches()":[{"notice":"Thrown when there is a match between the block number in the output root proof and the block number         claimed in the dispute game."}],"BondTransferFailed()":[{"notice":"Thrown when the transfer of credit to a recipient account reverts."}],"CannotDefendRootClaim()":[{"notice":"Thrown when a defense against the root claim is attempted."}],"ClaimAboveSplit()":[{"notice":"Thrown when a parent output root is attempted to be found on a claim that is in         the output root portion of the tree."}],"ClaimAlreadyExists()":[{"notice":"Thrown when a claim is attempting to be made that already exists."}],"ClaimAlreadyResolved()":[{"notice":"Thrown when resolving a claim that has already been resolved."}],"ClockNotExpired()":[{"notice":"Thrown when the game is attempted to be resolved too early."}],"ClockTimeExceeded()":[{"notice":"Thrown when a move is attempted to be made after the clock has timed out."}],"ContentLengthMismatch()":[{"notice":"The length of the content must be greater than the RLP item length"}],"DuplicateStep()":[{"notice":"Thrown when trying to step against a claim for a second time, after it has already been countered with         an instruction step."}],"EmptyItem()":[{"notice":"The length of an RLP item must be greater than zero to be decodable"}],"GameDepthExceeded()":[{"notice":"Thrown when a move is attempted to be made at or greater than the max depth of the game."}],"GameNotInProgress()":[{"notice":"Thrown when an action that requires the game to be `IN_PROGRESS` is invoked when         the game is not in progress."}],"IncorrectBondAmount()":[{"notice":"Thrown when a supplied bond is not equal to the required bond amount to cover the cost of the interaction."}],"InvalidClockExtension()":[{"notice":"Thrown on deployment if the max clock duration is less than or equal to the clock extension."}],"InvalidDataRemainder()":[{"notice":"The RLP item has an invalid data remainder"}],"InvalidDisputedClaimIndex()":[{"notice":"Thrown when a disputed claim does not match its index in the game."}],"InvalidHeader()":[{"notice":"Invalid RLP header for RLP item"}],"InvalidHeaderRLP()":[{"notice":"Thrown when header RLP is invalid with respect to the block hash in an output root proof."}],"InvalidLocalIdent()":[{"notice":"Thrown when an invalid local identifier is passed to the `addLocalData` function."}],"InvalidOutputRootProof()":[{"notice":"Thrown when an output root proof is invalid."}],"InvalidParent()":[{"notice":"Thrown when a step is attempted above the maximum game depth."}],"InvalidPrestate()":[{"notice":"Thrown when an invalid prestate is supplied to `step`."}],"InvalidSplitDepth()":[{"notice":"Thrown on deployment if the split depth is greater than or equal to the max         depth of the game."}],"L2BlockNumberChallenged()":[{"notice":"Thrown when the L2 block number claim has already been challenged."}],"MaxDepthTooLarge()":[{"notice":"Thrown on deployment if the max depth is greater than `LibPosition.`"}],"NoCreditToClaim()":[{"notice":"Thrown when a credit claim is attempted for a value of 0."}],"OutOfOrderResolution()":[{"notice":"Thrown when resolving claims out of order."}],"UnexpectedList()":[{"notice":"Decoded item type for bytes is not a string item"}],"UnexpectedRootClaim(bytes32)":[{"notice":"Thrown when the root claim has an unexpected VM status.         Some games can only start with a root-claim with a specific status."}],"UnexpectedString()":[{"notice":"The decoded item type for list is not a list item"}],"ValidStep()":[{"notice":"Thrown when a step is made that computes the expected post state correctly."}]},"notice":"An implementation of the `IFaultDisputeGame` interface."},"devdoc":{"version":1,"kind":"dev","methods":{"addLocalData(uint256,uint256,uint256)":{"params":{"_execLeafIdx":"The index of the leaf claim in an execution subgame that requires the local data for a step.","_ident":"The local identifier of the data to post.","_partOffset":"The offset of the data to post."}},"attack(bytes32,uint256,bytes32)":{"params":{"_claim":"The `Claim` at the relative attack position.","_disputed":"The `Claim` being attacked.","_parentIndex":"Index of the `Claim` to attack in the `claimData` array. This must match the `_disputed` claim."}},"challengeRootL2Block((bytes32,bytes32,bytes32,bytes32),bytes)":{"params":{"_headerRLP":"The RLP-encoded L2 block header.","_outputRootProof":"The output root proof."}},"claimCredit(address)":{"params":{"_recipient":"The owner and recipient of the credit."}},"constructor":{"params":{"_absolutePrestate":"The absolute prestate of the instruction trace.","_anchorStateRegistry":"The contract that stores the anchor state for each game type.","_clockExtension":"The clock extension to perform when the remaining duration is less than the extension.","_gameType":"The type ID of the game.","_l2ChainId":"Chain ID of the L2 network this contract argues about.","_maxClockDuration":"The maximum amount of time that may accumulate on a team's chess clock.","_maxGameDepth":"The maximum depth of bisection.","_splitDepth":"The final depth of the output bisection portion of the game.","_vm":"An onchain VM that performs single instruction steps on an FPP trace.","_weth":"WETH contract for holding ETH."}},"defend(bytes32,uint256,bytes32)":{"params":{"_claim":"The `Claim` at the relative defense position.","_parentIndex":"Index of the claim to defend in the `claimData` array. This must match the `_disputed` claim."}},"extraData()":{"details":"`clones-with-immutable-args` argument #4","returns":{"extraData_":"Any extra data supplied to the dispute game contract by the creator."}},"gameCreator()":{"details":"`clones-with-immutable-args` argument #1","returns":{"creator_":"The creator of the dispute game."}},"gameData()":{"returns":{"extraData_":"Any extra data supplied to the dispute game contract by the creator.","gameType_":"The type of proof system being used.","rootClaim_":"The root claim of the DisputeGame."}},"gameType()":{"details":"The reference impl should be entirely different depending on the type (fault, validity)      i.e. The game type should indicate the security model.","returns":{"gameType_":"The type of proof system being used."}},"getChallengerDuration(uint256)":{"params":{"_claimIndex":"The index of the subgame root claim."},"returns":{"duration_":"The time elapsed on the potential challenger to `_claimIndex`'s chess clock."}},"getNumToResolve(uint256)":{"params":{"_claimIndex":"The subgame root claim's index within `claimData`."},"returns":{"numRemainingChildren_":"The number of children that still need to be checked to resolve the subgame."}},"getRequiredBond(uint128)":{"params":{"_position":"The position of the bonded interaction."},"returns":{"requiredBond_":"The required ETH bond for the given move, in wei."}},"initialize()":{"details":"This function may only be called once."},"l1Head()":{"details":"`clones-with-immutable-args` argument #3","returns":{"l1Head_":"The parent hash of the L1 block when the dispute game was created."}},"move(bytes32,uint256,bytes32,bool)":{"params":{"_challengeIndex":"The index of the claim being moved against.","_claim":"The claim at the next logical position in the game.","_disputed":"The disputed `Claim`.","_isAttack":"Whether or not the move is an attack or defense."}},"resolve()":{"details":"May only be called if the `status` is `IN_PROGRESS`.","returns":{"status_":"The status of the game after resolution."}},"resolveClaim(uint256,uint256)":{"details":"This function must be called bottom-up in the DAG      A subgame is a tree of claims that has a maximum depth of 1.      A subgame root claims is valid if, and only if, all of its child claims are invalid.      At the deepest level in the DAG, a claim is invalid if there's a successful step against it.","params":{"_claimIndex":"The index of the subgame root claim to resolve.","_numToResolve":"The number of subgames to resolve in this call. If the input is `0`, and this is the first                      page, this function will attempt to check all of the subgame's children at once."}},"rootClaim()":{"details":"`clones-with-immutable-args` argument #2","returns":{"rootClaim_":"The root claim of the DisputeGame."}},"step(uint256,bool,bytes,bytes)":{"details":"This function should point to a fault proof processor in order to execute      a step in the fault proof program on-chain. The interface of the fault proof      processor contract should adhere to the `IBigStepper` interface.","params":{"_claimIndex":"The index of the challenged claim within `claimData`.","_isAttack":"Whether or not the step is an attack or a defense.","_proof":"Proof to access memory nodes in the VM's merkle state tree.","_stateData":"The stateData of the step is the preimage of the claim at the given        prestate, which is at `_stateIndex` if the move is an attack and `_claimIndex` if        the move is a defense. If the step is an attack on the first instruction, it is        the absolute prestate of the fault proof VM."}}},"errors":{"UnexpectedRootClaim(bytes32)":[{"params":{"rootClaim":"is the claim that was unexpected."}}]},"title":"FaultDisputeGame"},"id":176}